{"abi":[{"type":"constructor","inputs":[],"stateMutability":"nonpayable"},{"type":"function","name":"DEFAULT_ADMIN_ROLE","inputs":[],"outputs":[{"name":"","type":"bytes32","internalType":"bytes32"}],"stateMutability":"view"},{"type":"function","name":"OPERATOR_ROLE","inputs":[],"outputs":[{"name":"","type":"bytes32","internalType":"bytes32"}],"stateMutability":"view"},{"type":"function","name":"REGISTRATION_FEE","inputs":[],"outputs":[{"name":"","type":"uint256","internalType":"uint256"}],"stateMutability":"view"},{"type":"function","name":"VALIDATOR_ROLE","inputs":[],"outputs":[{"name":"","type":"bytes32","internalType":"bytes32"}],"stateMutability":"view"},{"type":"function","name":"activateModel","inputs":[{"name":"modelHash","type":"bytes32","internalType":"bytes32"}],"outputs":[],"stateMutability":"nonpayable"},{"type":"function","name":"allModelHashes","inputs":[{"name":"","type":"uint256","internalType":"uint256"}],"outputs":[{"name":"","type":"bytes32","internalType":"bytes32"}],"stateMutability":"view"},{"type":"function","name":"deactivateModel","inputs":[{"name":"modelHash","type":"bytes32","internalType":"bytes32"}],"outputs":[],"stateMutability":"nonpayable"},{"type":"function","name":"getModel","inputs":[{"name":"modelHash","type":"bytes32","internalType":"bytes32"}],"outputs":[{"name":"owner","type":"address","internalType":"address"},{"name":"name","type":"string","internalType":"string"},{"name":"framework","type":"string","internalType":"string"},{"name":"version","type":"string","internalType":"string"},{"name":"ipfsCID","type":"string","internalType":"string"},{"name":"inferencePrice","type":"uint256","internalType":"uint256"},{"name":"totalInferences","type":"uint256","internalType":"uint256"},{"name":"isActive","type":"bool","internalType":"bool"}],"stateMutability":"view"},{"type":"function","name":"getModelRevenue","inputs":[{"name":"modelHash","type":"bytes32","internalType":"bytes32"}],"outputs":[{"name":"","type":"uint256","internalType":"uint256"}],"stateMutability":"view"},{"type":"function","name":"getModelsByOwner","inputs":[{"name":"owner","type":"address","internalType":"address"}],"outputs":[{"name":"","type":"bytes32[]","internalType":"bytes32[]"}],"stateMutability":"view"},{"type":"function","name":"grantPermission","inputs":[{"name":"modelHash","type":"bytes32","internalType":"bytes32"},{"name":"user","type":"address","internalType":"address"}],"outputs":[],"stateMutability":"nonpayable"},{"type":"function","name":"grantRole","inputs":[{"name":"role","type":"bytes32","internalType":"bytes32"},{"name":"account","type":"address","internalType":"address"}],"outputs":[],"stateMutability":"nonpayable"},{"type":"function","name":"hasPermission","inputs":[{"name":"modelHash","type":"bytes32","internalType":"bytes32"},{"name":"user","type":"address","internalType":"address"}],"outputs":[{"name":"","type":"bool","internalType":"bool"}],"stateMutability":"view"},{"type":"function","name":"hasRole","inputs":[{"name":"role","type":"bytes32","internalType":"bytes32"},{"name":"account","type":"address","internalType":"address"}],"outputs":[{"name":"","type":"bool","internalType":"bool"}],"stateMutability":"view"},{"type":"function","name":"modelPermissions","inputs":[{"name":"","type":"bytes32","internalType":"bytes32"},{"name":"","type":"address","internalType":"address"}],"outputs":[{"name":"","type":"bool","internalType":"bool"}],"stateMutability":"view"},{"type":"function","name":"modelRevenue","inputs":[{"name":"","type":"bytes32","internalType":"bytes32"}],"outputs":[{"name":"","type":"uint256","internalType":"uint256"}],"stateMutability":"view"},{"type":"function","name":"models","inputs":[{"name":"","type":"bytes32","internalType":"bytes32"}],"outputs":[{"name":"modelHash","type":"bytes32","internalType":"bytes32"},{"name":"owner","type":"address","internalType":"address"},{"name":"name","type":"string","internalType":"string"},{"name":"framework","type":"string","internalType":"string"},{"name":"version","type":"string","internalType":"string"},{"name":"ipfsCID","type":"string","internalType":"string"},{"name":"sizeBytes","type":"uint256","internalType":"uint256"},{"name":"inferencePrice","type":"uint256","internalType":"uint256"},{"name":"totalInferences","type":"uint256","internalType":"uint256"},{"name":"createdAt","type":"uint256","internalType":"uint256"},{"name":"updatedAt","type":"uint256","internalType":"uint256"},{"name":"isActive","type":"bool","internalType":"bool"},{"name":"metadata","type":"tuple","internalType":"struct IModelRegistry.ModelMetadata","components":[{"name":"description","type":"string","internalType":"string"},{"name":"inputShape","type":"string[]","internalType":"string[]"},{"name":"outputShape","type":"string[]","internalType":"string[]"},{"name":"parameters","type":"uint256","internalType":"uint256"},{"name":"license","type":"string","internalType":"string"},{"name":"tags","type":"string[]","internalType":"string[]"}]}],"stateMutability":"view"},{"type":"function","name":"ownerModels","inputs":[{"name":"","type":"address","internalType":"address"},{"name":"","type":"uint256","internalType":"uint256"}],"outputs":[{"name":"","type":"bytes32","internalType":"bytes32"}],"stateMutability":"view"},{"type":"function","name":"registerModel","inputs":[{"name":"name","type":"string","internalType":"string"},{"name":"framework","type":"string","internalType":"string"},{"name":"version","type":"string","internalType":"string"},{"name":"ipfsCID","type":"string","internalType":"string"},{"name":"sizeBytes","type":"uint256","internalType":"uint256"},{"name":"inferencePrice","type":"uint256","internalType":"uint256"},{"name":"metadata","type":"tuple","internalType":"struct IModelRegistry.ModelMetadata","components":[{"name":"description","type":"string","internalType":"string"},{"name":"inputShape","type":"string[]","internalType":"string[]"},{"name":"outputShape","type":"string[]","internalType":"string[]"},{"name":"parameters","type":"uint256","internalType":"uint256"},{"name":"license","type":"string","internalType":"string"},{"name":"tags","type":"string[]","internalType":"string[]"}]}],"outputs":[{"name":"","type":"bytes32","internalType":"bytes32"}],"stateMutability":"payable"},{"type":"function","name":"requestInference","inputs":[{"name":"modelHash","type":"bytes32","internalType":"bytes32"},{"name":"inputData","type":"bytes","internalType":"bytes"}],"outputs":[{"name":"","type":"bytes","internalType":"bytes"}],"stateMutability":"payable"},{"type":"function","name":"revokePermission","inputs":[{"name":"modelHash","type":"bytes32","internalType":"bytes32"},{"name":"user","type":"address","internalType":"address"}],"outputs":[],"stateMutability":"nonpayable"},{"type":"function","name":"revokeRole","inputs":[{"name":"role","type":"bytes32","internalType":"bytes32"},{"name":"account","type":"address","internalType":"address"}],"outputs":[],"stateMutability":"nonpayable"},{"type":"function","name":"setInferencePrice","inputs":[{"name":"modelHash","type":"bytes32","internalType":"bytes32"},{"name":"newPrice","type":"uint256","internalType":"uint256"}],"outputs":[],"stateMutability":"nonpayable"},{"type":"function","name":"setRegistrationFee","inputs":[{"name":"","type":"uint256","internalType":"uint256"}],"outputs":[],"stateMutability":"view"},{"type":"function","name":"totalModels","inputs":[],"outputs":[{"name":"","type":"uint256","internalType":"uint256"}],"stateMutability":"view"},{"type":"function","name":"updateModel","inputs":[{"name":"modelHash","type":"bytes32","internalType":"bytes32"},{"name":"newVersion","type":"string","internalType":"string"},{"name":"newIpfsCID","type":"string","internalType":"string"}],"outputs":[],"stateMutability":"nonpayable"},{"type":"function","name":"withdrawFees","inputs":[],"outputs":[],"stateMutability":"nonpayable"},{"type":"event","name":"InferenceRequested","inputs":[{"name":"modelHash","type":"bytes32","indexed":true,"internalType":"bytes32"},{"name":"requester","type":"address","indexed":true,"internalType":"address"},{"name":"price","type":"uint256","indexed":false,"internalType":"uint256"}],"anonymous":false},{"type":"event","name":"ModelActivated","inputs":[{"name":"modelHash","type":"bytes32","indexed":true,"internalType":"bytes32"}],"anonymous":false},{"type":"event","name":"ModelDeactivated","inputs":[{"name":"modelHash","type":"bytes32","indexed":true,"internalType":"bytes32"}],"anonymous":false},{"type":"event","name":"ModelRegistered","inputs":[{"name":"modelHash","type":"bytes32","indexed":true,"internalType":"bytes32"},{"name":"owner","type":"address","indexed":true,"internalType":"address"},{"name":"name","type":"string","indexed":false,"internalType":"string"},{"name":"ipfsCID","type":"string","indexed":false,"internalType":"string"}],"anonymous":false},{"type":"event","name":"ModelUpdated","inputs":[{"name":"modelHash","type":"bytes32","indexed":true,"internalType":"bytes32"},{"name":"newVersion","type":"string","indexed":false,"internalType":"string"},{"name":"newIpfsCID","type":"string","indexed":false,"internalType":"string"}],"anonymous":false},{"type":"event","name":"PermissionGranted","inputs":[{"name":"modelHash","type":"bytes32","indexed":true,"internalType":"bytes32"},{"name":"user","type":"address","indexed":true,"internalType":"address"}],"anonymous":false},{"type":"event","name":"PermissionRevoked","inputs":[{"name":"modelHash","type":"bytes32","indexed":true,"internalType":"bytes32"},{"name":"user","type":"address","indexed":true,"internalType":"address"}],"anonymous":false},{"type":"event","name":"RoleGranted","inputs":[{"name":"role","type":"bytes32","indexed":true,"internalType":"bytes32"},{"name":"account","type":"address","indexed":true,"internalType":"address"}],"anonymous":false},{"type":"event","name":"RoleRevoked","inputs":[{"name":"role","type":"bytes32","indexed":true,"internalType":"bytes32"},{"name":"account","type":"address","indexed":true,"internalType":"address"}],"anonymous":false}],"bytecode":{"object":"0x6080604081815234620000e857600180555f80526020905f8252805f20335f52825260ff815f20541615620000b2575b7f97667070c54ef182b0f5858b034beac1b6f3089aa2d3188bb1e8929f4fa9b92991825f525f8152815f20335f52815260ff825f205416156200007a575b6128c58481620000ed8239f35b825f525f8152815f2090335f52525f20600160ff1982541617905533905f80516020620029b28339815191525f80a35f80806200006d565b5f80525f8252805f20335f528252805f20600160ff19825416179055335f5f80516020620029b28339815191528180a36200002f565b5f80fdfe6080806040526004361015610012575f80fd5b5f3560e01c908163017d71961461228357508063047af67f146121dc578063182c3e14146121955780632123c159146120e757806321e7c4981461200e57806328545c0d14611f9f5780632a0dd0d414611f4f5780632f2ff15d14611e98578063476343ee14611db657806349dc4e2f14610e045780635f6e691e14610d5a57806364b4f75114610d385780637ed2870b14610ce057806391d1485414610c98578063a217fddf14610c7e578063a6a8f17b14610bf7578063af9c91b214610bcd578063b076ec4514610bcd578063bc58645614610b43578063bfaa984314610804578063c320c72714610787578063c49baebe1461074d578063d547741f1461069a578063d6d9fee214610651578063d7c7e94814610379578063e236f46b146101835763f5b541a614610145575f80fd5b3461017f575f36600319011261017f5760206040517f97667070c54ef182b0f5858b034beac1b6f3089aa2d3188bb1e8929f4fa9b9298152f35b5f80fd5b3461017f57602036600319011261017f576004355f52600260205260405f208054600160a01b6001900360018301541691600281016101c19061248f565b906101ce6003820161248f565b916101db6004830161248f565b926101e86005840161248f565b936006840154946007850154600886015491600987015493600a88015495600b89015460ff16976040519961021c8b612324565b610228600c820161248f565b8b52610236600d8201612531565b60208c0152610247600e8201612531565b60408c0152600f81015460608c01526102626010820161248f565b60808c015260110161027390612531565b60a08b01526040519c8d9c8d6101a092839282526020820152604001528c0161029b916122ea565b8b810360608d01526102ac916122ea565b8a810360808c01526102bd916122ea565b89810360a08b01526102ce916122ea565b9660c089015260e08801526101008701526101208601526101408501521515610160840152828203610180840152805160c0835260c0830161030f916122ea565b602082015190838103602085015261032691612585565b604082015190838103604085015261033d91612585565b60608201516060840152608082015190838103608085015261035e916122ea565b9060a00151918082039060a0015261037591612585565b0390f35b3461017f57606036600319011261017f576001600160401b0360043560243582811161017f576103ad90369060040161237b565b60443583811161017f576103c590369060040161237b565b90825f5260206002815260405f20906001956103ed60018060a01b038885015416331461261e565b6103fd60ff600b8501541661278f565b835196600484018289116105a8576104158154612457565b98601f998a8111610625575b50848a82116001146105c757908061044d925f916105bc575b508160011b915f199060031b1c19161790565b90555b600584019286519283116105a8576104688454612457565b898111610572575b50809883116001146104f1575050806104bf917f45f4518d007cd7fa0ce7ed1494324d91c73ecfb93047fcca91c753497553476597985f916104e657508160011b915f199060031b1c19161790565b90555b600a429101556104d282856127ce565b6104e160405192839283612767565b0390a2005b90508601518961043a565b601f92919219821698845f52815f20915f905b8b821061055b575050827f45f4518d007cd7fa0ce7ed1494324d91c73ecfb93047fcca91c7534975534765999a10610543575b5050811b0190556104c2565b8701515f1960f88460031b161c191690558880610537565b808684958294958d01518155019401920190610504565b61059990855f52825f208b80870160051c82019285881061059f575b0160051c019061272f565b89610470565b9250819261058e565b634e487b7160e01b5f52604160045260245ffd5b90508801518c61043a565b908391601f19821690845f52875f20915f5b898c8383106106105750505083116105f8575b5050811b019055610450565b8901515f1960f88460031b161c191690558b806105ec565b840151855588969094019392830192016105d9565b61064b90835f52865f208c80850160051c82019289861061059f570160051c019061272f565b8a610421565b3461017f57604036600319011261017f5761066a6122b3565b6004355f52600460205260405f209060018060a01b03165f52602052602060ff60405f2054166040519015158152f35b3461017f57604036600319011261017f576004356106b66122b3565b335f9081525f8051602061287083398151915260209081526040909120549192916106e39060ff1661265c565b5f82815280825260408082206001600160a01b0390951680835294835290205460ff1661070c57005b815f525f815260405f2090835f525260405f2060ff1981541690557f155aaafb6329a2098580462df33ec4b7441b19729b9601c5fc17ae1cf99a8a525f80a3005b3461017f575f36600319011261017f5760206040517f21702c8af46127c7fa207f89d0b0a8441bb32959a0ac7df790e9ab1a25c989268152f35b3461017f57602036600319011261017f57335f9081525f8051602061287083398151915260205260409020546107bf9060ff1661265c565b60405162461bcd60e51b815260206004820152601d60248201527f526567697374726174696f6e2066656520697320696d6d757461626c650000006044820152606490fd5b604036600319011261017f57602460043581356001600160401b0380821161017f573660238301121561017f5781600401359281841161017f573685858501011161017f5760019261085a6002855414156126b4565b60028455815f526020946002865260405f2061087c60ff600b8301541661278f565b6007810154803410610b08579088939291610a8f575b600881016108a08154612745565b9055845f526005885260405f20805490348201809211610a7c575534610a14575b509161094260845f95938695604051348152867f8cd033d366719c2e7cbb47ecbe15e3956fe6576f9b962e4ced3f9045f14951578d3393a3806040519586938d850198630e7ceccb60e41b8a528286015260406044860152826064860152018484013786838284010152601f8019910116810103606481018452018261233f565b5190826110005af193610953612700565b94156109d157508351840193838181870196031261017f578381015191821161017f570183603f8201121561017f578281015161098f81612360565b9461099d604051968761233f565b8186526040828401011161017f576109bb91604085870191016122c9565b80556103756040519282849384528301906122ea565b83601a6064926040519262461bcd60e51b845260048401528201527f496e666572656e636520657865637574696f6e206661696c65640000000000006044820152fd5b860154919250905f9081908190819034906001600160a01b03165af1610a38612700565b5015610a4757908691886108c1565b60405162461bcd60e51b815260048101879052600e818901526d14185e5b595b9d0819985a5b195960921b6044820152606490fd5b85634e487b7160e01b5f5260116004525ffd5b9091925060018060a01b03868201541633148015610aea575b15610ab65790879291610892565b60405162461bcd60e51b815260048101889052600d818a01526c2737903832b936b4b9b9b4b7b760991b6044820152606490fd5b50835f526004875260405f20335f52875260ff60405f205416610aa8565b60405162461bcd60e51b8152600481018990526014818b015273125b9cdd59999a58da595b9d081c185e5b595b9d60621b6044820152606490fd5b3461017f57604036600319011261017f57600435610b5f6122b3565b90805f52600260205260018060a01b03610b8381600160405f20015416331461261e565b815f52600460205260405f20921691825f5260205260405f20600160ff198254161790557f6f5b794a7ab7ff229b8295cd19ae4b5c92bce69238df1ad84eb47f9c9dcd4cd35f80a3005b3461017f57602036600319011261017f576004355f526005602052602060405f2054604051908152f35b3461017f57604036600319011261017f57600435610c136122b3565b90805f52600260205260018060a01b03610c3781600160405f20015416331461261e565b815f52600460205260405f20921691825f5260205260405f2060ff1981541690557f93f50f299c97f9dbc6c8c8193bc0d1072f9ed27d38a021fc70fb48f6c86dcc615f80a3005b3461017f575f36600319011261017f5760206040515f8152f35b3461017f57604036600319011261017f57610cb16122b3565b6004355f525f60205260405f209060018060a01b03165f52602052602060ff60405f2054166040519015158152f35b3461017f57604036600319011261017f57610cf961229d565b6001600160a01b03165f9081526003602052604090208054602435919082101561017f57602091610d299161230f565b90549060031b1c604051908152f35b3461017f575f36600319011261017f57602060405167016345785d8a00008152f35b3461017f57602036600319011261017f57600435805f526002602052600b60405f2060018060a01b0360018201541633148015610dcd575b610d9b906125e1565b01805460ff191660011790557f813d6799442eec6b0cb39b9b28654fe74ec2d0aa09bd745d6dbb54873ad7c39f5f80a2005b50335f9081527fee57cd81e84075558e8fcc182a1f4393f91fc97f963a136e66b7f949a62f319f602052604090205460ff16610d92565b60031960e03682011261017f576004356001600160401b03811161017f57610e3090369060040161237b565b6024356001600160401b03811161017f57610e4f90369060040161237b565b906044356001600160401b03811161017f57610e6f90369060040161237b565b916064356001600160401b03811161017f57610e8f90369060040161237b565b9360c435906001600160401b03821161017f5760c090823603011261017f5760405190610ebb82612324565b80600401356001600160401b03811161017f57610ede906004369184010161237b565b825260248101356001600160401b03811161017f57610f0390600436918401016123d8565b602083015260448101356001600160401b03811161017f57610f2b90600436918401016123d8565b60408301526064810135606083015260848101356001600160401b03811161017f57610f5d906004369184010161237b565b608083015260a4810135906001600160401b03821161017f576004610f8592369201016123d8565b60a082015267016345785d8a00003410611d7157825115611d3c57845115611d0357600754604051610fed60748260208101943360601b86528851610fd1816034850160208d016122c9565b820190426034830152605482015203605481018452018261233f565b51902093845f526002602052600960405f200154611cc757845f52600260205260405f209285845560018401336bffffffffffffffffffffffff60a01b82541617905584516001600160401b0381116105a85761104d6002860154612457565b601f8111611c94575b506020601f8211600114611c2c579080611083925f91611c2157508160011b915f199060031b1c19161790565b60028501555b8051906001600160401b0382116105a8576110a76003860154612457565b601f8111611bee575b50602090601f8311600114611b80576110e092915f91836115df575b50508160011b915f199060031b1c19161790565b60038401555b8051906001600160401b0382116105a8576111046004850154612457565b601f8111611b4d575b50602090601f8311600114611adf5761113c92915f918361198d5750508160011b915f199060031b1c19161790565b60048301555b84516001600160401b0381116105a85761115f6005840154612457565b601f8111611aac575b506020601f8211600114611a44579080611195925f91611a3957508160011b915f199060031b1c19161790565b60058301555b608435600683015560a435600783015542600983015542600a830155600b8201600160ff1982541617905580518051906001600160401b0382116105a8576111e6600c850154612457565b601f8111611a06575b50602090601f83116001146119985761121e92915f918361198d5750508160011b915f199060031b1c19161790565b600c8301555b6020810151805190600160401b82116105a857600d84015482600d860155808310611919575b5060200190600d84015f5260205f20915f905b82821061181157505050506040810151805190600160401b82116105a857600e84015482600e86015580831061179d575b5060200190600e84015f5260205f20915f905b82821061168a57505050506060810151600f83015560808101518051906001600160401b0382116105a8576112d96010850154612457565b601f8111611657575b50602090601f83116001146115ea5791806113159260a095945f926115df5750508160011b915f199060031b1c19161790565b60108401555b0151805190600160401b82116105a857601183015482601185015580831061156b575b5060206011910192015f5260205f20915f905b82821061144d5750505050335f52600360205260405f208054600160401b8110156105a8576113859160018201815561230f565b81549060031b9084821b915f19901b1916179055600654600160401b8110156105a8576001810180600655811015611439577f8427526d1af6e8ecf8c4c28c33500da814119932c7d90613e0d4c4c142bf10ac61142e60209585809460065f527ff652222313e28459528d920b65115c16c04f3efc82aaedc97be59f3f377c0d3f0155611413600754612745565b60075561142081856127ce565b604051918291339683612767565b0390a3604051908152f35b634e487b7160e01b5f52603260045260245ffd5b80518051906001600160401b0382116105a85761146a8654612457565b601f8111611530575b50602090601f83116001146114c457926114aa836001959460209487965f926114b95750508160011b915f199060031b1c19161790565b87555b01940191019092611351565b015190508d806110cc565b90865f5260205f20915f5b601f1985168110611518575083602093600196938796938794601f19811610611500575b505050811b0187556114ad565b01515f1960f88460031b161c191690558c80806114f3565b919260206001819286850151815501940192016114cf565b61155b90875f5260205f20601f850160051c81019160208610611561575b601f0160051c019061272f565b89611473565b909150819061154e565b601184015f5260205f20908382015b818301811061158a57505061133e565b8061159760019254612457565b806115a4575b500161157a565b601f811183146115b957505f81555b8a61159d565b5f908282526115d6601f60208420920160051c820185830161272f565b818355556115b3565b0151905089806110cc565b90601f19831691601086015f5260205f20925f5b81811061163f575091600193918560a097969410611627575b505050811b01601084015561131b565b01515f1960f88460031b161c19169055888080611617565b929360206001819287860151815501950193016115fe565b61168490601086015f5260205f20601f850160051c8101916020861061156157601f0160051c019061272f565b876112e2565b80518051906001600160401b0382116105a8576116a78654612457565b601f811161176d575b50602090601f831160011461170157926116e7836001959460209487965f926116f65750508160011b915f199060031b1c19161790565b87555b019401910190926112a1565b015190508f806110cc565b90865f5260205f20915f5b601f1985168110611755575083602093600196938796938794601f1981161061173d575b505050811b0187556116ea565b01515f1960f88460031b161c191690558e8080611730565b9192602060018192868501518155019401920161170c565b61179790875f5260205f20601f850160051c8101916020861061156157601f0160051c019061272f565b8b6116b0565b600e85015f5260205f20908382015b81830181106117bc57505061128e565b806117c960019254612457565b806117d6575b50016117ac565b601f811183146117eb57505f81555b8b6117cf565b5f90828252611808601f60208420920160051c820185830161272f565b818355556117e5565b80518051906001600160401b0382116105a85761182e8654612457565b601f81116118e9575b50602090601f831160011461187d579261186e836001959460209487965f926116f65750508160011b915f199060031b1c19161790565b87555b0194019101909261125d565b90865f5260205f20915f5b601f19851681106118d1575083602093600196938796938794601f198116106118b9575b505050811b018755611871565b01515f1960f88460031b161c191690558e80806118ac565b91926020600181928685015181550194019201611888565b61191390875f5260205f20601f850160051c8101916020861061156157601f0160051c019061272f565b8b611837565b600d85015f5260205f20908382015b818301811061193857505061124a565b8061194560019254612457565b80611952575b5001611928565b601f8111831461196757505f81555b8b61194b565b5f90828252611984601f60208420920160051c820185830161272f565b81835555611961565b0151905088806110cc565b9190600c85015f5260205f20905f935b601f19841685106119eb576001945083601f198116106119d3575b505050811b01600c830155611224565b01515f1960f88460031b161c191690558780806119c3565b818101518355602094850194600190930192909101906119a8565b611a3390600c86015f5260205f20601f850160051c8101916020861061156157601f0160051c019061272f565b876111ef565b90508701518861043a565b90600584015f5260205f205f925b601f1983168410611a94576001935082601f19811610611a7c575b5050811b01600583015561119b565b8801515f1960f88460031b161c191690558780611a6d565b88810151825560209384019360019092019101611a52565b611ad990600585015f5260205f20601f840160051c8101916020851061156157601f0160051c019061272f565b86611168565b9190600485015f5260205f20905f935b601f1984168510611b32576001945083601f19811610611b1a575b505050811b016004830155611142565b01515f1960f88460031b161c19169055878080611b0a565b81810151835560209485019460019093019290910190611aef565b611b7a90600486015f5260205f20601f850160051c8101916020861061156157601f0160051c019061272f565b8761110d565b9190600386015f5260205f20905f935b601f1984168510611bd3576001945083601f19811610611bbb575b505050811b0160038401556110e6565b01515f1960f88460031b161c19169055888080611bab565b81810151835560209485019460019093019290910190611b90565b611c1b90600387015f5260205f20601f850160051c8101916020861061156157601f0160051c019061272f565b886110b0565b90508701518a61043a565b90600286015f5260205f205f925b601f1983168410611c7c576001935082601f19811610611c64575b5050811b016002850155611089565b8801515f1960f88460031b161c191690558980611c55565b88810151825560209384019360019092019101611c3a565b611cc190600287015f5260205f20601f840160051c8101916020851061156157601f0160051c019061272f565b88611056565b60405162461bcd60e51b81526020600482015260146024820152734d6f64656c20616c72656164792065786973747360601b6044820152606490fd5b60405162461bcd60e51b815260206004820152601160248201527012541194c810d251081c995c5d5a5c9959607a1b6044820152606490fd5b60405162461bcd60e51b815260206004820152600d60248201526c13985b59481c995c5d5a5c9959609a1b6044820152606490fd5b60405162461bcd60e51b815260206004820152601d60248201527f496e73756666696369656e7420726567697374726174696f6e206665650000006044820152606490fd5b3461017f575f36600319011261017f57611dd5600260015414156126b4565b6002600155335f9081525f805160206128708339815191526020526040902054611e019060ff1661265c565b478015611e5d575f80808093335af1611e18612700565b5015611e245760018055005b60405162461bcd60e51b815260206004820152601160248201527015da5d1a191c985dd85b0819985a5b1959607a1b6044820152606490fd5b60405162461bcd60e51b81526020600482015260136024820152724e6f206665657320746f20776974686472617760681b6044820152606490fd5b3461017f57604036600319011261017f57600435611eb46122b3565b335f9081525f805160206128708339815191526020908152604090912054919291611ee19060ff1661265c565b5f82815280825260408082206001600160a01b0390951680835294835290205460ff1615611f0b57005b815f525f815260405f2090835f525260405f20600160ff198254161790557f2ae6a113c0ed5b78a53413ffbb7679881f11145ccfba4fb92e863dfcd5a1d2f35f80a3005b3461017f57602036600319011261017f5760043560065481101561017f5760209060065f527ff652222313e28459528d920b65115c16c04f3efc82aaedc97be59f3f377c0d3f0154604051908152f35b3461017f57604036600319011261017f57611fb86122b3565b6004355f908152600260205260409020600101546001600160a01b03918216911681148015611fef575b6020906040519015158152f35b50600460205260405f20905f52602052602060ff60405f205416611fe2565b3461017f57602036600319011261017f576004355f52600260205260405f2060018060a01b036001820154166007820154600883015460ff600b85015416906120d161205c6002870161248f565b956120c361206c6003830161248f565b916120b561208860056120816004850161248f565b930161248f565b936120a76040519b8c809c6020610100928392815201528c01906122ea565b908a820360408c01526122ea565b9088820360608a01526122ea565b9086820360808801526122ea565b9260a085015260c0840152151560e08301520390f35b3461017f5760208060031936011261017f576001600160a01b0361210961229d565b165f526003815260405f20604051908183825491828152019081925f52845f20905f5b868282106121815786866121428288038361233f565b60405192839281840190828552518091526040840192915f5b82811061216a57505050500390f35b83518552869550938101939281019260010161215b565b83548552909301926001928301920161212c565b3461017f57604036600319011261017f576004355f52600260205260405f206121cb60018060a01b03600183015416331461261e565b602435600782015542600a90910155005b3461017f57602036600319011261017f57600435805f526002602052600b60405f2060018060a01b036001820154163314801561224c575b61221d906125e1565b01805460ff191690557f77731f8c28ec1f1515adfd0a49782a0c50fa7dd8f930387223709879f318505e5f80a2005b50335f9081527fee57cd81e84075558e8fcc182a1f4393f91fc97f963a136e66b7f949a62f319f602052604090205460ff16612214565b3461017f575f36600319011261017f576020906007548152f35b600435906001600160a01b038216820361017f57565b602435906001600160a01b038216820361017f57565b5f5b8381106122da5750505f910152565b81810151838201526020016122cb565b90602091612303815180928185528580860191016122c9565b601f01601f1916010190565b8054821015611439575f5260205f2001905f90565b60c081019081106001600160401b038211176105a857604052565b90601f801991011681019081106001600160401b038211176105a857604052565b6001600160401b0381116105a857601f01601f191660200190565b81601f8201121561017f5780359061239282612360565b926123a0604051948561233f565b8284526020838301011161017f57815f926020809301838601378301015290565b6001600160401b0381116105a85760051b60200190565b81601f8201121561017f578035916020916123f2846123c1565b93612400604051958661233f565b808552838086019160051b8301019280841161017f57848301915b84831061242b5750505050505090565b82356001600160401b03811161017f57869161244c8484809489010161237b565b81520192019161241b565b90600182811c92168015612485575b602083101461247157565b634e487b7160e01b5f52602260045260245ffd5b91607f1691612466565b9060405191825f82546124a181612457565b908184526020946001916001811690815f1461250f57506001146124d1575b5050506124cf9250038361233f565b565b5f90815285812095935091905b8183106124f75750506124cf93508201015f80806124c0565b855488840185015294850194879450918301916124de565b925050506124cf94925060ff191682840152151560051b8201015f80806124c0565b90815461253d816123c1565b9261254b604051948561233f565b8184525f90815260208082208186015b848410612569575050505050565b60018381926125778561248f565b81520192019301929061255b565b90808251908181526020809101926020808460051b8301019501935f915b8483106125b35750505050505090565b90919293949584806125d1600193601f198682030187528a516122ea565b98019301930191949392906125a3565b156125e857565b60405162461bcd60e51b815260206004820152600e60248201526d139bdd08185d5d1a1bdc9a5e995960921b6044820152606490fd5b1561262557565b60405162461bcd60e51b815260206004820152600f60248201526e2737ba1036b7b232b61037bbb732b960891b6044820152606490fd5b1561266357565b60405162461bcd60e51b815260206004820152602360248201527f416363657373436f6e74726f6c3a206163636f756e74206d697373696e6720726044820152626f6c6560e81b6064820152608490fd5b156126bb57565b60405162461bcd60e51b815260206004820152601f60248201527f5265656e7472616e637947756172643a207265656e7472616e742063616c6c006044820152606490fd5b3d1561272a573d9061271182612360565b9161271f604051938461233f565b82523d5f602084013e565b606090565b81811061273a575050565b5f815560010161272f565b5f1981146127535760010190565b634e487b7160e01b5f52601160045260245ffd5b909161277e61278c936040845260408401906122ea565b9160208184039101526122ea565b90565b1561279657565b60405162461bcd60e51b815260206004820152601060248201526f4d6f64656c206e6f742061637469766560801b6044820152606490fd5b5f919061280461281284936040519283916020830195636d39dfcf60e11b875260248401526040604484015260648301906122ea565b03601f19810183528261233f565b5190826110005af1612822612700565b501561282a57565b60405162461bcd60e51b815260206004820152601e60248201527f507265636f6d70696c6520726567697374726174696f6e206661696c656400006044820152606490fdfead3228b676f7d3cd4284a5443f17f1962b36e491b30a40b2405849e597ba5fb5a264697066735822122009e790e59e0d07094b47dfefff400da2b2ce0ee6ef0751bf4b61cd009c7cc02b64736f6c634300081800332ae6a113c0ed5b78a53413ffbb7679881f11145ccfba4fb92e863dfcd5a1d2f3","linkReferences":{}},"methodIdentifiers":{"DEFAULT_ADMIN_ROLE()":"a217fddf","OPERATOR_ROLE()":"f5b541a6","REGISTRATION_FEE()":"64b4f751","VALIDATOR_ROLE()":"c49baebe","activateModel(bytes32)":"5f6e691e","allModelHashes(uint256)":"2a0dd0d4","deactivateModel(bytes32)":"047af67f","getModel(bytes32)":"21e7c498","getModelRevenue(bytes32)":"b076ec45","getModelsByOwner(address)":"2123c159","grantPermission(bytes32,address)":"bc586456","grantRole(bytes32,address)":"2f2ff15d","hasPermission(bytes32,address)":"28545c0d","hasRole(bytes32,address)":"91d14854","modelPermissions(bytes32,address)":"d6d9fee2","modelRevenue(bytes32)":"af9c91b2","models(bytes32)":"e236f46b","ownerModels(address,uint256)":"7ed2870b","registerModel(string,string,string,string,uint256,uint256,(string,string[],string[],uint256,string,string[]))":"49dc4e2f","requestInference(bytes32,bytes)":"bfaa9843","revokePermission(bytes32,address)":"a6a8f17b","revokeRole(bytes32,address)":"d547741f","setInferencePrice(bytes32,uint256)":"182c3e14","setRegistrationFee(uint256)":"c320c727","totalModels()":"017d7196","updateModel(bytes32,string,string)":"d7c7e948","withdrawFees()":"476343ee"},"id":33}