{"abi":[{"type":"constructor","inputs":[],"stateMutability":"nonpayable"},{"type":"function","name":"DEFAULT_ADMIN_ROLE","inputs":[],"outputs":[{"name":"","type":"bytes32","internalType":"bytes32"}],"stateMutability":"view"},{"type":"function","name":"OPERATOR_ROLE","inputs":[],"outputs":[{"name":"","type":"bytes32","internalType":"bytes32"}],"stateMutability":"view"},{"type":"function","name":"REGISTRATION_FEE","inputs":[],"outputs":[{"name":"","type":"uint256","internalType":"uint256"}],"stateMutability":"view"},{"type":"function","name":"VALIDATOR_ROLE","inputs":[],"outputs":[{"name":"","type":"bytes32","internalType":"bytes32"}],"stateMutability":"view"},{"type":"function","name":"activateModel","inputs":[{"name":"modelHash","type":"bytes32","internalType":"bytes32"}],"outputs":[],"stateMutability":"nonpayable"},{"type":"function","name":"allModelHashes","inputs":[{"name":"","type":"uint256","internalType":"uint256"}],"outputs":[{"name":"","type":"bytes32","internalType":"bytes32"}],"stateMutability":"view"},{"type":"function","name":"deactivateModel","inputs":[{"name":"modelHash","type":"bytes32","internalType":"bytes32"}],"outputs":[],"stateMutability":"nonpayable"},{"type":"function","name":"getModel","inputs":[{"name":"modelHash","type":"bytes32","internalType":"bytes32"}],"outputs":[{"name":"owner","type":"address","internalType":"address"},{"name":"name","type":"string","internalType":"string"},{"name":"framework","type":"string","internalType":"string"},{"name":"version","type":"string","internalType":"string"},{"name":"ipfsCID","type":"string","internalType":"string"},{"name":"inferencePrice","type":"uint256","internalType":"uint256"},{"name":"totalInferences","type":"uint256","internalType":"uint256"},{"name":"isActive","type":"bool","internalType":"bool"}],"stateMutability":"view"},{"type":"function","name":"getModelRevenue","inputs":[{"name":"modelHash","type":"bytes32","internalType":"bytes32"}],"outputs":[{"name":"","type":"uint256","internalType":"uint256"}],"stateMutability":"view"},{"type":"function","name":"getModelsByOwner","inputs":[{"name":"owner","type":"address","internalType":"address"}],"outputs":[{"name":"","type":"bytes32[]","internalType":"bytes32[]"}],"stateMutability":"view"},{"type":"function","name":"grantPermission","inputs":[{"name":"modelHash","type":"bytes32","internalType":"bytes32"},{"name":"user","type":"address","internalType":"address"}],"outputs":[],"stateMutability":"nonpayable"},{"type":"function","name":"grantRole","inputs":[{"name":"role","type":"bytes32","internalType":"bytes32"},{"name":"account","type":"address","internalType":"address"}],"outputs":[],"stateMutability":"nonpayable"},{"type":"function","name":"hasPermission","inputs":[{"name":"modelHash","type":"bytes32","internalType":"bytes32"},{"name":"user","type":"address","internalType":"address"}],"outputs":[{"name":"","type":"bool","internalType":"bool"}],"stateMutability":"view"},{"type":"function","name":"hasRole","inputs":[{"name":"role","type":"bytes32","internalType":"bytes32"},{"name":"account","type":"address","internalType":"address"}],"outputs":[{"name":"","type":"bool","internalType":"bool"}],"stateMutability":"view"},{"type":"function","name":"modelPermissions","inputs":[{"name":"","type":"bytes32","internalType":"bytes32"},{"name":"","type":"address","internalType":"address"}],"outputs":[{"name":"","type":"bool","internalType":"bool"}],"stateMutability":"view"},{"type":"function","name":"modelRevenue","inputs":[{"name":"","type":"bytes32","internalType":"bytes32"}],"outputs":[{"name":"","type":"uint256","internalType":"uint256"}],"stateMutability":"view"},{"type":"function","name":"models","inputs":[{"name":"","type":"bytes32","internalType":"bytes32"}],"outputs":[{"name":"modelHash","type":"bytes32","internalType":"bytes32"},{"name":"owner","type":"address","internalType":"address"},{"name":"name","type":"string","internalType":"string"},{"name":"framework","type":"string","internalType":"string"},{"name":"version","type":"string","internalType":"string"},{"name":"ipfsCID","type":"string","internalType":"string"},{"name":"sizeBytes","type":"uint256","internalType":"uint256"},{"name":"inferencePrice","type":"uint256","internalType":"uint256"},{"name":"totalInferences","type":"uint256","internalType":"uint256"},{"name":"createdAt","type":"uint256","internalType":"uint256"},{"name":"updatedAt","type":"uint256","internalType":"uint256"},{"name":"isActive","type":"bool","internalType":"bool"},{"name":"metadata","type":"tuple","internalType":"struct IModelRegistry.ModelMetadata","components":[{"name":"description","type":"string","internalType":"string"},{"name":"inputShape","type":"string[]","internalType":"string[]"},{"name":"outputShape","type":"string[]","internalType":"string[]"},{"name":"parameters","type":"uint256","internalType":"uint256"},{"name":"license","type":"string","internalType":"string"},{"name":"tags","type":"string[]","internalType":"string[]"}]}],"stateMutability":"view"},{"type":"function","name":"ownerModels","inputs":[{"name":"","type":"address","internalType":"address"},{"name":"","type":"uint256","internalType":"uint256"}],"outputs":[{"name":"","type":"bytes32","internalType":"bytes32"}],"stateMutability":"view"},{"type":"function","name":"registerModel","inputs":[{"name":"name","type":"string","internalType":"string"},{"name":"framework","type":"string","internalType":"string"},{"name":"version","type":"string","internalType":"string"},{"name":"ipfsCID","type":"string","internalType":"string"},{"name":"sizeBytes","type":"uint256","internalType":"uint256"},{"name":"inferencePrice","type":"uint256","internalType":"uint256"},{"name":"metadata","type":"tuple","internalType":"struct IModelRegistry.ModelMetadata","components":[{"name":"description","type":"string","internalType":"string"},{"name":"inputShape","type":"string[]","internalType":"string[]"},{"name":"outputShape","type":"string[]","internalType":"string[]"},{"name":"parameters","type":"uint256","internalType":"uint256"},{"name":"license","type":"string","internalType":"string"},{"name":"tags","type":"string[]","internalType":"string[]"}]}],"outputs":[{"name":"","type":"bytes32","internalType":"bytes32"}],"stateMutability":"payable"},{"type":"function","name":"requestInference","inputs":[{"name":"modelHash","type":"bytes32","internalType":"bytes32"},{"name":"inputData","type":"bytes","internalType":"bytes"}],"outputs":[{"name":"","type":"bytes","internalType":"bytes"}],"stateMutability":"payable"},{"type":"function","name":"revokePermission","inputs":[{"name":"modelHash","type":"bytes32","internalType":"bytes32"},{"name":"user","type":"address","internalType":"address"}],"outputs":[],"stateMutability":"nonpayable"},{"type":"function","name":"revokeRole","inputs":[{"name":"role","type":"bytes32","internalType":"bytes32"},{"name":"account","type":"address","internalType":"address"}],"outputs":[],"stateMutability":"nonpayable"},{"type":"function","name":"setInferencePrice","inputs":[{"name":"modelHash","type":"bytes32","internalType":"bytes32"},{"name":"newPrice","type":"uint256","internalType":"uint256"}],"outputs":[],"stateMutability":"nonpayable"},{"type":"function","name":"setRegistrationFee","inputs":[{"name":"","type":"uint256","internalType":"uint256"}],"outputs":[],"stateMutability":"view"},{"type":"function","name":"totalModels","inputs":[],"outputs":[{"name":"","type":"uint256","internalType":"uint256"}],"stateMutability":"view"},{"type":"function","name":"updateModel","inputs":[{"name":"modelHash","type":"bytes32","internalType":"bytes32"},{"name":"newVersion","type":"string","internalType":"string"},{"name":"newIpfsCID","type":"string","internalType":"string"}],"outputs":[],"stateMutability":"nonpayable"},{"type":"function","name":"withdrawFees","inputs":[],"outputs":[],"stateMutability":"nonpayable"},{"type":"event","name":"InferenceRequested","inputs":[{"name":"modelHash","type":"bytes32","indexed":true,"internalType":"bytes32"},{"name":"requester","type":"address","indexed":true,"internalType":"address"},{"name":"price","type":"uint256","indexed":false,"internalType":"uint256"}],"anonymous":false},{"type":"event","name":"ModelActivated","inputs":[{"name":"modelHash","type":"bytes32","indexed":true,"internalType":"bytes32"}],"anonymous":false},{"type":"event","name":"ModelDeactivated","inputs":[{"name":"modelHash","type":"bytes32","indexed":true,"internalType":"bytes32"}],"anonymous":false},{"type":"event","name":"ModelRegistered","inputs":[{"name":"modelHash","type":"bytes32","indexed":true,"internalType":"bytes32"},{"name":"owner","type":"address","indexed":true,"internalType":"address"},{"name":"name","type":"string","indexed":false,"internalType":"string"},{"name":"ipfsCID","type":"string","indexed":false,"internalType":"string"}],"anonymous":false},{"type":"event","name":"ModelUpdated","inputs":[{"name":"modelHash","type":"bytes32","indexed":true,"internalType":"bytes32"},{"name":"newVersion","type":"string","indexed":false,"internalType":"string"},{"name":"newIpfsCID","type":"string","indexed":false,"internalType":"string"}],"anonymous":false},{"type":"event","name":"PermissionGranted","inputs":[{"name":"modelHash","type":"bytes32","indexed":true,"internalType":"bytes32"},{"name":"user","type":"address","indexed":true,"internalType":"address"}],"anonymous":false},{"type":"event","name":"PermissionRevoked","inputs":[{"name":"modelHash","type":"bytes32","indexed":true,"internalType":"bytes32"},{"name":"user","type":"address","indexed":true,"internalType":"address"}],"anonymous":false},{"type":"event","name":"RoleGranted","inputs":[{"name":"role","type":"bytes32","indexed":true,"internalType":"bytes32"},{"name":"account","type":"address","indexed":true,"internalType":"address"}],"anonymous":false},{"type":"event","name":"RoleRevoked","inputs":[{"name":"role","type":"bytes32","indexed":true,"internalType":"bytes32"},{"name":"account","type":"address","indexed":true,"internalType":"address"}],"anonymous":false}],"bytecode":{"object":"0x608060405234801562000010575f80fd5b5060018055620000215f3362000053565b6200004d7f97667070c54ef182b0f5858b034beac1b6f3089aa2d3188bb1e8929f4fa9b9293362000053565b620000d4565b5f828152602081815260408083206001600160a01b038516845290915290205460ff16620000d0575f828152602081815260408083206001600160a01b0385168085529252808320805460ff1916600117905551909184917f2ae6a113c0ed5b78a53413ffbb7679881f11145ccfba4fb92e863dfcd5a1d2f39190a35b5050565b6129e280620000e25f395ff3fe608060405260043610610195575f3560e01c806391d14854116100e7578063c320c72711610087578063d6d9fee211610062578063d6d9fee2146104a4578063d7c7e948146104dd578063e236f46b146104fc578063f5b541a614610534575f80fd5b8063c320c72714610433578063c49baebe14610452578063d547741f14610485575f80fd5b8063af9c91b2116100c2578063af9c91b21461039e578063b076ec45146103c9578063bc586456146103f4578063bfaa984314610413575f80fd5b806391d148541461034d578063a217fddf1461036c578063a6a8f17b1461037f575f80fd5b80632a0dd0d41161015257806349dc4e2f1161012d57806349dc4e2f146102e15780635f6e691e146102f457806364b4f751146103135780637ed2870b1461032e575f80fd5b80632a0dd0d41461028f5780632f2ff15d146102ae578063476343ee146102cd575f80fd5b8063017d719614610199578063047af67f146101c1578063182c3e14146101e25780632123c1591461020157806321e7c4981461022d57806328545c0d14610260575b5f80fd5b3480156101a4575f80fd5b506101ae60075481565b6040519081526020015b60405180910390f35b3480156101cc575f80fd5b506101e06101db366004611ed8565b610567565b005b3480156101ed575f80fd5b506101e06101fc366004611eef565b610630565b34801561020c575f80fd5b5061022061021b366004611f2a565b61067b565b6040516101b89190611f4a565b348015610238575f80fd5b5061024c610247366004611ed8565b6106e4565b6040516101b8989796959493929190611fda565b34801561026b575f80fd5b5061027f61027a36600461205d565b610988565b60405190151581526020016101b8565b34801561029a575f80fd5b506101ae6102a9366004611ed8565b6109de565b3480156102b9575f80fd5b506101e06102c836600461205d565b6109fd565b3480156102d8575f80fd5b506101e0610a33565b6101ae6102ef3660046122e9565b610b87565b3480156102ff575f80fd5b506101e061030e366004611ed8565b610ec4565b34801561031e575f80fd5b506101ae67016345785d8a000081565b348015610339575f80fd5b506101ae6103483660046123c4565b610f8b565b348015610358575f80fd5b5061027f61036736600461205d565b610fb6565b348015610377575f80fd5b506101ae5f81565b34801561038a575f80fd5b506101e061039936600461205d565b610fde565b3480156103a9575f80fd5b506101ae6103b8366004611ed8565b60056020525f908152604090205481565b3480156103d4575f80fd5b506101ae6103e3366004611ed8565b5f9081526005602052604090205490565b3480156103ff575f80fd5b506101e061040e36600461205d565b61106f565b6104266104213660046123ec565b611103565b6040516101b89190612461565b34801561043e575f80fd5b506101e061044d366004611ed8565b611399565b34801561045d575f80fd5b506101ae7f21702c8af46127c7fa207f89d0b0a8441bb32959a0ac7df790e9ab1a25c9892681565b348015610490575f80fd5b506101e061049f36600461205d565b611408565b3480156104af575f80fd5b5061027f6104be36600461205d565b600460209081525f928352604080842090915290825290205460ff1681565b3480156104e8575f80fd5b506101e06104f7366004612473565b611439565b348015610507575f80fd5b5061051b610516366004611ed8565b611527565b6040516101b89d9c9b9a999897969594939291906125c1565b34801561053f575f80fd5b506101ae7f97667070c54ef182b0f5858b034beac1b6f3089aa2d3188bb1e8929f4fa9b92981565b5f81815260026020526040902060018101546001600160a01b03163314806105b457506105b47f97667070c54ef182b0f5858b034beac1b6f3089aa2d3188bb1e8929f4fa9b92933610fb6565b6105f65760405162461bcd60e51b815260206004820152600e60248201526d139bdd08185d5d1a1bdc9a5e995960921b60448201526064015b60405180910390fd5b600b8101805460ff1916905560405182907f77731f8c28ec1f1515adfd0a49782a0c50fa7dd8f930387223709879f318505e905f90a25050565b5f82815260026020526040902060018101546001600160a01b031633146106695760405162461bcd60e51b81526004016105ed9061267e565b600781019190915542600a9091015550565b6001600160a01b0381165f908152600360209081526040918290208054835181840281018401909452808452606093928301828280156106d857602002820191905f5260205f20905b8154815260200190600101908083116106c4575b50505050509050919050565b5f6060806060805f805f8060025f8b81526020019081526020015f209050806001015f9054906101000a90046001600160a01b0316816002018260030183600401846005018560070154866008015487600b015f9054906101000a900460ff16868054610750906126a7565b80601f016020809104026020016040519081016040528092919081815260200182805461077c906126a7565b80156107c75780601f1061079e576101008083540402835291602001916107c7565b820191905f5260205f20905b8154815290600101906020018083116107aa57829003601f168201915b505050505096508580546107da906126a7565b80601f0160208091040260200160405190810160405280929190818152602001828054610806906126a7565b80156108515780601f1061082857610100808354040283529160200191610851565b820191905f5260205f20905b81548152906001019060200180831161083457829003601f168201915b50505050509550848054610864906126a7565b80601f0160208091040260200160405190810160405280929190818152602001828054610890906126a7565b80156108db5780601f106108b2576101008083540402835291602001916108db565b820191905f5260205f20905b8154815290600101906020018083116108be57829003601f168201915b505050505094508380546108ee906126a7565b80601f016020809104026020016040519081016040528092919081815260200182805461091a906126a7565b80156109655780601f1061093c57610100808354040283529160200191610965565b820191905f5260205f20905b81548152906001019060200180831161094857829003601f168201915b505050505093509850985098509850985098509850985050919395975091939597565b5f82815260026020526040812060018101546001600160a01b03848116911614806109d457505f8481526004602090815260408083206001600160a01b038716845290915290205460ff165b9150505b92915050565b600681815481106109ed575f80fd5b5f91825260209091200154905081565b5f610a088133610fb6565b610a245760405162461bcd60e51b81526004016105ed906126df565b610a2e8383611b63565b505050565b600260015403610a855760405162461bcd60e51b815260206004820152601f60248201527f5265656e7472616e637947756172643a207265656e7472616e742063616c6c0060448201526064016105ed565b60026001555f610a958133610fb6565b610ab15760405162461bcd60e51b81526004016105ed906126df565b4780610af55760405162461bcd60e51b81526020600482015260136024820152724e6f206665657320746f20776974686472617760681b60448201526064016105ed565b6040515f90339083908381818185875af1925050503d805f8114610b34576040519150601f19603f3d011682016040523d82523d5f602084013e610b39565b606091505b5050905080610b7e5760405162461bcd60e51b815260206004820152601160248201527015da5d1a191c985dd85b0819985a5b1959607a1b60448201526064016105ed565b50506001805550565b5f67016345785d8a0000341015610be05760405162461bcd60e51b815260206004820152601d60248201527f496e73756666696369656e7420726567697374726174696f6e2066656500000060448201526064016105ed565b5f885111610c205760405162461bcd60e51b815260206004820152600d60248201526c13985b59481c995c5d5a5c9959609a1b60448201526064016105ed565b5f855111610c645760405162461bcd60e51b815260206004820152601160248201527012541194c810d251081c995c5d5a5c9959607a1b60448201526064016105ed565b5f338942600754604051602001610c7e9493929190612722565b60408051601f1981840301815291815281516020928301205f818152600290935291206009015490915015610cec5760405162461bcd60e51b81526020600482015260146024820152734d6f64656c20616c72656164792065786973747360601b60448201526064016105ed565b5f8181526002602081905260409091208281556001810180546001600160a01b03191633179055908101610d208b826127b0565b5060038101610d2f8a826127b0565b5060048101610d3e89826127b0565b5060058101610d4d88826127b0565b5060068101869055600781018590554260098201819055600a820155600b8101805460ff1916600117905583518490600c8301908190610d8d90826127b0565b506020828101518051610da69260018501920190611e1a565b5060408201518051610dc2916002840191602090910190611e1a565b506060820151600382015560808201516004820190610de190826127b0565b5060a08201518051610dfd916005840191602090910190611e1a565b5050335f908152600360209081526040822080546001818101835591845291832090910185905560068054918201815582527ff652222313e28459528d920b65115c16c04f3efc82aaedc97be59f3f377c0d3f0184905560078054925090610e6483612884565b9190505550610e738288611bca565b336001600160a01b0316827f8427526d1af6e8ecf8c4c28c33500da814119932c7d90613e0d4c4c142bf10ac8c8a604051610eaf92919061289c565b60405180910390a35098975050505050505050565b5f81815260026020526040902060018101546001600160a01b0316331480610f115750610f117f97667070c54ef182b0f5858b034beac1b6f3089aa2d3188bb1e8929f4fa9b92933610fb6565b610f4e5760405162461bcd60e51b815260206004820152600e60248201526d139bdd08185d5d1a1bdc9a5e995960921b60448201526064016105ed565b600b8101805460ff1916600117905560405182907f813d6799442eec6b0cb39b9b28654fe74ec2d0aa09bd745d6dbb54873ad7c39f905f90a25050565b6003602052815f5260405f208181548110610fa4575f80fd5b905f5260205f20015f91509150505481565b5f918252602082815260408084206001600160a01b0393909316845291905290205460ff1690565b5f82815260026020526040902060018101546001600160a01b031633146110175760405162461bcd60e51b81526004016105ed9061267e565b5f8381526004602090815260408083206001600160a01b0386168085529252808320805460ff1916905551909185917f93f50f299c97f9dbc6c8c8193bc0d1072f9ed27d38a021fc70fb48f6c86dcc619190a3505050565b5f82815260026020526040902060018101546001600160a01b031633146110a85760405162461bcd60e51b81526004016105ed9061267e565b5f8381526004602090815260408083206001600160a01b0386168085529252808320805460ff1916600117905551909185917f6f5b794a7ab7ff229b8295cd19ae4b5c92bce69238df1ad84eb47f9c9dcd4cd39190a3505050565b60606002600154036111575760405162461bcd60e51b815260206004820152601f60248201527f5265656e7472616e637947756172643a207265656e7472616e742063616c6c0060448201526064016105ed565b600260018190555f85815260209190915260409020600b81015460ff166111b35760405162461bcd60e51b815260206004820152601060248201526f4d6f64656c206e6f742061637469766560801b60448201526064016105ed565b80600701543410156111fe5760405162461bcd60e51b8152602060048201526014602482015273125b9cdd59999a58da595b9d081c185e5b595b9d60621b60448201526064016105ed565b6007810154156112775760018101546001600160a01b031633148061123b57505f85815260046020908152604080832033845290915290205460ff165b6112775760405162461bcd60e51b815260206004820152600d60248201526c2737903832b936b4b9b9b4b7b760991b60448201526064016105ed565b600881018054905f61128883612884565b90915550505f85815260056020526040812080543492906112aa9084906128c0565b9091555050341561134a5760018101546040515f916001600160a01b03169034908381818185875af1925050503d805f8114611301576040519150601f19603f3d011682016040523d82523d5f602084013e611306565b606091505b50509050806113485760405162461bcd60e51b815260206004820152600e60248201526d14185e5b595b9d0819985a5b195960921b60448201526064016105ed565b505b604051348152339086907f8cd033d366719c2e7cbb47ecbe15e3956fe6576f9b962e4ced3f9045f14951579060200160405180910390a361138c858585611cae565b6001805595945050505050565b5f6113a48133610fb6565b6113c05760405162461bcd60e51b81526004016105ed906126df565b60405162461bcd60e51b815260206004820152601d60248201527f526567697374726174696f6e2066656520697320696d6d757461626c6500000060448201526064016105ed565b5f6114138133610fb6565b61142f5760405162461bcd60e51b81526004016105ed906126df565b610a2e8383611db6565b5f83815260026020526040902060018101546001600160a01b031633146114725760405162461bcd60e51b81526004016105ed9061267e565b600b81015460ff166114b95760405162461bcd60e51b815260206004820152601060248201526f4d6f64656c206e6f742061637469766560801b60448201526064016105ed565b600481016114c784826127b0565b50600581016114d683826127b0565b5042600a8201556114e78483611bca565b837f45f4518d007cd7fa0ce7ed1494324d91c73ecfb93047fcca91c7534975534765848460405161151992919061289c565b60405180910390a250505050565b600260208190525f918252604090912080546001820154928201805491936001600160a01b03169291611559906126a7565b80601f0160208091040260200160405190810160405280929190818152602001828054611585906126a7565b80156115d05780601f106115a7576101008083540402835291602001916115d0565b820191905f5260205f20905b8154815290600101906020018083116115b357829003601f168201915b5050505050908060030180546115e5906126a7565b80601f0160208091040260200160405190810160405280929190818152602001828054611611906126a7565b801561165c5780601f106116335761010080835404028352916020019161165c565b820191905f5260205f20905b81548152906001019060200180831161163f57829003601f168201915b505050505090806004018054611671906126a7565b80601f016020809104026020016040519081016040528092919081815260200182805461169d906126a7565b80156116e85780601f106116bf576101008083540402835291602001916116e8565b820191905f5260205f20905b8154815290600101906020018083116116cb57829003601f168201915b5050505050908060050180546116fd906126a7565b80601f0160208091040260200160405190810160405280929190818152602001828054611729906126a7565b80156117745780601f1061174b57610100808354040283529160200191611774565b820191905f5260205f20905b81548152906001019060200180831161175757829003601f168201915b50505050509080600601549080600701549080600801549080600901549080600a01549080600b015f9054906101000a900460ff169080600c016040518060c00160405290815f820180546117c8906126a7565b80601f01602080910402602001604051908101604052809291908181526020018280546117f4906126a7565b801561183f5780601f106118165761010080835404028352916020019161183f565b820191905f5260205f20905b81548152906001019060200180831161182257829003601f168201915b5050505050815260200160018201805480602002602001604051908101604052809291908181526020015f905b82821015611914578382905f5260205f20018054611889906126a7565b80601f01602080910402602001604051908101604052809291908181526020018280546118b5906126a7565b80156119005780601f106118d757610100808354040283529160200191611900565b820191905f5260205f20905b8154815290600101906020018083116118e357829003601f168201915b50505050508152602001906001019061186c565b50505050815260200160028201805480602002602001604051908101604052809291908181526020015f905b828210156119e8578382905f5260205f2001805461195d906126a7565b80601f0160208091040260200160405190810160405280929190818152602001828054611989906126a7565b80156119d45780601f106119ab576101008083540402835291602001916119d4565b820191905f5260205f20905b8154815290600101906020018083116119b757829003601f168201915b505050505081526020019060010190611940565b50505050815260200160038201548152602001600482018054611a0a906126a7565b80601f0160208091040260200160405190810160405280929190818152602001828054611a36906126a7565b8015611a815780601f10611a5857610100808354040283529160200191611a81565b820191905f5260205f20905b815481529060010190602001808311611a6457829003601f168201915b5050505050815260200160058201805480602002602001604051908101604052809291908181526020015f905b82821015611b56578382905f5260205f20018054611acb906126a7565b80601f0160208091040260200160405190810160405280929190818152602001828054611af7906126a7565b8015611b425780601f10611b1957610100808354040283529160200191611b42565b820191905f5260205f20905b815481529060010190602001808311611b2557829003601f168201915b505050505081526020019060010190611aae565b505050508152505090508d565b611b6d8282610fb6565b611bc6575f828152602081815260408083206001600160a01b0385168085529252808320805460ff1916600117905551909184917f2ae6a113c0ed5b78a53413ffbb7679881f11145ccfba4fb92e863dfcd5a1d2f39190a35b5050565b5f6110006001600160a01b03168383604051602401611bea9291906128d3565b60408051601f198184030181529181526020820180516001600160e01b0316636d39dfcf60e11b17905251611c1f91906128f3565b5f604051808303815f865af19150503d805f8114611c58576040519150601f19603f3d011682016040523d82523d5f602084013e611c5d565b606091505b5050905080610a2e5760405162461bcd60e51b815260206004820152601e60248201527f507265636f6d70696c6520726567697374726174696f6e206661696c6564000060448201526064016105ed565b60605f806110006001600160a01b0316868686604051602401611cd39392919061290e565b60408051601f198184030181529181526020820180516001600160e01b0316630e7ceccb60e41b17905251611d0891906128f3565b5f604051808303815f865af19150503d805f8114611d41576040519150601f19603f3d011682016040523d82523d5f602084013e611d46565b606091505b509150915081611d985760405162461bcd60e51b815260206004820152601a60248201527f496e666572656e636520657865637574696f6e206661696c656400000000000060448201526064016105ed565b80806020019051810190611dac9190612943565b9695505050505050565b611dc08282610fb6565b15611bc6575f828152602081815260408083206001600160a01b0385168085529252808320805460ff1916905551909184917f155aaafb6329a2098580462df33ec4b7441b19729b9601c5fc17ae1cf99a8a529190a35050565b828054828255905f5260205f20908101928215611e5e579160200282015b82811115611e5e5782518290611e4e90826127b0565b5091602001919060010190611e38565b50611e6a929150611e6e565b5090565b80821115611e6a575f611e818282611e8a565b50600101611e6e565b508054611e96906126a7565b5f825580601f10611ea5575050565b601f0160209004905f5260205f2090810190611ec19190611ec4565b50565b5b80821115611e6a575f8155600101611ec5565b5f60208284031215611ee8575f80fd5b5035919050565b5f8060408385031215611f00575f80fd5b50508035926020909101359150565b80356001600160a01b0381168114611f25575f80fd5b919050565b5f60208284031215611f3a575f80fd5b611f4382611f0f565b9392505050565b602080825282518282018190525f9190848201906040850190845b81811015611f8157835183529284019291840191600101611f65565b50909695505050505050565b5f5b83811015611fa7578181015183820152602001611f8f565b50505f910152565b5f8151808452611fc6816020860160208601611f8d565b601f01601f19169290920160200192915050565b6001600160a01b0389168152610100602082018190525f90611ffe8382018b611faf565b90508281036040840152612012818a611faf565b905082810360608401526120268189611faf565b9050828103608084015261203a8188611faf565b60a0840196909652505060c0810192909252151560e09091015295945050505050565b5f806040838503121561206e575f80fd5b8235915061207e60208401611f0f565b90509250929050565b634e487b7160e01b5f52604160045260245ffd5b60405160c0810167ffffffffffffffff811182821017156120be576120be612087565b60405290565b604051601f8201601f1916810167ffffffffffffffff811182821017156120ed576120ed612087565b604052919050565b5f67ffffffffffffffff82111561210e5761210e612087565b50601f01601f191660200190565b5f82601f83011261212b575f80fd5b813561213e612139826120f5565b6120c4565b818152846020838601011115612152575f80fd5b816020850160208301375f918101602001919091529392505050565b5f82601f83011261217d575f80fd5b8135602067ffffffffffffffff8083111561219a5761219a612087565b8260051b6121a98382016120c4565b93845285810183019383810190888611156121c2575f80fd5b84880192505b858310156121fc578235848111156121de575f80fd5b6121ec8a87838c010161211c565b83525091840191908401906121c8565b98975050505050505050565b5f60c08284031215612218575f80fd5b61222061209b565b9050813567ffffffffffffffff80821115612239575f80fd5b6122458583860161211c565b8352602084013591508082111561225a575f80fd5b6122668583860161216e565b6020840152604084013591508082111561227e575f80fd5b61228a8583860161216e565b60408401526060840135606084015260808401359150808211156122ac575f80fd5b6122b88583860161211c565b608084015260a08401359150808211156122d0575f80fd5b506122dd8482850161216e565b60a08301525092915050565b5f805f805f805f60e0888a0312156122ff575f80fd5b873567ffffffffffffffff80821115612316575f80fd5b6123228b838c0161211c565b985060208a0135915080821115612337575f80fd5b6123438b838c0161211c565b975060408a0135915080821115612358575f80fd5b6123648b838c0161211c565b965060608a0135915080821115612379575f80fd5b6123858b838c0161211c565b955060808a0135945060a08a0135935060c08a01359150808211156123a8575f80fd5b506123b58a828b01612208565b91505092959891949750929550565b5f80604083850312156123d5575f80fd5b6123de83611f0f565b946020939093013593505050565b5f805f604084860312156123fe575f80fd5b83359250602084013567ffffffffffffffff8082111561241c575f80fd5b818601915086601f83011261242f575f80fd5b81358181111561243d575f80fd5b87602082850101111561244e575f80fd5b6020830194508093505050509250925092565b602081525f611f436020830184611faf565b5f805f60608486031215612485575f80fd5b83359250602084013567ffffffffffffffff808211156124a3575f80fd5b6124af8783880161211c565b935060408601359150808211156124c4575f80fd5b506124d18682870161211c565b9150509250925092565b5f8282518085526020808601955060208260051b840101602086015f5b8481101561252657601f19868403018952612514838351611faf565b988401989250908301906001016124f8565b5090979650505050505050565b5f815160c0845261254760c0850182611faf565b90506020830151848203602086015261256082826124db565b9150506040830151848203604086015261257a82826124db565b915050606083015160608501526080830151848203608086015261259e8282611faf565b91505060a083015184820360a08601526125b882826124db565b95945050505050565b8d81526001600160a01b038d1660208201526101a060408201525f6125ea6101a083018e611faf565b82810360608401526125fc818e611faf565b90508281036080840152612610818d611faf565b905082810360a0840152612624818c611faf565b90508960c08401528860e084015287610100840152866101208401528561014084015261265661016084018615159052565b8281036101808401526126698185612533565b9150509e9d5050505050505050505050505050565b6020808252600f908201526e2737ba1036b7b232b61037bbb732b960891b604082015260600190565b600181811c908216806126bb57607f821691505b6020821081036126d957634e487b7160e01b5f52602260045260245ffd5b50919050565b60208082526023908201527f416363657373436f6e74726f6c3a206163636f756e74206d697373696e6720726040820152626f6c6560e81b606082015260800190565b6bffffffffffffffffffffffff198560601b1681525f845161274b816014850160208901611f8d565b909101601481019390935250603482015260540192915050565b601f821115610a2e57805f5260205f20601f840160051c8101602085101561278a5750805b601f840160051c820191505b818110156127a9575f8155600101612796565b5050505050565b815167ffffffffffffffff8111156127ca576127ca612087565b6127de816127d884546126a7565b84612765565b602080601f831160018114612811575f84156127fa5750858301515b5f19600386901b1c1916600185901b178555612868565b5f85815260208120601f198616915b8281101561283f57888601518255948401946001909101908401612820565b508582101561285c57878501515f19600388901b60f8161c191681555b505060018460011b0185555b505050505050565b634e487b7160e01b5f52601160045260245ffd5b5f6001820161289557612895612870565b5060010190565b604081525f6128ae6040830185611faf565b82810360208401526125b88185611faf565b808201808211156109d8576109d8612870565b828152604060208201525f6128eb6040830184611faf565b949350505050565b5f8251612904818460208701611f8d565b9190910192915050565b83815260406020820152816040820152818360608301375f818301606090810191909152601f909201601f1916010192915050565b5f60208284031215612953575f80fd5b815167ffffffffffffffff811115612969575f80fd5b8201601f81018413612979575f80fd5b8051612987612139826120f5565b81815285602083850101111561299b575f80fd5b6125b8826020830160208601611f8d56fea2646970667358221220020ff5f46e87dfd817deadf1e81e84ebdcf6661d19afe7bf8a5220dc6335061b64736f6c63430008180033","linkReferences":{}},"methodIdentifiers":{"DEFAULT_ADMIN_ROLE()":"a217fddf","OPERATOR_ROLE()":"f5b541a6","REGISTRATION_FEE()":"64b4f751","VALIDATOR_ROLE()":"c49baebe","activateModel(bytes32)":"5f6e691e","allModelHashes(uint256)":"2a0dd0d4","deactivateModel(bytes32)":"047af67f","getModel(bytes32)":"21e7c498","getModelRevenue(bytes32)":"b076ec45","getModelsByOwner(address)":"2123c159","grantPermission(bytes32,address)":"bc586456","grantRole(bytes32,address)":"2f2ff15d","hasPermission(bytes32,address)":"28545c0d","hasRole(bytes32,address)":"91d14854","modelPermissions(bytes32,address)":"d6d9fee2","modelRevenue(bytes32)":"af9c91b2","models(bytes32)":"e236f46b","ownerModels(address,uint256)":"7ed2870b","registerModel(string,string,string,string,uint256,uint256,(string,string[],string[],uint256,string,string[]))":"49dc4e2f","requestInference(bytes32,bytes)":"bfaa9843","revokePermission(bytes32,address)":"a6a8f17b","revokeRole(bytes32,address)":"d547741f","setInferencePrice(bytes32,uint256)":"182c3e14","setRegistrationFee(uint256)":"c320c727","totalModels()":"017d7196","updateModel(bytes32,string,string)":"d7c7e948","withdrawFees()":"476343ee"},"id":19}