{"abi":[{"type":"constructor","inputs":[{"name":"_modelRegistry","type":"address","internalType":"address"}],"stateMutability":"nonpayable"},{"type":"function","name":"DEFAULT_ADMIN_ROLE","inputs":[],"outputs":[{"name":"","type":"bytes32","internalType":"bytes32"}],"stateMutability":"view"},{"type":"function","name":"OPERATOR_ROLE","inputs":[],"outputs":[{"name":"","type":"bytes32","internalType":"bytes32"}],"stateMutability":"view"},{"type":"function","name":"VALIDATOR_ROLE","inputs":[],"outputs":[{"name":"","type":"bytes32","internalType":"bytes32"}],"stateMutability":"view"},{"type":"function","name":"addStake","inputs":[],"outputs":[],"stateMutability":"payable"},{"type":"function","name":"allProviders","inputs":[{"name":"","type":"uint256","internalType":"uint256"}],"outputs":[{"name":"","type":"address","internalType":"address"}],"stateMutability":"view"},{"type":"function","name":"cacheReward","inputs":[],"outputs":[{"name":"","type":"uint256","internalType":"uint256"}],"stateMutability":"view"},{"type":"function","name":"cancelRequest","inputs":[{"name":"requestId","type":"uint256","internalType":"uint256"}],"outputs":[],"stateMutability":"nonpayable"},{"type":"function","name":"completeInference","inputs":[{"name":"requestId","type":"uint256","internalType":"uint256"},{"name":"outputData","type":"bytes","internalType":"bytes"}],"outputs":[],"stateMutability":"nonpayable"},{"type":"function","name":"getProviderInfo","inputs":[{"name":"provider","type":"address","internalType":"address"}],"outputs":[{"name":"endpoint","type":"string","internalType":"string"},{"name":"stake","type":"uint256","internalType":"uint256"},{"name":"currentLoad","type":"uint256","internalType":"uint256"},{"name":"totalInferences","type":"uint256","internalType":"uint256"},{"name":"isActive","type":"bool","internalType":"bool"}],"stateMutability":"view"},{"type":"function","name":"getProviders","inputs":[{"name":"modelHash","type":"bytes32","internalType":"bytes32"}],"outputs":[{"name":"","type":"address[]","internalType":"address[]"}],"stateMutability":"view"},{"type":"function","name":"getRequest","inputs":[{"name":"requestId","type":"uint256","internalType":"uint256"}],"outputs":[{"name":"requester","type":"address","internalType":"address"},{"name":"modelHash","type":"bytes32","internalType":"bytes32"},{"name":"status","type":"uint8","internalType":"enum InferenceRouter.RequestStatus"},{"name":"outputData","type":"bytes","internalType":"bytes"},{"name":"pricePaid","type":"uint256","internalType":"uint256"}],"stateMutability":"view"},{"type":"function","name":"getUserRequests","inputs":[{"name":"user","type":"address","internalType":"address"}],"outputs":[{"name":"","type":"uint256[]","internalType":"uint256[]"}],"stateMutability":"view"},{"type":"function","name":"grantRole","inputs":[{"name":"role","type":"bytes32","internalType":"bytes32"},{"name":"account","type":"address","internalType":"address"}],"outputs":[],"stateMutability":"nonpayable"},{"type":"function","name":"hasRole","inputs":[{"name":"role","type":"bytes32","internalType":"bytes32"},{"name":"account","type":"address","internalType":"address"}],"outputs":[{"name":"","type":"bool","internalType":"bool"}],"stateMutability":"view"},{"type":"function","name":"minProviderStake","inputs":[],"outputs":[{"name":"","type":"uint256","internalType":"uint256"}],"stateMutability":"view"},{"type":"function","name":"modelRegistry","inputs":[],"outputs":[{"name":"","type":"address","internalType":"contract IModelRegistry"}],"stateMutability":"view"},{"type":"function","name":"nextRequestId","inputs":[],"outputs":[{"name":"","type":"uint256","internalType":"uint256"}],"stateMutability":"view"},{"type":"function","name":"platformFee","inputs":[],"outputs":[{"name":"","type":"uint256","internalType":"uint256"}],"stateMutability":"view"},{"type":"function","name":"providerBalances","inputs":[{"name":"","type":"address","internalType":"address"}],"outputs":[{"name":"","type":"uint256","internalType":"uint256"}],"stateMutability":"view"},{"type":"function","name":"providers","inputs":[{"name":"","type":"address","internalType":"address"}],"outputs":[{"name":"provider","type":"address","internalType":"address"},{"name":"endpoint","type":"string","internalType":"string"},{"name":"stake","type":"uint256","internalType":"uint256"},{"name":"minPrice","type":"uint256","internalType":"uint256"},{"name":"maxConcurrent","type":"uint256","internalType":"uint256"},{"name":"currentLoad","type":"uint256","internalType":"uint256"},{"name":"totalInferences","type":"uint256","internalType":"uint256"},{"name":"successRate","type":"uint256","internalType":"uint256"},{"name":"isActive","type":"bool","internalType":"bool"}],"stateMutability":"view"},{"type":"function","name":"registerProvider","inputs":[{"name":"endpoint","type":"string","internalType":"string"},{"name":"minPrice","type":"uint256","internalType":"uint256"},{"name":"supportedModels","type":"bytes32[]","internalType":"bytes32[]"}],"outputs":[],"stateMutability":"payable"},{"type":"function","name":"requestInference","inputs":[{"name":"modelHash","type":"bytes32","internalType":"bytes32"},{"name":"inputData","type":"bytes","internalType":"bytes"},{"name":"maxPrice","type":"uint256","internalType":"uint256"}],"outputs":[{"name":"","type":"uint256","internalType":"uint256"}],"stateMutability":"payable"},{"type":"function","name":"requests","inputs":[{"name":"","type":"uint256","internalType":"uint256"}],"outputs":[{"name":"requestId","type":"uint256","internalType":"uint256"},{"name":"requester","type":"address","internalType":"address"},{"name":"modelHash","type":"bytes32","internalType":"bytes32"},{"name":"inputData","type":"bytes","internalType":"bytes"},{"name":"maxPrice","type":"uint256","internalType":"uint256"},{"name":"timestamp","type":"uint256","internalType":"uint256"},{"name":"status","type":"uint8","internalType":"enum InferenceRouter.RequestStatus"},{"name":"outputData","type":"bytes","internalType":"bytes"},{"name":"computeProvider","type":"address","internalType":"address"},{"name":"pricePaid","type":"uint256","internalType":"uint256"}],"stateMutability":"view"},{"type":"function","name":"responseCache","inputs":[{"name":"","type":"bytes32","internalType":"bytes32"},{"name":"","type":"bytes32","internalType":"bytes32"}],"outputs":[{"name":"","type":"bytes","internalType":"bytes"}],"stateMutability":"view"},{"type":"function","name":"revokeRole","inputs":[{"name":"role","type":"bytes32","internalType":"bytes32"},{"name":"account","type":"address","internalType":"address"}],"outputs":[],"stateMutability":"nonpayable"},{"type":"function","name":"routes","inputs":[{"name":"","type":"bytes32","internalType":"bytes32"}],"outputs":[{"name":"modelHash","type":"bytes32","internalType":"bytes32"},{"name":"avgResponseTime","type":"uint256","internalType":"uint256"},{"name":"totalRequests","type":"uint256","internalType":"uint256"},{"name":"cachingEnabled","type":"bool","internalType":"bool"}],"stateMutability":"view"},{"type":"function","name":"setCaching","inputs":[{"name":"modelHash","type":"bytes32","internalType":"bytes32"},{"name":"enabled","type":"bool","internalType":"bool"}],"outputs":[],"stateMutability":"nonpayable"},{"type":"function","name":"setMinProviderStake","inputs":[{"name":"newStake","type":"uint256","internalType":"uint256"}],"outputs":[],"stateMutability":"nonpayable"},{"type":"function","name":"setPlatformFee","inputs":[{"name":"newFee","type":"uint256","internalType":"uint256"}],"outputs":[],"stateMutability":"nonpayable"},{"type":"function","name":"updateProviderStatus","inputs":[{"name":"isActive","type":"bool","internalType":"bool"}],"outputs":[],"stateMutability":"nonpayable"},{"type":"function","name":"userRequests","inputs":[{"name":"","type":"address","internalType":"address"},{"name":"","type":"uint256","internalType":"uint256"}],"outputs":[{"name":"","type":"uint256","internalType":"uint256"}],"stateMutability":"view"},{"type":"function","name":"withdrawEarnings","inputs":[],"outputs":[],"stateMutability":"nonpayable"},{"type":"function","name":"withdrawPlatformFees","inputs":[],"outputs":[],"stateMutability":"nonpayable"},{"type":"function","name":"withdrawStake","inputs":[{"name":"amount","type":"uint256","internalType":"uint256"}],"outputs":[],"stateMutability":"nonpayable"},{"type":"event","name":"CacheHit","inputs":[{"name":"modelHash","type":"bytes32","indexed":true,"internalType":"bytes32"},{"name":"inputHash","type":"bytes32","indexed":false,"internalType":"bytes32"}],"anonymous":false},{"type":"event","name":"InferenceCompleted","inputs":[{"name":"requestId","type":"uint256","indexed":true,"internalType":"uint256"},{"name":"provider","type":"address","indexed":true,"internalType":"address"},{"name":"price","type":"uint256","indexed":false,"internalType":"uint256"}],"anonymous":false},{"type":"event","name":"InferenceRequested","inputs":[{"name":"requestId","type":"uint256","indexed":true,"internalType":"uint256"},{"name":"requester","type":"address","indexed":true,"internalType":"address"},{"name":"modelHash","type":"bytes32","indexed":true,"internalType":"bytes32"}],"anonymous":false},{"type":"event","name":"ProviderRegistered","inputs":[{"name":"provider","type":"address","indexed":true,"internalType":"address"},{"name":"stake","type":"uint256","indexed":false,"internalType":"uint256"}],"anonymous":false},{"type":"event","name":"ProviderUpdated","inputs":[{"name":"provider","type":"address","indexed":true,"internalType":"address"},{"name":"isActive","type":"bool","indexed":false,"internalType":"bool"}],"anonymous":false},{"type":"event","name":"RoleGranted","inputs":[{"name":"role","type":"bytes32","indexed":true,"internalType":"bytes32"},{"name":"account","type":"address","indexed":true,"internalType":"address"}],"anonymous":false},{"type":"event","name":"RoleRevoked","inputs":[{"name":"role","type":"bytes32","indexed":true,"internalType":"bytes32"},{"name":"account","type":"address","indexed":true,"internalType":"address"}],"anonymous":false},{"type":"event","name":"RouteUpdated","inputs":[{"name":"modelHash","type":"bytes32","indexed":true,"internalType":"bytes32"},{"name":"providers","type":"address[]","indexed":false,"internalType":"address[]"}],"anonymous":false}],"bytecode":{"object":"0x608060405268056bc75e2d63100000600a5560fa600b556064600c5534801562000027575f80fd5b5060405162002b3438038062002b348339810160408190526200004a9162000125565b600180546001600160a01b0319166001600160a01b038316179055620000715f33620000a4565b6200009d7f97667070c54ef182b0f5858b034beac1b6f3089aa2d3188bb1e8929f4fa9b92933620000a4565b5062000154565b5f828152602081815260408083206001600160a01b038516845290915290205460ff1662000121575f828152602081815260408083206001600160a01b0385168085529252808320805460ff1916600117905551909184917f2ae6a113c0ed5b78a53413ffbb7679881f11145ccfba4fb92e863dfcd5a1d2f39190a35b5050565b5f6020828403121562000136575f80fd5b81516001600160a01b03811681146200014d575f80fd5b9392505050565b6129d280620001625f395ff3fe6080604052600436106101f1575f3560e01c8063746f6d5311610108578063b337cf741161009d578063c58343ef1161006d578063c58343ef14610612578063d022141414610642578063d0b7830b14610661578063d547741f14610675578063f5b541a614610694575f80fd5b8063b337cf741461058a578063b35c6664146105b6578063b73c6ce9146105cb578063c49baebe146105df575f80fd5b80638f75e6f1116100d85780638f75e6f11461050a5780638fac09051461052957806391d1485414610548578063a217fddf14610577575f80fd5b8063746f6d531461045a5780637583902f1461048657806381d12c58146104b65780638f0e480e146104eb575f80fd5b80632ba36f7811610189578063409af24811610159578063409af248146103f65780635a627dbc1461040b5780635ce13120146104135780636a84a9851461043257806372ae2f2814610447575f80fd5b80632ba36f78146103555780632f2ff15d1461038c5780633015394c146103ab578063331795aa146103ca575f80fd5b806325d5971f116101c457806325d5971f146102c957806326232a2e146102e8578063263cb6b61461030b57806328ac7f2c1461032a575f80fd5b80630226ed97146101f5578063066e94811461020a5780630787bc271461027657806312e8e2c3146102aa575b5f80fd5b6102086102033660046120fd565b6106c7565b005b348015610215575f80fd5b5061024f6102243660046121b6565b600460208190525f918252604090912080546002820154600383015492909301549092919060ff1684565b60408051948552602085019390935291830152151560608201526080015b60405180910390f35b348015610281575f80fd5b506102956102903660046121e8565b61094d565b60405161026d9998979695949392919061224b565b3480156102b5575f80fd5b506102086102c43660046121b6565b610a28565b3480156102d4575f80fd5b506102086102e33660046121b6565b610a96565b3480156102f3575f80fd5b506102fd600b5481565b60405190815260200161026d565b348015610316575f80fd5b506102fd6103253660046122aa565b610c2d565b348015610335575f80fd5b506102fd6103443660046121e8565b60076020525f908152604090205481565b348015610360575f80fd5b50600154610374906001600160a01b031681565b6040516001600160a01b03909116815260200161026d565b348015610397575f80fd5b506102086103a63660046122d2565b610c58565b3480156103b6575f80fd5b506102086103c53660046121b6565b610c89565b3480156103d5575f80fd5b506103e96103e43660046121b6565b610db5565b60405161026d91906122fc565b348015610401575f80fd5b506102fd600a5481565b610208610e21565b34801561041e575f80fd5b5061037461042d3660046121b6565b610e8c565b34801561043d575f80fd5b506102fd60095481565b6102fd61045536600461238d565b610eb4565b348015610465575f80fd5b506104796104743660046123dc565b6112d7565b60405161026d91906123fc565b348015610491575f80fd5b506104a56104a03660046121e8565b611379565b60405161026d95949392919061240e565b3480156104c1575f80fd5b506104d56104d03660046121b6565b61145c565b60405161026d9a9998979695949392919061247a565b3480156104f6575f80fd5b506102086105053660046121b6565b6115d2565b348015610515575f80fd5b50610208610524366004612503565b6115ff565b348015610534575f80fd5b5061020861054336600461251c565b61169b565b348015610553575f80fd5b506105676105623660046122d2565b61197e565b604051901515815260200161026d565b348015610582575f80fd5b506102fd5f81565b348015610595575f80fd5b506105a96105a43660046121e8565b6119a8565b60405161026d9190612564565b3480156105c1575f80fd5b506102fd600c5481565b3480156105d6575f80fd5b50610208611a10565b3480156105ea575f80fd5b506102fd7f21702c8af46127c7fa207f89d0b0a8441bb32959a0ac7df790e9ab1a25c9892681565b34801561061d575f80fd5b5061063161062c3660046121b6565b611af6565b60405161026d95949392919061259b565b34801561064d575f80fd5b5061020861065c3660046125e2565b611bdc565b34801561066c575f80fd5b50610208611c48565b348015610680575f80fd5b5061020861068f3660046122d2565b611d24565b34801561069f575f80fd5b506102fd7f97667070c54ef182b0f5858b034beac1b6f3089aa2d3188bb1e8929f4fa9b92981565b600a543410156107135760405162461bcd60e51b8152602060048201526012602482015271496e73756666696369656e74207374616b6560701b60448201526064015b60405180910390fd5b5f8351116107575760405162461bcd60e51b8152602060048201526011602482015270115b991c1bda5b9d081c995c5d5a5c9959607a1b604482015260640161070a565b5f8151116107a75760405162461bcd60e51b815260206004820152601f60248201527f4d75737420737570706f7274206174206c65617374206f6e65206d6f64656c00604482015260640161070a565b335f908152600360205260409020600881015460ff161561080a5760405162461bcd60e51b815260206004820152601b60248201527f50726f766964657220616c726561647920726567697374657265640000000000604482015260640161070a565b80546001600160a01b03191633178155600181016108288582612686565b5034600282015560038101839055600a6004820155612710600782015560088101805460ff1916600117905581516108699060098301906020850190611fde565b50600880546001810182555f9182527ff3f7a9fe364faab93b216da50a3214154f22a0a2b415b23a84c8169e8b636ee30180546001600160a01b031916331790555b82518110156109115760045f8483815181106108c9576108c9612746565b6020908102919091018101518252818101929092526040015f9081206001908101805480830182559083529290912090910180546001600160a01b03191633179055016108ab565b5060405134815233907f90c9734131c1e4fb36cde2d71e6feb93fb258f71be8a85411c173d25e1516e809060200160405180910390a250505050565b60036020525f9081526040902080546001820180546001600160a01b03909216929161097890612603565b80601f01602080910402602001604051908101604052809291908181526020018280546109a490612603565b80156109ef5780601f106109c6576101008083540402835291602001916109ef565b820191905f5260205f20905b8154815290600101906020018083116109d257829003601f168201915b50505050600283015460038401546004850154600586015460068701546007880154600890980154969794969395509193909260ff1689565b5f610a33813361197e565b610a4f5760405162461bcd60e51b815260040161070a9061275a565b6103e8821115610a905760405162461bcd60e51b815260206004820152600c60248201526b08ccaca40e8dede40d0d2ced60a31b604482015260640161070a565b50600b55565b335f908152600360205260409020600881015460ff1615610af15760405162461bcd60e51b8152602060048201526015602482015274135d5cdd0819195858dd1a5d985d1948199a5c9cdd605a1b604482015260640161070a565b600581015415610b395760405162461bcd60e51b81526020600482015260136024820152724861732061637469766520726571756573747360681b604482015260640161070a565b8181600201541015610b825760405162461bcd60e51b8152602060048201526012602482015271496e73756666696369656e74207374616b6560701b604482015260640161070a565b81816002015f828254610b9591906127b1565b90915550506040515f90339084905b5f6040518083038185875af1925050503d805f8114610bde576040519150601f19603f3d011682016040523d82523d5f602084013e610be3565b606091505b5050905080610c285760405162461bcd60e51b815260206004820152601160248201527015da5d1a191c985dd85b0819985a5b1959607a1b604482015260640161070a565b505050565b6006602052815f5260405f208181548110610c46575f80fd5b905f5260205f20015f91509150505481565b5f610c63813361197e565b610c7f5760405162461bcd60e51b815260040161070a9061275a565b610c288383611d55565b5f81815260026020526040902060018101546001600160a01b03163314610ce65760405162461bcd60e51b81526020600482015260116024820152702737ba103932b8bab2b9ba1037bbb732b960791b604482015260640161070a565b5f600682015460ff166004811115610d0057610d00612446565b14610d3d5760405162461bcd60e51b815260206004820152600d60248201526c10d85b9b9bdd0818d85b98d95b609a1b604482015260640161070a565b60068101805460ff191660049081179091558101546040515f9133918381818185875af1925050503d805f8114610d8f576040519150601f19603f3d011682016040523d82523d5f602084013e610d94565b606091505b5050905080610c285760405162461bcd60e51b815260040161070a906127c4565b5f81815260046020908152604091829020600101805483518184028101840190945280845260609392830182828015610e1557602002820191905f5260205f20905b81546001600160a01b03168152600190910190602001808311610df7575b50505050509050919050565b335f9081526003602052604090206002810154610e715760405162461bcd60e51b815260206004820152600e60248201526d139bdd081c9959da5cdd195c995960921b604482015260640161070a565b34816002015f828254610e8491906127eb565b909155505050565b60088181548110610e9b575f80fd5b5f918252602090912001546001600160a01b0316905081565b5f81341015610efc5760405162461bcd60e51b8152602060048201526014602482015273125b9cdd59999a58da595b9d081c185e5b595b9d60621b604482015260640161070a565b5f8484604051610f0d9291906127fe565b60408051918290039091205f888152600560209081528382208383529052918220805491935090610f3d90612603565b80601f0160208091040260200160405190810160405280929190818152602001828054610f6990612603565b8015610fb45780601f10610f8b57610100808354040283529160200191610fb4565b820191905f5260205f20905b815481529060010190602001808311610f9757829003601f168201915b505050505090505f8151118015610fdc57505f878152600460208190526040909120015460ff165b1561115f57867fe832775cd468d588ce80e0127ef0461115d7aa0c74845308e7581e8f03fee2a98360405161101391815260200190565b60405180910390a25f612710600c548661102d919061280d565b6110379190612824565b9050803411156110ae575f3361104d83346127b1565b6040515f81818185875af1925050503d805f8114611086576040519150601f19603f3d011682016040523d82523d5f602084013e61108b565b606091505b50509050806110ac5760405162461bcd60e51b815260040161070a906127c4565b505b600980545f91826110be83612843565b909155505f8181526002602081905260409091208281556001810180546001600160a01b031916331790559081018b905590915060038101611101898b8361285b565b506004810187905542600582015560068101805460ff191660021790556007810161112c8582612686565b5060090191909155335f9081526006602090815260408220805460018101825590835291200181905592506112cf915050565b600980545f918261116f83612843565b909155505f8181526002602081905260409091208281556001810180546001600160a01b031916331790559081018a9055909150600381016111b2888a8361285b565b50600481018690554260058201556006808201805460ff19169055335f90815260209182526040812080546001810182559082529181209091018390556111f98a88611dbb565b90506001600160a01b0381166112495760405162461bcd60e51b815260206004820152601560248201527427379030bb30b4b630b1363290383937bb34b232b960591b604482015260640161070a565b6008820180546001600160a01b0319166001600160a01b03831690811790915560068301805460ff191660011790555f90815260036020526040812060050180549161129483612843565b90915550506040518a90339085907fe54e2489143ae39428ac2a0c18dd3c736f8f64abcfb95988a57e56b51716c522905f90a4509093505050505b949350505050565b600560209081525f9283526040808420909152908252902080546112fa90612603565b80601f016020809104026020016040519081016040528092919081815260200182805461132690612603565b80156113715780601f1061134857610100808354040283529160200191611371565b820191905f5260205f20905b81548152906001019060200180831161135457829003601f168201915b505050505081565b6001600160a01b0381165f9081526003602052604081206002810154600582015460068301546008840154600185018054606097968796879687969295919390929160ff169085906113ca90612603565b80601f01602080910402602001604051908101604052809291908181526020018280546113f690612603565b80156114415780601f1061141857610100808354040283529160200191611441565b820191905f5260205f20905b81548152906001019060200180831161142457829003601f168201915b50505050509450955095509550955095505091939590929450565b600260208190525f9182526040909120805460018201549282015460038301805492946001600160a01b031693919261149490612603565b80601f01602080910402602001604051908101604052809291908181526020018280546114c090612603565b801561150b5780601f106114e25761010080835404028352916020019161150b565b820191905f5260205f20905b8154815290600101906020018083116114ee57829003601f168201915b5050506004840154600585015460068601546007870180549697939692955060ff90911693509061153b90612603565b80601f016020809104026020016040519081016040528092919081815260200182805461156790612603565b80156115b25780601f10611589576101008083540402835291602001916115b2565b820191905f5260205f20905b81548152906001019060200180831161159557829003601f168201915b50505050600883015460099093015491926001600160a01b03169190508a565b5f6115dd813361197e565b6115f95760405162461bcd60e51b815260040161070a9061275a565b50600a55565b335f908152600360205260409020600281015461164f5760405162461bcd60e51b815260206004820152600e60248201526d139bdd081c9959da5cdd195c995960921b604482015260640161070a565b60088101805460ff191683151590811790915560405190815233907f8554dec1c8480fcfca0e11f508f0405183714c03291f4311428e2482c5f986c99060200160405180910390a25050565b5f83815260026020526040902060088101546001600160a01b031633146116fc5760405162461bcd60e51b81526020600482015260156024820152742737ba1030b9b9b4b3b732b210383937bb34b232b960591b604482015260640161070a565b6001600682015460ff16600481111561171757611717612446565b146117555760405162461bcd60e51b815260206004820152600e60248201526d496e76616c69642073746174757360901b604482015260640161070a565b6007810161176483858361285b565b5060068101805460ff19166002179055335f90815260036020819052604090912090810154600483015481111561179c575060048201545b5f612710600b54836117ae919061280d565b6117b89190612824565b90505f6117c582846127b1565b60098601849055335f908152600760205260408120805492935083929091906117ef9084906127eb565b9091555050600584018054905f61180583612915565b9091555050600684018054905f61181b83612843565b909155505060028501545f90815260046020526040812060030180549161184183612843565b909155505060028501545f908152600460208190526040909120015460ff16156118af575f85600301604051611877919061292a565b604080519182900390912060028801545f908152600560209081528382208383529052919091209091506118ac888a8361285b565b50505b828560040154111561193d57600185015460048601545f916001600160a01b0316906118dc9086906127b1565b6040515f81818185875af1925050503d805f8114611915576040519150601f19603f3d011682016040523d82523d5f602084013e61191a565b606091505b505090508061193b5760405162461bcd60e51b815260040161070a906127c4565b505b604051838152339089907fc810a20dc6d645b09af21ec1b201826932b558c12bf3c6f55f4f21766bf28f2e9060200160405180910390a35050505050505050565b5f828152602081815260408083206001600160a01b038516845290915290205460ff165b92915050565b6001600160a01b0381165f90815260066020908152604091829020805483518184028101840190945280845260609392830182828015610e1557602002820191905f5260205f20905b8154815260200190600101908083116119f15750505050509050919050565b335f9081526007602052604090205480611a5a5760405162461bcd60e51b815260206004820152600b60248201526a4e6f206561726e696e677360a81b604482015260640161070a565b335f818152600760205260408082208290555190919083908381818185875af1925050503d805f8114611aa8576040519150601f19603f3d011682016040523d82523d5f602084013e611aad565b606091505b5050905080611af25760405162461bcd60e51b815260206004820152601160248201527015da5d1a191c985dd85b0819985a5b1959607a1b604482015260640161070a565b5050565b5f81815260026020819052604082206001810154918101546006820154600983015460078401805487968796606096889691956001600160a01b0390931694909360ff9092169290918290611b4a90612603565b80601f0160208091040260200160405190810160405280929190818152602001828054611b7690612603565b8015611bc15780601f10611b9857610100808354040283529160200191611bc1565b820191905f5260205f20905b815481529060010190602001808311611ba457829003601f168201915b50505050509150955095509550955095505091939590929450565b7f97667070c54ef182b0f5858b034beac1b6f3089aa2d3188bb1e8929f4fa9b929611c07813361197e565b611c235760405162461bcd60e51b815260040161070a9061275a565b505f918252600460208190526040909220909101805460ff1916911515919091179055565b5f611c53813361197e565b611c6f5760405162461bcd60e51b815260040161070a9061275a565b475f5b600854811015611cca5760075f60088381548110611c9257611c92612746565b5f9182526020808320909101546001600160a01b03168352820192909252604001902054611cc090836127b1565b9150600101611c72565b505f8111611d105760405162461bcd60e51b81526020600482015260136024820152724e6f206665657320746f20776974686472617760681b604482015260640161070a565b5f336001600160a01b031682604051610ba4565b5f611d2f813361197e565b611d4b5760405162461bcd60e51b815260040161070a9061275a565b610c288383611f7a565b611d5f828261197e565b611af2575f828152602081815260408083206001600160a01b0385168085529252808320805460ff1916600117905551909184917f2ae6a113c0ed5b78a53413ffbb7679881f11145ccfba4fb92e863dfcd5a1d2f39190a35050565b5f82815260046020908152604080832060010180548251818502810185019093528083528493830182828015611e1857602002820191905f5260205f20905b81546001600160a01b03168152600190910190602001808311611dfa575b505050505090505f805f5b8351811015611f6f575f60035f868481518110611e4257611e42612746565b6020908102919091018101516001600160a01b031682528101919091526040015f20600881015490915060ff16611e795750611f67565b8681600301541115611e8b5750611f67565b8060040154816005015410611ea05750611f67565b5f878260030154612710611eb4919061280d565b611ebe9190612824565b90505f82600401548360050154612710611ed8919061280d565b611ee29190612824565b611eee906127106127b1565b90505f60648460070154601e611f04919061280d565b611f0f84601e61280d565b611f1a86602861280d565b611f2491906127eb565b611f2e91906127eb565b611f389190612824565b905085811115611f6257809550878581518110611f5757611f57612746565b602002602001015196505b505050505b600101611e23565b509095945050505050565b611f84828261197e565b15611af2575f828152602081815260408083206001600160a01b0385168085529252808320805460ff1916905551909184917f155aaafb6329a2098580462df33ec4b7441b19729b9601c5fc17ae1cf99a8a529190a35050565b828054828255905f5260205f20908101928215612017579160200282015b82811115612017578251825591602001919060010190611ffc565b50612023929150612027565b5090565b5b80821115612023575f8155600101612028565b634e487b7160e01b5f52604160045260245ffd5b604051601f8201601f1916810167ffffffffffffffff811182821017156120785761207861203b565b604052919050565b5f82601f83011261208f575f80fd5b8135602067ffffffffffffffff8211156120ab576120ab61203b565b8160051b6120ba82820161204f565b92835284810182019282810190878511156120d3575f80fd5b83870192505b848310156120f2578235825291830191908301906120d9565b979650505050505050565b5f805f6060848603121561210f575f80fd5b833567ffffffffffffffff80821115612126575f80fd5b818601915086601f830112612139575f80fd5b813560208282111561214d5761214d61203b565b61215f601f8301601f1916820161204f565b8281528982848701011115612172575f80fd5b82828601838301375f9281018201929092529095508601359350604086013591508082111561219f575f80fd5b506121ac86828701612080565b9150509250925092565b5f602082840312156121c6575f80fd5b5035919050565b80356001600160a01b03811681146121e3575f80fd5b919050565b5f602082840312156121f8575f80fd5b612201826121cd565b9392505050565b5f81518084525f5b8181101561222c57602081850181015186830182015201612210565b505f602082860101526020601f19601f83011685010191505092915050565b6001600160a01b038a168152610120602082018190525f9061226f8382018c612208565b604084019a909a5250506060810196909652608086019490945260a085019290925260c084015260e083015215156101009091015292915050565b5f80604083850312156122bb575f80fd5b6122c4836121cd565b946020939093013593505050565b5f80604083850312156122e3575f80fd5b823591506122f3602084016121cd565b90509250929050565b602080825282518282018190525f9190848201906040850190845b8181101561233c5783516001600160a01b031683529284019291840191600101612317565b50909695505050505050565b5f8083601f840112612358575f80fd5b50813567ffffffffffffffff81111561236f575f80fd5b602083019150836020828501011115612386575f80fd5b9250929050565b5f805f80606085870312156123a0575f80fd5b84359350602085013567ffffffffffffffff8111156123bd575f80fd5b6123c987828801612348565b9598909750949560400135949350505050565b5f80604083850312156123ed575f80fd5b50508035926020909101359150565b602081525f6122016020830184612208565b60a081525f61242060a0830188612208565b905085602083015284604083015283606083015282151560808301529695505050505050565b634e487b7160e01b5f52602160045260245ffd5b6005811061247657634e487b7160e01b5f52602160045260245ffd5b9052565b8a81526001600160a01b038a81166020830152604082018a9052610140606083018190525f916124ac8483018c612208565b91508960808501528860a08501526124c760c085018961245a565b83820360e08501526124d98288612208565b95166101008401525050610120015298975050505050505050565b803580151581146121e3575f80fd5b5f60208284031215612513575f80fd5b612201826124f4565b5f805f6040848603121561252e575f80fd5b83359250602084013567ffffffffffffffff81111561254b575f80fd5b61255786828701612348565b9497909650939450505050565b602080825282518282018190525f9190848201906040850190845b8181101561233c5783518352928401929184019160010161257f565b6001600160a01b0386168152602081018590526125bb604082018561245a565b60a060608201525f6125d060a0830185612208565b90508260808301529695505050505050565b5f80604083850312156125f3575f80fd5b823591506122f3602084016124f4565b600181811c9082168061261757607f821691505b60208210810361263557634e487b7160e01b5f52602260045260245ffd5b50919050565b601f821115610c2857805f5260205f20601f840160051c810160208510156126605750805b601f840160051c820191505b8181101561267f575f815560010161266c565b5050505050565b815167ffffffffffffffff8111156126a0576126a061203b565b6126b4816126ae8454612603565b8461263b565b602080601f8311600181146126e7575f84156126d05750858301515b5f19600386901b1c1916600185901b17855561273e565b5f85815260208120601f198616915b82811015612715578886015182559484019460019091019084016126f6565b508582101561273257878501515f19600388901b60f8161c191681555b505060018460011b0185555b505050505050565b634e487b7160e01b5f52603260045260245ffd5b60208082526023908201527f416363657373436f6e74726f6c3a206163636f756e74206d697373696e6720726040820152626f6c6560e81b606082015260800190565b634e487b7160e01b5f52601160045260245ffd5b818103818111156119a2576119a261279d565b6020808252600d908201526c1499599d5b990819985a5b1959609a1b604082015260600190565b808201808211156119a2576119a261279d565b818382375f9101908152919050565b80820281158282048414176119a2576119a261279d565b5f8261283e57634e487b7160e01b5f52601260045260245ffd5b500490565b5f600182016128545761285461279d565b5060010190565b67ffffffffffffffff8311156128735761287361203b565b612887836128818354612603565b8361263b565b5f601f8411600181146128b8575f85156128a15750838201355b5f19600387901b1c1916600186901b17835561267f565b5f83815260208120601f198716915b828110156128e757868501358255602094850194600190920191016128c7565b5086821015612903575f1960f88860031b161c19848701351681555b505060018560011b0183555050505050565b5f816129235761292361279d565b505f190190565b5f80835461293781612603565b6001828116801561294f576001811461296457612990565b60ff1984168752821515830287019450612990565b875f526020805f205f5b858110156129875781548a82015290840190820161296e565b50505082870194505b5092969550505050505056fea264697066735822122017180c63ee8ec0e407fd1faab21bc7c39f93e0427a7b56121613a8739c185ca264736f6c63430008180033","linkReferences":{}},"methodIdentifiers":{"DEFAULT_ADMIN_ROLE()":"a217fddf","OPERATOR_ROLE()":"f5b541a6","VALIDATOR_ROLE()":"c49baebe","addStake()":"5a627dbc","allProviders(uint256)":"5ce13120","cacheReward()":"b35c6664","cancelRequest(uint256)":"3015394c","completeInference(uint256,bytes)":"8fac0905","getProviderInfo(address)":"7583902f","getProviders(bytes32)":"331795aa","getRequest(uint256)":"c58343ef","getUserRequests(address)":"b337cf74","grantRole(bytes32,address)":"2f2ff15d","hasRole(bytes32,address)":"91d14854","minProviderStake()":"409af248","modelRegistry()":"2ba36f78","nextRequestId()":"6a84a985","platformFee()":"26232a2e","providerBalances(address)":"28ac7f2c","providers(address)":"0787bc27","registerProvider(string,uint256,bytes32[])":"0226ed97","requestInference(bytes32,bytes,uint256)":"72ae2f28","requests(uint256)":"81d12c58","responseCache(bytes32,bytes32)":"746f6d53","revokeRole(bytes32,address)":"d547741f","routes(bytes32)":"066e9481","setCaching(bytes32,bool)":"d0221414","setMinProviderStake(uint256)":"8f0e480e","setPlatformFee(uint256)":"12e8e2c3","updateProviderStatus(bool)":"8f75e6f1","userRequests(address,uint256)":"263cb6b6","withdrawEarnings()":"b73c6ce9","withdrawPlatformFees()":"d0b7830b","withdrawStake(uint256)":"25d5971f"},"id":22}