{"abi":[{"type":"constructor","inputs":[{"name":"_modelRegistry","type":"address","internalType":"address"}],"stateMutability":"nonpayable"},{"type":"function","name":"DEFAULT_ADMIN_ROLE","inputs":[],"outputs":[{"name":"","type":"bytes32","internalType":"bytes32"}],"stateMutability":"view"},{"type":"function","name":"OPERATOR_ROLE","inputs":[],"outputs":[{"name":"","type":"bytes32","internalType":"bytes32"}],"stateMutability":"view"},{"type":"function","name":"VALIDATOR_ROLE","inputs":[],"outputs":[{"name":"","type":"bytes32","internalType":"bytes32"}],"stateMutability":"view"},{"type":"function","name":"addStake","inputs":[],"outputs":[],"stateMutability":"payable"},{"type":"function","name":"allProviders","inputs":[{"name":"","type":"uint256","internalType":"uint256"}],"outputs":[{"name":"","type":"address","internalType":"address"}],"stateMutability":"view"},{"type":"function","name":"cacheReward","inputs":[],"outputs":[{"name":"","type":"uint256","internalType":"uint256"}],"stateMutability":"view"},{"type":"function","name":"cancelRequest","inputs":[{"name":"requestId","type":"uint256","internalType":"uint256"}],"outputs":[],"stateMutability":"nonpayable"},{"type":"function","name":"completeInference","inputs":[{"name":"requestId","type":"uint256","internalType":"uint256"},{"name":"outputData","type":"bytes","internalType":"bytes"}],"outputs":[],"stateMutability":"nonpayable"},{"type":"function","name":"getProviderInfo","inputs":[{"name":"provider","type":"address","internalType":"address"}],"outputs":[{"name":"endpoint","type":"string","internalType":"string"},{"name":"stake","type":"uint256","internalType":"uint256"},{"name":"currentLoad","type":"uint256","internalType":"uint256"},{"name":"totalInferences","type":"uint256","internalType":"uint256"},{"name":"isActive","type":"bool","internalType":"bool"}],"stateMutability":"view"},{"type":"function","name":"getProviders","inputs":[{"name":"modelHash","type":"bytes32","internalType":"bytes32"}],"outputs":[{"name":"","type":"address[]","internalType":"address[]"}],"stateMutability":"view"},{"type":"function","name":"getRequest","inputs":[{"name":"requestId","type":"uint256","internalType":"uint256"}],"outputs":[{"name":"requester","type":"address","internalType":"address"},{"name":"modelHash","type":"bytes32","internalType":"bytes32"},{"name":"status","type":"uint8","internalType":"enum InferenceRouter.RequestStatus"},{"name":"outputData","type":"bytes","internalType":"bytes"},{"name":"pricePaid","type":"uint256","internalType":"uint256"}],"stateMutability":"view"},{"type":"function","name":"getUserRequests","inputs":[{"name":"user","type":"address","internalType":"address"}],"outputs":[{"name":"","type":"uint256[]","internalType":"uint256[]"}],"stateMutability":"view"},{"type":"function","name":"grantRole","inputs":[{"name":"role","type":"bytes32","internalType":"bytes32"},{"name":"account","type":"address","internalType":"address"}],"outputs":[],"stateMutability":"nonpayable"},{"type":"function","name":"hasRole","inputs":[{"name":"role","type":"bytes32","internalType":"bytes32"},{"name":"account","type":"address","internalType":"address"}],"outputs":[{"name":"","type":"bool","internalType":"bool"}],"stateMutability":"view"},{"type":"function","name":"minProviderStake","inputs":[],"outputs":[{"name":"","type":"uint256","internalType":"uint256"}],"stateMutability":"view"},{"type":"function","name":"modelRegistry","inputs":[],"outputs":[{"name":"","type":"address","internalType":"contract IModelRegistry"}],"stateMutability":"view"},{"type":"function","name":"nextRequestId","inputs":[],"outputs":[{"name":"","type":"uint256","internalType":"uint256"}],"stateMutability":"view"},{"type":"function","name":"platformFee","inputs":[],"outputs":[{"name":"","type":"uint256","internalType":"uint256"}],"stateMutability":"view"},{"type":"function","name":"providerBalances","inputs":[{"name":"","type":"address","internalType":"address"}],"outputs":[{"name":"","type":"uint256","internalType":"uint256"}],"stateMutability":"view"},{"type":"function","name":"providers","inputs":[{"name":"","type":"address","internalType":"address"}],"outputs":[{"name":"provider","type":"address","internalType":"address"},{"name":"endpoint","type":"string","internalType":"string"},{"name":"stake","type":"uint256","internalType":"uint256"},{"name":"minPrice","type":"uint256","internalType":"uint256"},{"name":"maxConcurrent","type":"uint256","internalType":"uint256"},{"name":"currentLoad","type":"uint256","internalType":"uint256"},{"name":"totalInferences","type":"uint256","internalType":"uint256"},{"name":"successRate","type":"uint256","internalType":"uint256"},{"name":"isActive","type":"bool","internalType":"bool"}],"stateMutability":"view"},{"type":"function","name":"registerProvider","inputs":[{"name":"endpoint","type":"string","internalType":"string"},{"name":"minPrice","type":"uint256","internalType":"uint256"},{"name":"supportedModels","type":"bytes32[]","internalType":"bytes32[]"}],"outputs":[],"stateMutability":"payable"},{"type":"function","name":"requestInference","inputs":[{"name":"modelHash","type":"bytes32","internalType":"bytes32"},{"name":"inputData","type":"bytes","internalType":"bytes"},{"name":"maxPrice","type":"uint256","internalType":"uint256"}],"outputs":[{"name":"","type":"uint256","internalType":"uint256"}],"stateMutability":"payable"},{"type":"function","name":"requests","inputs":[{"name":"","type":"uint256","internalType":"uint256"}],"outputs":[{"name":"requestId","type":"uint256","internalType":"uint256"},{"name":"requester","type":"address","internalType":"address"},{"name":"modelHash","type":"bytes32","internalType":"bytes32"},{"name":"inputData","type":"bytes","internalType":"bytes"},{"name":"maxPrice","type":"uint256","internalType":"uint256"},{"name":"timestamp","type":"uint256","internalType":"uint256"},{"name":"status","type":"uint8","internalType":"enum InferenceRouter.RequestStatus"},{"name":"outputData","type":"bytes","internalType":"bytes"},{"name":"computeProvider","type":"address","internalType":"address"},{"name":"pricePaid","type":"uint256","internalType":"uint256"}],"stateMutability":"view"},{"type":"function","name":"responseCache","inputs":[{"name":"","type":"bytes32","internalType":"bytes32"},{"name":"","type":"bytes32","internalType":"bytes32"}],"outputs":[{"name":"","type":"bytes","internalType":"bytes"}],"stateMutability":"view"},{"type":"function","name":"revokeRole","inputs":[{"name":"role","type":"bytes32","internalType":"bytes32"},{"name":"account","type":"address","internalType":"address"}],"outputs":[],"stateMutability":"nonpayable"},{"type":"function","name":"routes","inputs":[{"name":"","type":"bytes32","internalType":"bytes32"}],"outputs":[{"name":"modelHash","type":"bytes32","internalType":"bytes32"},{"name":"avgResponseTime","type":"uint256","internalType":"uint256"},{"name":"totalRequests","type":"uint256","internalType":"uint256"},{"name":"cachingEnabled","type":"bool","internalType":"bool"}],"stateMutability":"view"},{"type":"function","name":"setCaching","inputs":[{"name":"modelHash","type":"bytes32","internalType":"bytes32"},{"name":"enabled","type":"bool","internalType":"bool"}],"outputs":[],"stateMutability":"nonpayable"},{"type":"function","name":"setMinProviderStake","inputs":[{"name":"newStake","type":"uint256","internalType":"uint256"}],"outputs":[],"stateMutability":"nonpayable"},{"type":"function","name":"setPlatformFee","inputs":[{"name":"newFee","type":"uint256","internalType":"uint256"}],"outputs":[],"stateMutability":"nonpayable"},{"type":"function","name":"updateProviderStatus","inputs":[{"name":"isActive","type":"bool","internalType":"bool"}],"outputs":[],"stateMutability":"nonpayable"},{"type":"function","name":"userRequests","inputs":[{"name":"","type":"address","internalType":"address"},{"name":"","type":"uint256","internalType":"uint256"}],"outputs":[{"name":"","type":"uint256","internalType":"uint256"}],"stateMutability":"view"},{"type":"function","name":"withdrawEarnings","inputs":[],"outputs":[],"stateMutability":"nonpayable"},{"type":"function","name":"withdrawPlatformFees","inputs":[],"outputs":[],"stateMutability":"nonpayable"},{"type":"function","name":"withdrawStake","inputs":[{"name":"amount","type":"uint256","internalType":"uint256"}],"outputs":[],"stateMutability":"nonpayable"},{"type":"event","name":"CacheHit","inputs":[{"name":"modelHash","type":"bytes32","indexed":true,"internalType":"bytes32"},{"name":"inputHash","type":"bytes32","indexed":false,"internalType":"bytes32"}],"anonymous":false},{"type":"event","name":"InferenceCompleted","inputs":[{"name":"requestId","type":"uint256","indexed":true,"internalType":"uint256"},{"name":"provider","type":"address","indexed":true,"internalType":"address"},{"name":"price","type":"uint256","indexed":false,"internalType":"uint256"}],"anonymous":false},{"type":"event","name":"InferenceRequested","inputs":[{"name":"requestId","type":"uint256","indexed":true,"internalType":"uint256"},{"name":"requester","type":"address","indexed":true,"internalType":"address"},{"name":"modelHash","type":"bytes32","indexed":true,"internalType":"bytes32"}],"anonymous":false},{"type":"event","name":"ProviderRegistered","inputs":[{"name":"provider","type":"address","indexed":true,"internalType":"address"},{"name":"stake","type":"uint256","indexed":false,"internalType":"uint256"}],"anonymous":false},{"type":"event","name":"ProviderUpdated","inputs":[{"name":"provider","type":"address","indexed":true,"internalType":"address"},{"name":"isActive","type":"bool","indexed":false,"internalType":"bool"}],"anonymous":false},{"type":"event","name":"RoleGranted","inputs":[{"name":"role","type":"bytes32","indexed":true,"internalType":"bytes32"},{"name":"account","type":"address","indexed":true,"internalType":"address"}],"anonymous":false},{"type":"event","name":"RoleRevoked","inputs":[{"name":"role","type":"bytes32","indexed":true,"internalType":"bytes32"},{"name":"account","type":"address","indexed":true,"internalType":"address"}],"anonymous":false},{"type":"event","name":"RouteUpdated","inputs":[{"name":"modelHash","type":"bytes32","indexed":true,"internalType":"bytes32"},{"name":"providers","type":"address[]","indexed":false,"internalType":"address[]"}],"anonymous":false}],"bytecode":{"object":"0x6080346200015957601f6200255238819003918201601f1916830192916001600160401b038411838510176200015d57808392604095865283396020928391810103126200015957516001600160a01b03811690819003620001595768056bc75e2d63100000600a5560fa600b556064600c5560018060a01b031960015416176001555f80525f8152815f20335f52815260ff825f2054161562000123575b7f97667070c54ef182b0f5858b034beac1b6f3089aa2d3188bb1e8929f4fa9b92990815f525f8152825f20335f52815260ff835f20541615620000eb575b82516123c09081620001728239f35b815f525f8152825f2090335f5252815f20600160ff1982541617905533905f80516020620025328339815191525f80a35f80620000dc565b5f80525f8152815f20335f528152815f20600160ff19825416179055335f5f80516020620025328339815191528180a36200009e565b5f80fd5b634e487b7160e01b5f52604160045260245ffdfe60806040526004361015610011575f80fd5b5f3560e01c80630226ed9714611383578063066e9481146113325780630787bc271461128157806312e8e2c31461120357806325d5971f1461112557806326232a2e14611108578063263cb6b6146110b157806328ac7f2c146110795780632ba36f78146110515780632f2ff15d14610f9a5780633015394c14610eab578063331795aa14610dfb578063409af24814610dde5780635a627dbc14610da95780635ce1312014610d675780636a84a98514610d4a57806372ae2f2814610d05578063746f6d5314610cb75780637583902f14610c3357806381d12c5814610b615780638f0e480e14610b215780638f75e6f114610aa15780638fac09051461064157806391d14854146105f9578063a217fddf146105df578063b337cf7414610531578063b35c666414610514578063b73c6ce91461049d578063c49baebe14610463578063c58343ef146103df578063d022141414610361578063d0b7830b14610280578063d547741f146101cd5763f5b541a61461018f575f80fd5b346101c9575f3660031901126101c95760206040517f97667070c54ef182b0f5858b034beac1b6f3089aa2d3188bb1e8929f4fa9b9298152f35b5f80fd5b346101c95760403660031901126101c9576004356101e9611885565b335f9081525f8051602061236b83398151915260209081526040909120549192916102169060ff16611b17565b5f82815280825260408082206001600160a01b0390951680835294835290205460ff1661023f57005b815f525f815260405f2090835f525260405f2060ff1981541690557f155aaafb6329a2098580462df33ec4b7441b19729b9601c5fc17ae1cf99a8a525f80a3005b346101c9575f3660031901126101c957335f9081525f8051602061236b83398151915260209081526040909120546102ba9060ff16611b17565b47905f90600854905b818310610327578380156102ec575f8080806102ea94335af16102e4611b7c565b50611bab565b005b60405162461bcd60e51b81526020600482015260136024820152724e6f206665657320746f20776974686472617760681b6044820152606490fd5b909192610358600191610339866119b3565b848060a01b0391549060031b1c165f526007845260405f205490611b6f565b930191906102c3565b346101c95760403660031901126101c95760243580151581036101c957335f9081527fee57cd81e84075558e8fcc182a1f4393f91fc97f963a136e66b7f949a62f319f60205260409020546102ea91906103bd9060ff16611b17565b6004355f526004602052600460405f20019060ff801983541691151516179055565b346101c95760203660031901126101c9576004355f52600260205260405f2060018060a01b0360018201541660028201549161045960ff6006830154166104486104306007600986015495016118d3565b91604051968796875260208701526040860190611a3f565b60a0606085015260a0840190611975565b9060808301520390f35b346101c9575f3660031901126101c95760206040517f21702c8af46127c7fa207f89d0b0a8441bb32959a0ac7df790e9ab1a25c989268152f35b346101c9575f3660031901126101c957335f52600760205260405f205480156104e1575f8080806102ea943382526007602052816040812055335af16102e4611b7c565b60405162461bcd60e51b815260206004820152600b60248201526a4e6f206561726e696e677360a81b6044820152606490fd5b346101c9575f3660031901126101c9576020600c54604051908152f35b346101c9576020806003193601126101c9576001600160a01b0361055361186f565b165f526006815260405f20604051908183825491828152019081925f52845f20905f5b868282106105cb57868661058c828803836117e7565b60405192839281840190828552518091526040840192915f5b8281106105b457505050500390f35b8351855286955093810193928101926001016105a5565b835485529093019260019283019201610576565b346101c9575f3660031901126101c95760206040515f8152f35b346101c95760403660031901126101c957610612611885565b6004355f525f60205260405f209060018060a01b03165f52602052602060ff60405f2054166040519015158152f35b346101c95760403660031901126101c957602467ffffffffffffffff60043582358281116101c957610677903690600401611a11565b825f949294526020916002835260405f209060018060a01b0396876008840154163303610a6657600683019360ff855416946005861015610a53576001809603610a1e5760078501938211610a0b576106da826106d4865461189b565b86611a8d565b601f8211935f836001871461099e5780610708925f91610993575b508160011b915f199060031b1c19161790565b90555b600260ff19825416179055335f526003865260405f209260038401549860048601948554808c1161098b575b5061075261271061074b8d600b5490611adc565b048c611b6f565b8b6009890155335f5260078a5261076e60405f20918254611c64565b905560058101805495861561097857505f199586019055600601805461079390611c8f565b90556002860180545f5260048952600360405f20016107b28154611c8f565b905554805f526004895260ff600460405f20015416610847575b50505050509480967fc810a20dc6d645b09af21ec1b201826932b558c12bf3c6f55f4f21766bf28f2e95965493828511610811575b50505050506040519384523393a3005b61083d9461082c5f9594869594869594869501541692611b6f565b905af1610837611b7c565b50611beb565b8480858180610801565b610853600388016118d3565b898151910120905f526005895260405f20905f52885260405f20936108828461087c875461189b565b87611a8d565b5f926001146108f05750828a9b9492937fc810a20dc6d645b09af21ec1b201826932b558c12bf3c6f55f4f21766bf28f2e9a9b96946108d6935f926108e5575b50508160011b915f199060031b1c19161790565b90555b91969581988a806107cc565b013590508d806108c2565b91601f19841692855f52895f20935f5b81811061096357509285928d9e9795927fc810a20dc6d645b09af21ec1b201826932b558c12bf3c6f55f4f21766bf28f2e9d9e99978c961061094b575b50505050811b0190556108d9565b60f88560031b161c199101351690558c80808061093d565b848401358655948a0194928b01928b01610900565b634e487b7160e01b5f9081526011600452fd5b9a508c610737565b90508c01358e6106f5565b50601f19841690825f52848a5f20928d8c8c5f925b8484106109eb5750505050106109d2575b50508683811b01905561070b565b8b01355f19600386901b60f8161c191690558b806109c4565b82949550958097919293960135815501940192019086918c8f8d906109b3565b82634e487b7160e01b5f5260416004525ffd5b60405162461bcd60e51b815260048101889052600e818501526d496e76616c69642073746174757360901b6044820152606490fd5b82634e487b7160e01b5f5260216004525ffd5b8460156064926040519262461bcd60e51b84526004840152820152742737ba1030b9b9b4b3b732b210383937bb34b232b960591b6044820152fd5b346101c95760203660031901126101c957600435801515908181036101c957610af390335f526003602052600860405f20610ae160028201541515611c27565b019060ff801983541691151516179055565b6040519081527f8554dec1c8480fcfca0e11f508f0405183714c03291f4311428e2482c5f986c960203392a2005b346101c95760203660031901126101c957335f9081525f8051602061236b8339815191526020526040902054610b599060ff16611b17565b600435600a55005b346101c95760203660031901126101c9576004355f52600260205260405f20602081549160018060a01b03610c228160018401541694600284015492610c15610bac600387016118d3565b92600487015493610c0060058901549160ff60068b015416936009610bd360078d016118d3565b9760088d0154169b0154996040519d8e9d8e610140948152015260408d01528060608d01528b0190611975565b9460808a015260a089015260c0880190611a3f565b85820360e0870152611975565b916101008401526101208301520390f35b346101c95760203660031901126101c9576001600160a01b03610c5461186f565b165f526003602052610c9c60405f2060028101546005820154916006810154610c87600160ff60088501541693016118d3565b9360405195869560a0875260a0870190611975565b93602086015260408501526060840152151560808301520390f35b346101c95760403660031901126101c9576004355f52600560205260405f206024355f52602052610d01610ced60405f206118d3565b604051918291602083526020830190611975565b0390f35b60603660031901126101c95760243567ffffffffffffffff81116101c957610d42610d366020923690600401611a11565b60443591600435611cd1565b604051908152f35b346101c9575f3660031901126101c9576020600954604051908152f35b346101c95760203660031901126101c9576004356008548110156101c957610d906020916119b3565b905460405160039290921b1c6001600160a01b03168152f35b5f3660031901126101c957335f526003602052600260405f2001610dda8154610dd3811515611c27565b3490611c64565b9055005b346101c9575f3660031901126101c9576020600a54604051908152f35b346101c9576020806003193601126101c9576004355f5260048152600190600160405f200191604051918281855491828152019081955f52825f20905f5b818110610e8f5750505083610e4f9103846117e7565b6040519281840190828552518091526040840194915f5b828110610e735785870386f35b83516001600160a01b0316875295810195928101928401610e66565b82546001600160a01b0316845292840192918501918501610e39565b346101c95760203660031901126101c9576004355f90815260026020526040902060018101546001600160a01b03163303610f615760068101805460ff81166005811015610f4d57610f18575f8060046102ea95829582849660ff19161790550154335af1610837611b7c565b60405162461bcd60e51b815260206004820152600d60248201526c10d85b9b9bdd0818d85b98d95b609a1b6044820152606490fd5b634e487b7160e01b5f52602160045260245ffd5b60405162461bcd60e51b81526020600482015260116024820152702737ba103932b8bab2b9ba1037bbb732b960791b6044820152606490fd5b346101c95760403660031901126101c957600435610fb6611885565b335f9081525f8051602061236b8339815191526020908152604090912054919291610fe39060ff16611b17565b5f82815280825260408082206001600160a01b0390951680835294835290205460ff161561100d57005b815f525f815260405f2090835f525260405f20600160ff198254161790557f2ae6a113c0ed5b78a53413ffbb7679881f11145ccfba4fb92e863dfcd5a1d2f35f80a3005b346101c9575f3660031901126101c9576001546040516001600160a01b039091168152602090f35b346101c95760203660031901126101c9576001600160a01b0361109a61186f565b165f526007602052602060405f2054604051908152f35b346101c95760403660031901126101c9576110ca61186f565b6001600160a01b03165f908152600660205260409020805460243591908210156101c9576020916110fa916119fc565b90546040519160031b1c8152f35b346101c9575f3660031901126101c9576020600b54604051908152f35b346101c95760203660031901126101c957600435335f52600360205260405f209060ff6008830154166111c657600582015461118b575f8080809360026102ea960161117e82825461117982821015611a4c565b611b6f565b9055335af16102e4611b7c565b60405162461bcd60e51b81526020600482015260136024820152724861732061637469766520726571756573747360681b6044820152606490fd5b60405162461bcd60e51b8152602060048201526015602482015274135d5cdd0819195858dd1a5d985d1948199a5c9cdd605a1b6044820152606490fd5b346101c95760203660031901126101c957335f9081525f8051602061236b83398151915260205260409020546004359061123f9060ff16611b17565b6103e8811161124d57600b55005b60405162461bcd60e51b815260206004820152600c60248201526b08ccaca40e8dede40d0d2ced60a31b6044820152606490fd5b346101c95760203660031901126101c9576001600160a01b03806112a361186f565b165f52600360205260405f20908154166112bf600183016118d3565b916002810154906003810154906004810154600582015460068301549160ff600860078601549501541694611307604051998a99610120908b528060208c01528a0190611975565b9660408901526060880152608087015260a086015260c085015260e084015215156101008301520390f35b346101c95760203660031901126101c9576004355f526004602052608060405f2080549060028101549060ff6004600383015492015416916040519384526020840152604083015215156060820152f35b60603660031901126101c95760043567ffffffffffffffff81116101c957366023820112156101c9576113c160249136908381600401359101611839565b60443567ffffffffffffffff81116101c957366023820112156101c95780600401359067ffffffffffffffff8211611604578160051b906040519261140960208401856117e7565b835260208301858193830101913683116101c9578601905b8282106117d757505050611439600a54341015611a4c565b82511561179f5781511561175b57335f52600360205260405f206008810160ff8154166117175781546001600160a01b03191633178255845160019567ffffffffffffffff82116117045761149c826114948987015461189b565b898701611a8d565b602090601f831160011461169b5791806114cf9260099695945f926116905750508160011b915f199060031b1c19161790565b868301555b34600283015586356003830155600a60048301556127106007830155805460ff1916861790558351910167ffffffffffffffff821161167d57600160401b9283831161166a578154838355808410611642575b50905f5260205f20855f5b84811061162f5750505050506008548181101561161c579361155a85858097016008556119b3565b939080549460031b60018060a01b03958633831b921b19161790555f955b6115ab575b6040513481527f90c9734131c1e4fb36cde2d71e6feb93fb258f71be8a85411c173d25e1516e8060203392a2005b8051861015611617576115be8682611b03565b515f5260046020528460405f2001958654968488101561160457906115eb888899938980950181556119fc565b81549060031b908833831b921b19161790550195611578565b83634e487b7160e01b5f5260416004525ffd5b61157d565b84634e487b7160e01b5f5260416004525ffd5b6020845194019381840155018690611532565b825f52868460205f2092830192015b82811061165f575050611527565b5f8155018790611651565b86634e487b7160e01b5f5260416004525ffd5b85634e487b7160e01b5f5260416004525ffd5b015190508a806108c2565b9392918791601f198216908386015f5260205f20915f5b8181106116ec57509683600998106116d4575b505050811b01868301556114d4565b01515f1960f88460031b161c191690558980806116c5565b8289015184558b9590930192602092830192016116b2565b87634e487b7160e01b5f5260416004525ffd5b60405162461bcd60e51b815260206004820152601b818801527f50726f766964657220616c7265616479207265676973746572656400000000006044820152606490fd5b60405162461bcd60e51b815260206004820152601f818601527f4d75737420737570706f7274206174206c65617374206f6e65206d6f64656c006044820152606490fd5b60405162461bcd60e51b81526020600482015260118186015270115b991c1bda5b9d081c995c5d5a5c9959607a1b6044820152606490fd5b8135815260209182019101611421565b90601f8019910116810190811067ffffffffffffffff82111761180957604052565b634e487b7160e01b5f52604160045260245ffd5b67ffffffffffffffff811161180957601f01601f191660200190565b9291926118458261181d565b9161185360405193846117e7565b8294818452818301116101c9578281602093845f960137010152565b600435906001600160a01b03821682036101c957565b602435906001600160a01b03821682036101c957565b90600182811c921680156118c9575b60208310146118b557565b634e487b7160e01b5f52602260045260245ffd5b91607f16916118aa565b9060405191825f82546118e58161189b565b908184526020946001916001811690815f146119535750600114611915575b505050611913925003836117e7565b565b5f90815285812095935091905b81831061193b57505061191393508201015f8080611904565b85548884018501529485019487945091830191611922565b9250505061191394925060ff191682840152151560051b8201015f8080611904565b91908251928382525f5b84811061199f575050825f602080949584010152601f8019910116010190565b60208183018101518483018201520161197f565b6008548110156119e85760085f527ff3f7a9fe364faab93b216da50a3214154f22a0a2b415b23a84c8169e8b636ee301905f90565b634e487b7160e01b5f52603260045260245ffd5b80548210156119e8575f5260205f2001905f90565b9181601f840112156101c95782359167ffffffffffffffff83116101c957602083818601950101116101c957565b906005821015610f4d5752565b15611a5357565b60405162461bcd60e51b8152602060048201526012602482015271496e73756666696369656e74207374616b6560701b6044820152606490fd5b601f8211611a9a57505050565b5f5260205f20906020601f840160051c83019310611ad2575b601f0160051c01905b818110611ac7575050565b5f8155600101611abc565b9091508190611ab3565b81810292918115918404141715611aef57565b634e487b7160e01b5f52601160045260245ffd5b80518210156119e85760209160051b010190565b15611b1e57565b60405162461bcd60e51b815260206004820152602360248201527f416363657373436f6e74726f6c3a206163636f756e74206d697373696e6720726044820152626f6c6560e81b6064820152608490fd5b91908203918211611aef57565b3d15611ba6573d90611b8d8261181d565b91611b9b60405193846117e7565b82523d5f602084013e565b606090565b15611bb257565b60405162461bcd60e51b815260206004820152601160248201527015da5d1a191c985dd85b0819985a5b1959607a1b6044820152606490fd5b15611bf257565b60405162461bcd60e51b815260206004820152600d60248201526c1499599d5b990819985a5b1959609a1b6044820152606490fd5b15611c2e57565b60405162461bcd60e51b815260206004820152600e60248201526d139bdd081c9959da5cdd195c995960921b6044820152606490fd5b91908201809211611aef57565b8115611c7b570490565b634e487b7160e01b5f52601260045260245ffd5b5f198114611aef5760010190565b8054600160401b81101561180957611cba916001820181556119fc565b819291549060031b91821b915f19901b1916179055565b929391909184341061232e57611ce8368385611839565b60208151910120845f52600560205260405f20815f52602052611d0d60405f206118d3565b908151151580612315575b6120bc57505060095492611d2b84611c8f565b600955835f52600260205260405f209284845560018401336bffffffffffffffffffffffff60a01b825416179055856002850155600384019167ffffffffffffffff821161180957611d8782611d81855461189b565b85611a8d565b5f90601f831160011461205857611db492915f918361204d5750508160011b915f199060031b1c19161790565b90555b84600483015542600583015560ff196006830154166006830155335f526006602052611de68360405f20611c9d565b835f526004602052600160405f200192604051808560208297549384815201905f5260205f20925f5b81811061202b575050611e24925003856117e7565b5f945f935f5b8651811015611f6c576001600160a01b03611e458289611b03565b51165f52600360205260405f2060ff60088201541615611f63576003810154908a8211611f59576005810154600482015480821015611f4d57612710938085029085820403611aef578d611e9891611c71565b9182850391858311611aef578186029186830403611aef57611eb991611c71565b9384810392818411611aef576028808402938404149082141715611aef57601e94858402938404861491141715611aef57600791611ef691611c64565b910154908183810204831482151715611aef57606492611f17920290611c64565b04868111611f2b575b506001905b01611e2a565b909750945060016001600160a01b03611f448989611b03565b51169790611f20565b50505050600190611f25565b5050600190611f25565b50600190611f25565b5092965090949093506001600160a01b031691508115611fee576008810180546001600160a01b03191683179055600601805460ff191660011790555f9081526003602052604090206005018054611fc390611c8f565b905533827fe54e2489143ae39428ac2a0c18dd3c736f8f64abcfb95988a57e56b51716c5225f80a490565b60405162461bcd60e51b815260206004820152601560248201527427379030bb30b4b630b1363290383937bb34b232b960591b6044820152606490fd5b84546001600160a01b0316835260019485019489945060209093019201611e0f565b013590505f806108c2565b601f19831691845f5260205f20925f5b8181106120a4575090846001959493921061208b575b505050811b019055611db7565b01355f19600384901b60f8161c191690555f808061207e565b91936020600181928787013581550195019201612068565b947fe832775cd468d588ce80e0127ef0461115d7aa0c74845308e7581e8f03fee2a9602082939896959497604051908152a26127106120fd600c5486611adc565b04928334116122f4575b6009549461211486611c8f565b600955855f52600260205260405f2093868555600193848601336bffffffffffffffffffffffff60a01b8254161790556002860155600385019067ffffffffffffffff938482116118095761216d82611d81855461189b565b5f90601f83116001146122935761219a92915f918361204d5750508160011b915f199060031b1c19161790565b90555b600484015542600584015560068301600260ff1982541617905560078301918751918211611809576121d382611d81855461189b565b602090601f831160011461223057509080612208926009969798995f926122255750508160011b915f199060031b1c19161790565b90555b0155335f5260066020526122228160405f20611c9d565b90565b015190505f806108c2565b9190601f19821690845f5260205f20915f5b81811061227d57509983600998999a9b10612265575b505050811b01905561220b565b01515f1960f88460031b161c191690555f8080612258565b8b83015184559285019260209283019201612242565b90869291601f19831691855f5260205f20925f5b8181106122dc575084116122c3575b505050811b01905561219d565b01355f19600384901b60f8161c191690555f80806122b6565b8284013585558a9690940193602092830192016122a7565b6123105f8080806123058934611b6f565b335af1610837611b7c565b612107565b50855f52600460205260ff600460405f20015416611d18565b60405162461bcd60e51b8152602060048201526014602482015273125b9cdd59999a58da595b9d081c185e5b595b9d60621b6044820152606490fdfead3228b676f7d3cd4284a5443f17f1962b36e491b30a40b2405849e597ba5fb5a26469706673582212200b55837a5ad22f8be19fbb85eed1f81d976f6b31da56b2c17843af6fc711b82664736f6c634300081800332ae6a113c0ed5b78a53413ffbb7679881f11145ccfba4fb92e863dfcd5a1d2f3","linkReferences":{}},"methodIdentifiers":{"DEFAULT_ADMIN_ROLE()":"a217fddf","OPERATOR_ROLE()":"f5b541a6","VALIDATOR_ROLE()":"c49baebe","addStake()":"5a627dbc","allProviders(uint256)":"5ce13120","cacheReward()":"b35c6664","cancelRequest(uint256)":"3015394c","completeInference(uint256,bytes)":"8fac0905","getProviderInfo(address)":"7583902f","getProviders(bytes32)":"331795aa","getRequest(uint256)":"c58343ef","getUserRequests(address)":"b337cf74","grantRole(bytes32,address)":"2f2ff15d","hasRole(bytes32,address)":"91d14854","minProviderStake()":"409af248","modelRegistry()":"2ba36f78","nextRequestId()":"6a84a985","platformFee()":"26232a2e","providerBalances(address)":"28ac7f2c","providers(address)":"0787bc27","registerProvider(string,uint256,bytes32[])":"0226ed97","requestInference(bytes32,bytes,uint256)":"72ae2f28","requests(uint256)":"81d12c58","responseCache(bytes32,bytes32)":"746f6d53","revokeRole(bytes32,address)":"d547741f","routes(bytes32)":"066e9481","setCaching(bytes32,bool)":"d0221414","setMinProviderStake(uint256)":"8f0e480e","setPlatformFee(uint256)":"12e8e2c3","updateProviderStatus(bool)":"8f75e6f1","userRequests(address,uint256)":"263cb6b6","withdrawEarnings()":"b73c6ce9","withdrawPlatformFees()":"d0b7830b","withdrawStake(uint256)":"25d5971f"},"id":29}