{"abi":[{"type":"constructor","inputs":[{"name":"_modelRegistry","type":"address","internalType":"address"}],"stateMutability":"nonpayable"},{"type":"function","name":"DEFAULT_ADMIN_ROLE","inputs":[],"outputs":[{"name":"","type":"bytes32","internalType":"bytes32"}],"stateMutability":"view"},{"type":"function","name":"OPERATOR_ROLE","inputs":[],"outputs":[{"name":"","type":"bytes32","internalType":"bytes32"}],"stateMutability":"view"},{"type":"function","name":"VALIDATOR_ROLE","inputs":[],"outputs":[{"name":"","type":"bytes32","internalType":"bytes32"}],"stateMutability":"view"},{"type":"function","name":"adapterPermissions","inputs":[{"name":"","type":"bytes32","internalType":"bytes32"},{"name":"","type":"address","internalType":"address"}],"outputs":[{"name":"","type":"bool","internalType":"bool"}],"stateMutability":"view"},{"type":"function","name":"adapters","inputs":[{"name":"","type":"bytes32","internalType":"bytes32"}],"outputs":[{"name":"loraHash","type":"bytes32","internalType":"bytes32"},{"name":"baseModelHash","type":"bytes32","internalType":"bytes32"},{"name":"creator","type":"address","internalType":"address"},{"name":"name","type":"string","internalType":"string"},{"name":"description","type":"string","internalType":"string"},{"name":"ipfsCID","type":"string","internalType":"string"},{"name":"rank","type":"uint256","internalType":"uint256"},{"name":"alpha","type":"uint256","internalType":"uint256"},{"name":"dropout","type":"uint256","internalType":"uint256"},{"name":"createdAt","type":"uint256","internalType":"uint256"},{"name":"trainingCost","type":"uint256","internalType":"uint256"},{"name":"isPublic","type":"bool","internalType":"bool"},{"name":"config","type":"tuple","internalType":"struct LoRAFactory.TrainingConfig","components":[{"name":"epochs","type":"uint256","internalType":"uint256"},{"name":"batchSize","type":"uint256","internalType":"uint256"},{"name":"learningRate","type":"uint256","internalType":"uint256"},{"name":"datasetCID","type":"string","internalType":"string"},{"name":"datasetSize","type":"uint256","internalType":"uint256"},{"name":"validationSplit","type":"uint256","internalType":"uint256"}]}],"stateMutability":"view"},{"type":"function","name":"allAdapterHashes","inputs":[{"name":"","type":"uint256","internalType":"uint256"}],"outputs":[{"name":"","type":"bytes32","internalType":"bytes32"}],"stateMutability":"view"},{"type":"function","name":"completeMerge","inputs":[{"name":"requestHash","type":"bytes32","internalType":"bytes32"},{"name":"resultCID","type":"string","internalType":"string"}],"outputs":[],"stateMutability":"nonpayable"},{"type":"function","name":"completeTraining","inputs":[{"name":"loraHash","type":"bytes32","internalType":"bytes32"},{"name":"ipfsCID","type":"string","internalType":"string"}],"outputs":[],"stateMutability":"nonpayable"},{"type":"function","name":"createLoRA","inputs":[{"name":"baseModelHash","type":"bytes32","internalType":"bytes32"},{"name":"name","type":"string","internalType":"string"},{"name":"description","type":"string","internalType":"string"},{"name":"rank","type":"uint256","internalType":"uint256"},{"name":"alpha","type":"uint256","internalType":"uint256"},{"name":"dropout","type":"uint256","internalType":"uint256"},{"name":"config","type":"tuple","internalType":"struct LoRAFactory.TrainingConfig","components":[{"name":"epochs","type":"uint256","internalType":"uint256"},{"name":"batchSize","type":"uint256","internalType":"uint256"},{"name":"learningRate","type":"uint256","internalType":"uint256"},{"name":"datasetCID","type":"string","internalType":"string"},{"name":"datasetSize","type":"uint256","internalType":"uint256"},{"name":"validationSplit","type":"uint256","internalType":"uint256"}]}],"outputs":[{"name":"","type":"bytes32","internalType":"bytes32"}],"stateMutability":"payable"},{"type":"function","name":"getLoRA","inputs":[{"name":"loraHash","type":"bytes32","internalType":"bytes32"}],"outputs":[{"name":"baseModelHash","type":"bytes32","internalType":"bytes32"},{"name":"creator","type":"address","internalType":"address"},{"name":"name","type":"string","internalType":"string"},{"name":"ipfsCID","type":"string","internalType":"string"},{"name":"rank","type":"uint256","internalType":"uint256"},{"name":"isPublic","type":"bool","internalType":"bool"}],"stateMutability":"view"},{"type":"function","name":"getMergeRequest","inputs":[{"name":"requestHash","type":"bytes32","internalType":"bytes32"}],"outputs":[{"name":"loraHashes","type":"bytes32[]","internalType":"bytes32[]"},{"name":"weights","type":"uint256[]","internalType":"uint256[]"},{"name":"requester","type":"address","internalType":"address"},{"name":"completed","type":"bool","internalType":"bool"},{"name":"resultCID","type":"string","internalType":"string"}],"stateMutability":"view"},{"type":"function","name":"getModelLoRAs","inputs":[{"name":"modelHash","type":"bytes32","internalType":"bytes32"}],"outputs":[{"name":"","type":"bytes32[]","internalType":"bytes32[]"}],"stateMutability":"view"},{"type":"function","name":"getUserLoRAs","inputs":[{"name":"user","type":"address","internalType":"address"}],"outputs":[{"name":"","type":"bytes32[]","internalType":"bytes32[]"}],"stateMutability":"view"},{"type":"function","name":"grantPermission","inputs":[{"name":"loraHash","type":"bytes32","internalType":"bytes32"},{"name":"user","type":"address","internalType":"address"}],"outputs":[],"stateMutability":"nonpayable"},{"type":"function","name":"grantRole","inputs":[{"name":"role","type":"bytes32","internalType":"bytes32"},{"name":"account","type":"address","internalType":"address"}],"outputs":[],"stateMutability":"nonpayable"},{"type":"function","name":"hasRole","inputs":[{"name":"role","type":"bytes32","internalType":"bytes32"},{"name":"account","type":"address","internalType":"address"}],"outputs":[{"name":"","type":"bool","internalType":"bool"}],"stateMutability":"view"},{"type":"function","name":"inferWithLoRA","inputs":[{"name":"baseModelHash","type":"bytes32","internalType":"bytes32"},{"name":"loraHash","type":"bytes32","internalType":"bytes32"},{"name":"inputData","type":"bytes","internalType":"bytes"}],"outputs":[{"name":"","type":"bytes","internalType":"bytes"}],"stateMutability":"payable"},{"type":"function","name":"mergeFee","inputs":[],"outputs":[{"name":"","type":"uint256","internalType":"uint256"}],"stateMutability":"view"},{"type":"function","name":"mergeLoRAs","inputs":[{"name":"loraHashes","type":"bytes32[]","internalType":"bytes32[]"},{"name":"weights","type":"uint256[]","internalType":"uint256[]"},{"name":"mergeType","type":"uint256","internalType":"uint256"}],"outputs":[{"name":"","type":"bytes32","internalType":"bytes32"}],"stateMutability":"payable"},{"type":"function","name":"mergeRequests","inputs":[{"name":"","type":"bytes32","internalType":"bytes32"}],"outputs":[{"name":"requestHash","type":"bytes32","internalType":"bytes32"},{"name":"requester","type":"address","internalType":"address"},{"name":"resultHash","type":"bytes32","internalType":"bytes32"},{"name":"resultCID","type":"string","internalType":"string"},{"name":"mergeType","type":"uint256","internalType":"uint256"},{"name":"completed","type":"bool","internalType":"bool"}],"stateMutability":"view"},{"type":"function","name":"modelAdapters","inputs":[{"name":"","type":"bytes32","internalType":"bytes32"},{"name":"","type":"uint256","internalType":"uint256"}],"outputs":[{"name":"","type":"bytes32","internalType":"bytes32"}],"stateMutability":"view"},{"type":"function","name":"modelRegistry","inputs":[],"outputs":[{"name":"","type":"address","internalType":"contract IModelRegistry"}],"stateMutability":"view"},{"type":"function","name":"revokePermission","inputs":[{"name":"loraHash","type":"bytes32","internalType":"bytes32"},{"name":"user","type":"address","internalType":"address"}],"outputs":[],"stateMutability":"nonpayable"},{"type":"function","name":"revokeRole","inputs":[{"name":"role","type":"bytes32","internalType":"bytes32"},{"name":"account","type":"address","internalType":"address"}],"outputs":[],"stateMutability":"nonpayable"},{"type":"function","name":"setMergeFee","inputs":[{"name":"newFee","type":"uint256","internalType":"uint256"}],"outputs":[],"stateMutability":"nonpayable"},{"type":"function","name":"setPublicStatus","inputs":[{"name":"loraHash","type":"bytes32","internalType":"bytes32"},{"name":"isPublic","type":"bool","internalType":"bool"}],"outputs":[],"stateMutability":"nonpayable"},{"type":"function","name":"setTrainingFee","inputs":[{"name":"newFee","type":"uint256","internalType":"uint256"}],"outputs":[],"stateMutability":"nonpayable"},{"type":"function","name":"totalAdapters","inputs":[],"outputs":[{"name":"","type":"uint256","internalType":"uint256"}],"stateMutability":"view"},{"type":"function","name":"trainingFeePerEpoch","inputs":[],"outputs":[{"name":"","type":"uint256","internalType":"uint256"}],"stateMutability":"view"},{"type":"function","name":"userAdapters","inputs":[{"name":"","type":"address","internalType":"address"},{"name":"","type":"uint256","internalType":"uint256"}],"outputs":[{"name":"","type":"bytes32","internalType":"bytes32"}],"stateMutability":"view"},{"type":"function","name":"withdrawFees","inputs":[],"outputs":[],"stateMutability":"nonpayable"},{"type":"event","name":"LoRACreated","inputs":[{"name":"loraHash","type":"bytes32","indexed":true,"internalType":"bytes32"},{"name":"baseModelHash","type":"bytes32","indexed":true,"internalType":"bytes32"},{"name":"creator","type":"address","indexed":true,"internalType":"address"},{"name":"name","type":"string","indexed":false,"internalType":"string"}],"anonymous":false},{"type":"event","name":"LoRAMerged","inputs":[{"name":"requestHash","type":"bytes32","indexed":true,"internalType":"bytes32"},{"name":"loraHashes","type":"bytes32[]","indexed":false,"internalType":"bytes32[]"},{"name":"resultHash","type":"bytes32","indexed":false,"internalType":"bytes32"}],"anonymous":false},{"type":"event","name":"PermissionGranted","inputs":[{"name":"loraHash","type":"bytes32","indexed":true,"internalType":"bytes32"},{"name":"user","type":"address","indexed":true,"internalType":"address"}],"anonymous":false},{"type":"event","name":"RoleGranted","inputs":[{"name":"role","type":"bytes32","indexed":true,"internalType":"bytes32"},{"name":"account","type":"address","indexed":true,"internalType":"address"}],"anonymous":false},{"type":"event","name":"RoleRevoked","inputs":[{"name":"role","type":"bytes32","indexed":true,"internalType":"bytes32"},{"name":"account","type":"address","indexed":true,"internalType":"address"}],"anonymous":false},{"type":"event","name":"TrainingCompleted","inputs":[{"name":"loraHash","type":"bytes32","indexed":true,"internalType":"bytes32"},{"name":"ipfsCID","type":"string","indexed":false,"internalType":"string"}],"anonymous":false},{"type":"event","name":"TrainingStarted","inputs":[{"name":"loraHash","type":"bytes32","indexed":true,"internalType":"bytes32"},{"name":"epochs","type":"uint256","indexed":false,"internalType":"uint256"},{"name":"cost","type":"uint256","indexed":false,"internalType":"uint256"}],"anonymous":false}],"bytecode":{"object":"0x6080604052662386f26fc1000060095566b1a2bc2ec50000600a5534801562000026575f80fd5b506040516200336038038062003360833981016040819052620000499162000124565b600180546001600160a01b0319166001600160a01b038316179055620000705f33620000a3565b6200009c7f97667070c54ef182b0f5858b034beac1b6f3089aa2d3188bb1e8929f4fa9b92933620000a3565b5062000153565b5f828152602081815260408083206001600160a01b038516845290915290205460ff1662000120575f828152602081815260408083206001600160a01b0385168085529252808320805460ff1916600117905551909184917f2ae6a113c0ed5b78a53413ffbb7679881f11145ccfba4fb92e863dfcd5a1d2f39190a35b5050565b5f6020828403121562000135575f80fd5b81516001600160a01b03811681146200014c575f80fd5b9392505050565b6131ff80620001615f395ff3fe6080604052600436106101d0575f3560e01c806391d14854116100fd578063bc58645611610092578063de55278611610062578063de552786146105a1578063e15336f9146105c0578063f5b541a6146105d5578063f639771814610608575f80fd5b8063bc5864561461051b578063c49baebe1461053a578063c4a1894c1461056d578063d547741f14610582575f80fd5b8063a6a8f17b116100cd578063a6a8f17b14610491578063a903a5d9146104b0578063b3238978146104e9578063b7893ae9146104fc575f80fd5b806391d148541461041b578063985e98c71461044a578063a1b39b7f14610469578063a217fddf1461047e575f80fd5b806357711eff11610173578063616876701161014357806361687670146103855780636cfffa0a146103a457806372c6838f146103d057806382d2845b14610408575f80fd5b806357711eff146102fb578063585e6c1b146103285780635b3825fc146103475780635c0a62db14610366575f80fd5b80632f2ff15d116101ae5780632f2ff15d146102655780633129bf331461028657806334c3aa66146102b6578063476343ee146102e7575f80fd5b806302867e21146101d4578063210649e31461020e5780632ba36f781461022e575b5f80fd5b3480156101df575f80fd5b506101f36101ee366004612432565b610627565b60405161020596959493929190612496565b60405180910390f35b61022161021c3660046124ec565b61079f565b6040516102059190612565565b348015610239575f80fd5b5060015461024d906001600160a01b031681565b6040516001600160a01b039091168152602001610205565b348015610270575f80fd5b5061028461027f36600461258e565b610aa3565b005b348015610291575f80fd5b506102a56102a0366004612432565b610ad9565b6040516102059594939291906125f6565b3480156102c1575f80fd5b506102d56102d0366004612432565b610c55565b60405161020596959493929190612651565b3480156102f2575f80fd5b50610284610d1e565b348015610306575f80fd5b5061031a610315366004612697565b610e06565b604051908152602001610205565b348015610333575f80fd5b5061031a6103423660046126b7565b610e31565b348015610352575f80fd5b506102846103613660046127c8565b610e4a565b348015610371575f80fd5b50610284610380366004612819565b610f8a565b348015610390575f80fd5b5061028461039f366004612432565b610fda565b3480156103af575f80fd5b506103c36103be36600461283c565b611007565b6040516102059190612857565b3480156103db575f80fd5b506103ef6103ea366004612432565b611070565b6040516102059d9c9b9a999897969594939291906128bb565b61031a6104163660046129fb565b611343565b348015610426575f80fd5b5061043a61043536600461258e565b6116e5565b6040519015158152602001610205565b348015610455575f80fd5b506102846104643660046127c8565b61170f565b348015610474575f80fd5b5061031a60085481565b348015610489575f80fd5b5061031a5f81565b34801561049c575f80fd5b506102846104ab36600461258e565b611a37565b3480156104bb575f80fd5b5061043a6104ca36600461258e565b600660209081525f928352604080842090915290825290205460ff1681565b61031a6104f7366004612ab6565b611a9f565b348015610507575f80fd5b506103c3610516366004612432565b611ed3565b348015610526575f80fd5b5061028461053536600461258e565b611f30565b348015610545575f80fd5b5061031a7f21702c8af46127c7fa207f89d0b0a8441bb32959a0ac7df790e9ab1a25c9892681565b348015610578575f80fd5b5061031a60095481565b34801561058d575f80fd5b5061028461059c36600461258e565b611fc6565b3480156105ac575f80fd5b506102846105bb366004612432565b611ff7565b3480156105cb575f80fd5b5061031a600a5481565b3480156105e0575f80fd5b5061031a7f97667070c54ef182b0f5858b034beac1b6f3089aa2d3188bb1e8929f4fa9b92981565b348015610613575f80fd5b5061031a610622366004612432565b612024565b5f81815260026020819052604082206001810154918101546006820154600b8301546003840180548796606096879689968796929593946001600160a01b039092169392600587019260ff90911690849061068190612bbd565b80601f01602080910402602001604051908101604052809291908181526020018280546106ad90612bbd565b80156106f85780601f106106cf576101008083540402835291602001916106f8565b820191905f5260205f20905b8154815290600101906020018083116106db57829003601f168201915b5050505050935082805461070b90612bbd565b80601f016020809104026020016040519081016040528092919081815260200182805461073790612bbd565b80156107825780601f1061075957610100808354040283529160200191610782565b820191905f5260205f20905b81548152906001019060200180831161076557829003601f168201915b505050505092509650965096509650965096505091939550919395565b5f83815260026020526040902060018101546060919086146108085760405162461bcd60e51b815260206004820152601760248201527f4c6f5241206e6f7420666f722074686973206d6f64656c00000000000000000060448201526064015b60405180910390fd5b600b81015460ff1680610827575060028101546001600160a01b031633145b8061084a57505f85815260066020908152604080832033845290915290205460ff165b6108865760405162461bcd60e51b815260206004820152600d60248201526c2737903832b936b4b9b9b4b7b760991b60448201526064016107ff565b60015460405163043cf89360e31b8152600481018890525f916001600160a01b0316906321e7c498906024015f60405180830381865afa1580156108cc573d5f803e3d5ffd5b505050506040513d5f823e601f3d908101601f191682016040526108f39190810190612c5c565b505095505050505050803410156109435760405162461bcd60e51b8152602060048201526014602482015273125b9cdd59999a58da595b9d081c185e5b595b9d60621b60448201526064016107ff565b5f61095088888888612043565b90508115610a98575f6064610966846014612d49565b6109709190612d60565b90505f61097d8285612d7f565b60028601546040519192505f916001600160a01b039091169084908381818185875af1925050503d805f81146109ce576040519150601f19603f3d011682016040523d82523d5f602084013e6109d3565b606091505b5050905080610a1a5760405162461bcd60e51b8152602060048201526013602482015272131bd490481c185e5b595b9d0819985a5b1959606a1b60448201526064016107ff565b60015460405163bfaa984360e01b81526001600160a01b039091169063bfaa9843908490610a50908f908e908e90600401612dba565b5f6040518083038185885af1158015610a6b573d5f803e3d5ffd5b50505050506040513d5f823e601f3d908101601f19168201604052610a939190810190612ddc565b505050505b979650505050505050565b5f610aae81336116e5565b610aca5760405162461bcd60e51b81526004016107ff90612e29565b610ad48383612131565b505050565b5f8181526003602081815260408084209283015460078401546001850180548451818702810187019095528085526060978897909687968996929560028701946001600160a01b039094169360ff909116926005880192918791830182828015610b6057602002820191905f5260205f20905b815481526020019060010190808311610b4c575b5050505050945083805480602002602001604051908101604052809291908181526020018280548015610bb057602002820191905f5260205f20905b815481526020019060010190808311610b9c575b50505050509350808054610bc390612bbd565b80601f0160208091040260200160405190810160405280929190818152602001828054610bef90612bbd565b8015610c3a5780601f10610c1157610100808354040283529160200191610c3a565b820191905f5260205f20905b815481529060010190602001808311610c1d57829003601f168201915b50505050509050955095509550955095505091939590929450565b600360208190525f918252604090912080549181015460048201546005830180546001600160a01b03909316939192610c8d90612bbd565b80601f0160208091040260200160405190810160405280929190818152602001828054610cb990612bbd565b8015610d045780601f10610cdb57610100808354040283529160200191610d04565b820191905f5260205f20905b815481529060010190602001808311610ce757829003601f168201915b50505050600683015460079093015491929160ff16905086565b5f610d2981336116e5565b610d455760405162461bcd60e51b81526004016107ff90612e29565b4780610d7d5760405162461bcd60e51b81526020600482015260076024820152664e6f206665657360c81b60448201526064016107ff565b6040515f90339083908381818185875af1925050503d805f8114610dbc576040519150601f19603f3d011682016040523d82523d5f602084013e610dc1565b606091505b5050905080610ad45760405162461bcd60e51b815260206004820152601160248201527015da5d1a191c985dd85b0819985a5b1959607a1b60448201526064016107ff565b6005602052815f5260405f208181548110610e1f575f80fd5b905f5260205f20015f91509150505481565b6004602052815f5260405f208181548110610e1f575f80fd5b7f97667070c54ef182b0f5858b034beac1b6f3089aa2d3188bb1e8929f4fa9b929610e7581336116e5565b610e915760405162461bcd60e51b81526004016107ff90612e29565b5f838152600260208190526040909120908101546001600160a01b0316610eeb5760405162461bcd60e51b815260206004820152600e60248201526d131bd490481b9bdd08199bdd5b9960921b60448201526064016107ff565b806005018054610efa90612bbd565b159050610f3d5760405162461bcd60e51b8152602060048201526011602482015270105b1c9958591e4818dbdb5c1b195d1959607a1b60448201526064016107ff565b60058101610f4b8482612eb0565b50837fd20d5d36d1a7801d75ee97f4514a560d28d1099328c60318337765562dbf29e584604051610f7c9190612565565b60405180910390a250505050565b5f828152600260208190526040909120908101546001600160a01b03163314610fc55760405162461bcd60e51b81526004016107ff90612f70565b600b01805460ff191691151591909117905550565b5f610fe581336116e5565b6110015760405162461bcd60e51b81526004016107ff90612e29565b50600955565b6001600160a01b0381165f9081526004602090815260409182902080548351818402810184019094528084526060939283018282801561106457602002820191905f5260205f20905b815481526020019060010190808311611050575b50505050509050919050565b600260208190525f918252604090912080546001820154928201546003830180549294936001600160a01b03909216926110a990612bbd565b80601f01602080910402602001604051908101604052809291908181526020018280546110d590612bbd565b80156111205780601f106110f757610100808354040283529160200191611120565b820191905f5260205f20905b81548152906001019060200180831161110357829003601f168201915b50505050509080600401805461113590612bbd565b80601f016020809104026020016040519081016040528092919081815260200182805461116190612bbd565b80156111ac5780601f10611183576101008083540402835291602001916111ac565b820191905f5260205f20905b81548152906001019060200180831161118f57829003601f168201915b5050505050908060050180546111c190612bbd565b80601f01602080910402602001604051908101604052809291908181526020018280546111ed90612bbd565b80156112385780601f1061120f57610100808354040283529160200191611238565b820191905f5260205f20905b81548152906001019060200180831161121b57829003601f168201915b50505050509080600601549080600701549080600801549080600901549080600a01549080600b015f9054906101000a900460ff169080600c016040518060c00160405290815f820154815260200160018201548152602001600282015481526020016003820180546112aa90612bbd565b80601f01602080910402602001604051908101604052809291908181526020018280546112d690612bbd565b80156113215780601f106112f857610100808354040283529160200191611321565b820191905f5260205f20905b81548152906001019060200180831161130457829003601f168201915b505050505081526020016004820154815260200160058201548152505090508d565b5f60028451101561138e5760405162461bcd60e51b81526020600482015260156024820152744e656564206174206c656173742032204c6f52417360581b60448201526064016107ff565b82518451146113d15760405162461bcd60e51b815260206004820152600f60248201526e098cadccee8d040dad2e6dac2e8c6d608b1b60448201526064016107ff565b600a5434101561141c5760405162461bcd60e51b8152602060048201526016602482015275496e73756666696369656e74206d657267652066656560501b60448201526064016107ff565b60028211156114625760405162461bcd60e51b8152602060048201526012602482015271496e76616c6964206d65726765207479706560701b60448201526064016107ff565b5f60025f865f8151811061147857611478612f95565b602002602001015181526020019081526020015f206001015490505f805b86518110156115e8575f60025f8984815181106114b5576114b5612f95565b602002602001015181526020019081526020015f209050838160010154146115175760405162461bcd60e51b8152602060048201526015602482015274446966666572656e742062617365206d6f64656c7360581b60448201526064016107ff565b600b81015460ff1680611536575060028101546001600160a01b031633145b8061157c575060065f89848151811061155157611551612f95565b60209081029190910181015182528181019290925260409081015f90812033825290925290205460ff165b6115b85760405162461bcd60e51b815260206004820152600d60248201526c2737903832b936b4b9b9b4b7b760991b60448201526064016107ff565b8682815181106115ca576115ca612f95565b6020026020010151836115dd9190612fa9565b925050600101611496565b5080670de0b6b3a7640000146116385760405162461bcd60e51b815260206004820152601560248201527457656967687473206d7573742073756d20746f203160581b60448201526064016107ff565b5f338787426040516020016116509493929190612fbc565b60408051601f1981840301815291815281516020928301205f818152600384529190912081815589519193509161168e9160018401918b01906123d5565b5086516116a490600283019060208a01906123d5565b506003810180546001600160a01b031916331790556006810186905560078101805460ff191690556116d882898989612198565b50925050505b9392505050565b5f828152602081815260408083206001600160a01b038516845290915290205460ff165b92915050565b7f97667070c54ef182b0f5858b034beac1b6f3089aa2d3188bb1e8929f4fa9b92961173a81336116e5565b6117565760405162461bcd60e51b81526004016107ff90612e29565b5f838152600360208190526040909120908101546001600160a01b03166117b35760405162461bcd60e51b815260206004820152601160248201527014995c5d595cdd081b9bdd08199bdd5b99607a1b60448201526064016107ff565b600781015460ff16156117fc5760405162461bcd60e51b8152602060048201526011602482015270105b1c9958591e4818dbdb5c1b195d1959607a1b60448201526064016107ff565b5f8484604051602001611810929190613035565b60408051601f1981840301815291905280516020909101206004830181905590506005820161183f8582612eb0565b5060078201805460ff191660019081179091555f82815260026020819052604082208481559285018054919291829061187a5761187a612f95565b5f91825260208083209091015483528281019390935260409182019020600190810154908401556003808601546002850180546001600160a01b0319166001600160a01b039092169190911790558151808301909252600b82526a4d6572676564204c6f524160a81b92820192909252908201906118f89082612eb0565b5060408051808201909152601a81527f4d65726765642066726f6d206d756c7469706c65204c6f5241730000000000006020820152600482019061193c9082612eb0565b506005810161194b8682612eb0565b50426009820155600b8101805460ff1916905560038301546001600160a01b03165f90815260046020908152604080832080546001818101835591855283852001869055808501548452600583529083208054808301825590845291832090910184905560078054918201815582527fa66cc928b5edb82af9bd49922954155ab7b0942694bea4ce44661d9a8736c6880183905560088054916119ed8361305a565b9190505550857f3d16ff7ae1ff976bf3e2d008547dc79e16bc788a4063f051d05639b0d178fecc8460010184604051611a27929190613072565b60405180910390a2505050505050565b5f828152600260208190526040909120908101546001600160a01b03163314611a725760405162461bcd60e51b81526004016107ff90612f70565b505f9182526006602090815260408084206001600160a01b0390931684529190529020805460ff19169055565b60015460405163043cf89360e31b8152600481018990525f9182916001600160a01b03909116906321e7c498906024015f60405180830381865afa158015611ae9573d5f803e3d5ffd5b505050506040513d5f823e601f3d908101601f19168201604052611b109190810190612c5c565b50959650506001600160a01b0386169450611b6993505050505760405162461bcd60e51b815260206004820152601460248201527310985cd9481b5bd9195b081b9bdd08199bdd5b9960621b60448201526064016107ff565b6001546040516328545c0d60e01b8152600481018b90523360248201526001600160a01b03909116906328545c0d90604401602060405180830381865afa158015611bb6573d5f803e3d5ffd5b505050506040513d601f19601f82011682018060405250810190611bda91906130c4565b611c265760405162461bcd60e51b815260206004820152601c60248201527f4e6f207065726d697373696f6e20666f722062617365206d6f64656c0000000060448201526064016107ff565b60095483515f91611c3691612d49565b905080341015611c885760405162461bcd60e51b815260206004820152601960248201527f496e73756666696369656e7420747261696e696e67206665650000000000000060448201526064016107ff565b5f338b8b42600854604051602001611ca49594939291906130df565b60408051601f1981840301815291815281516020928301205f81815260029384905291909120818155600181018e905591820180546001600160a01b03191633179055915060038101611cf78c82612eb0565b5060048101611d068b82612eb0565b50600681018990556007810188905560088101879055426009820155600a8101839055600b8101805460ff191690558551600c82019081556020870151600d8301556040870151600e8301556060870151879190600f840190611d699082612eb0565b506080820151816004015560a0820151816005015590505060045f336001600160a01b03166001600160a01b031681526020019081526020015f2082908060018154018082558091505060019003905f5260205f20015f909190919091505560055f8d81526020019081526020015f2082908060018154018082558091505060019003905f5260205f20015f9091909190915055600782908060018154018082558091505060019003905f5260205f20015f909190919091505560085f815480929190611e359061305a565b9190505550611e448287612280565b336001600160a01b03168c837fa43ddf6f0bc56d68b8458660cb01cafecedccc5ce0fc83450c72d4b64be1dae58e604051611e7f9190612565565b60405180910390a48551604080519182526020820185905283917f87f1cf9ea1211176606c344b1e27b04f635d1c80f45bee9923cb8f7ff297b450910160405180910390a2509a9950505050505050505050565b5f8181526005602090815260409182902080548351818402810184019094528084526060939283018282801561106457602002820191905f5260205f20908154815260200190600101908083116110505750505050509050919050565b5f828152600260208190526040909120908101546001600160a01b03163314611f6b5760405162461bcd60e51b81526004016107ff90612f70565b5f8381526006602090815260408083206001600160a01b0386168085529252808320805460ff1916600117905551909185917f6f5b794a7ab7ff229b8295cd19ae4b5c92bce69238df1ad84eb47f9c9dcd4cd39190a3505050565b5f611fd181336116e5565b611fed5760405162461bcd60e51b81526004016107ff90612e29565b610ad48383612371565b5f61200281336116e5565b61201e5760405162461bcd60e51b81526004016107ff90612e29565b50600a55565b60078181548110612033575f80fd5b5f91825260209091200154905081565b60605f806110016001600160a01b03168787878760405160240161206a9493929190613129565b60408051601f198184030181529181526020820180516001600160e01b0316635c535b3560e01b1790525161209f9190613148565b5f604051808303815f865af19150503d805f81146120d8576040519150601f19603f3d011682016040523d82523d5f602084013e6120dd565b606091505b5091509150816121275760405162461bcd60e51b8152602060048201526015602482015274131bd490481a5b99995c995b98d94819985a5b1959605a1b60448201526064016107ff565b9695505050505050565b61213b82826116e5565b612194575f828152602081815260408083206001600160a01b0385168085529252808320805460ff1916600117905551909184917f2ae6a113c0ed5b78a53413ffbb7679881f11145ccfba4fb92e863dfcd5a1d2f39190a35b5050565b5f6110016001600160a01b0316858585856040516024016121bc9493929190613163565b60408051601f198184030181529181526020820180516001600160e01b0316631b587aaf60e11b179052516121f19190613148565b5f604051808303815f865af19150503d805f811461222a576040519150601f19603f3d011682016040523d82523d5f602084013e61222f565b606091505b50509050806122795760405162461bcd60e51b815260206004820152601660248201527513595c99d948195e1958dd5d1a5bdb8819985a5b195960521b60448201526064016107ff565b5050505050565b5f6110016001600160a01b031683835f01518460200151856040015186606001516040516024016122b595949392919061319f565b60408051601f198184030181529181526020820180516001600160e01b03166395fcb08560e01b179052516122ea9190613148565b5f604051808303815f865af19150503d805f8114612323576040519150601f19603f3d011682016040523d82523d5f602084013e612328565b606091505b5050905080610ad45760405162461bcd60e51b8152602060048201526015602482015274151c985a5b9a5b99c81cdd185c9d0819985a5b1959605a1b60448201526064016107ff565b61237b82826116e5565b15612194575f828152602081815260408083206001600160a01b0385168085529252808320805460ff1916905551909184917f155aaafb6329a2098580462df33ec4b7441b19729b9601c5fc17ae1cf99a8a529190a35050565b828054828255905f5260205f2090810192821561240e579160200282015b8281111561240e5782518255916020019190600101906123f3565b5061241a92915061241e565b5090565b5b8082111561241a575f815560010161241f565b5f60208284031215612442575f80fd5b5035919050565b5f5b8381101561246357818101518382015260200161244b565b50505f910152565b5f8151808452612482816020860160208601612449565b601f01601f19169290920160200192915050565b8681526001600160a01b038616602082015260c0604082018190525f906124bf9083018761246b565b82810360608401526124d1818761246b565b6080840195909552505090151560a090910152949350505050565b5f805f80606085870312156124ff575f80fd5b8435935060208501359250604085013567ffffffffffffffff80821115612524575f80fd5b818701915087601f830112612537575f80fd5b813581811115612545575f80fd5b886020828501011115612556575f80fd5b95989497505060200194505050565b602081525f6116de602083018461246b565b6001600160a01b038116811461258b575f80fd5b50565b5f806040838503121561259f575f80fd5b8235915060208301356125b181612577565b809150509250929050565b5f815180845260208085019450602084015f5b838110156125eb578151875295820195908201906001016125cf565b509495945050505050565b60a081525f61260860a08301886125bc565b828103602084015261261a81886125bc565b6001600160a01b0387166040850152851515606085015283810360808501529050612645818561246b565b98975050505050505050565b86815260018060a01b038616602082015284604082015260c060608201525f61267d60c083018661246b565b60808301949094525090151560a090910152949350505050565b5f80604083850312156126a8575f80fd5b50508035926020909101359150565b5f80604083850312156126c8575f80fd5b82356126d381612577565b946020939093013593505050565b634e487b7160e01b5f52604160045260245ffd5b60405160c0810167ffffffffffffffff81118282101715612718576127186126e1565b60405290565b604051601f8201601f1916810167ffffffffffffffff81118282101715612747576127476126e1565b604052919050565b5f67ffffffffffffffff821115612768576127686126e1565b50601f01601f191660200190565b5f82601f830112612785575f80fd5b81356127986127938261274f565b61271e565b8181528460208386010111156127ac575f80fd5b816020850160208301375f918101602001919091529392505050565b5f80604083850312156127d9575f80fd5b82359150602083013567ffffffffffffffff8111156127f6575f80fd5b61280285828601612776565b9150509250929050565b801515811461258b575f80fd5b5f806040838503121561282a575f80fd5b8235915060208301356125b18161280c565b5f6020828403121561284c575f80fd5b81356116de81612577565b602081525f6116de60208301846125bc565b8051825260208101516020830152604081015160408301525f606082015160c0606085015261289b60c085018261246b565b90506080830151608085015260a083015160a08501528091505092915050565b5f6101a08f83528e60208401526128dd604084018f6001600160a01b03169052565b8060608401526128ef8184018e61246b565b90508281036080840152612903818d61246b565b905082810360a0840152612917818c61246b565b90508960c08401528860e084015287610100840152866101208401528561014084015261294961016084018615159052565b82810361018084015261295c8185612869565b9150509e9d5050505050505050505050505050565b5f67ffffffffffffffff82111561298a5761298a6126e1565b5060051b60200190565b5f82601f8301126129a3575f80fd5b813560206129b361279383612971565b8083825260208201915060208460051b8701019350868411156129d4575f80fd5b602086015b848110156129f057803583529183019183016129d9565b509695505050505050565b5f805f60608486031215612a0d575f80fd5b833567ffffffffffffffff80821115612a24575f80fd5b818601915086601f830112612a37575f80fd5b81356020612a4761279383612971565b82815260059290921b8401810191818101908a841115612a65575f80fd5b948201945b83861015612a8357853582529482019490820190612a6a565b97505087013592505080821115612a98575f80fd5b50612aa586828701612994565b925050604084013590509250925092565b5f805f805f805f60e0888a031215612acc575f80fd5b87359650602088013567ffffffffffffffff80821115612aea575f80fd5b612af68b838c01612776565b975060408a0135915080821115612b0b575f80fd5b612b178b838c01612776565b965060608a0135955060808a0135945060a08a0135935060c08a0135915080821115612b41575f80fd5b9089019060c0828c031215612b54575f80fd5b612b5c6126f5565b823581526020830135602082015260408301356040820152606083013582811115612b85575f80fd5b612b918d828601612776565b6060830152506080830135608082015260a083013560a082015280935050505092959891949750929550565b600181811c90821680612bd157607f821691505b602082108103612bef57634e487b7160e01b5f52602260045260245ffd5b50919050565b8051612c0081612577565b919050565b5f612c126127938461274f565b9050828152838383011115612c25575f80fd5b6116de836020830184612449565b5f82601f830112612c42575f80fd5b6116de83835160208501612c05565b8051612c008161280c565b5f805f805f805f80610100898b031215612c74575f80fd5b612c7d89612bf5565b9750602089015167ffffffffffffffff80821115612c99575f80fd5b612ca58c838d01612c33565b985060408b0151915080821115612cba575f80fd5b612cc68c838d01612c33565b975060608b0151915080821115612cdb575f80fd5b612ce78c838d01612c33565b965060808b0151915080821115612cfc575f80fd5b50612d098b828c01612c33565b94505060a0890151925060c08901519150612d2660e08a01612c51565b90509295985092959890939650565b634e487b7160e01b5f52601160045260245ffd5b808202811582820484141761170957611709612d35565b5f82612d7a57634e487b7160e01b5f52601260045260245ffd5b500490565b8181038181111561170957611709612d35565b81835281816020850137505f828201602090810191909152601f909101601f19169091010190565b838152604060208201525f612dd3604083018486612d92565b95945050505050565b5f60208284031215612dec575f80fd5b815167ffffffffffffffff811115612e02575f80fd5b8201601f81018413612e12575f80fd5b612e2184825160208401612c05565b949350505050565b60208082526023908201527f416363657373436f6e74726f6c3a206163636f756e74206d697373696e6720726040820152626f6c6560e81b606082015260800190565b601f821115610ad457805f5260205f20601f840160051c81016020851015612e915750805b601f840160051c820191505b81811015612279575f8155600101612e9d565b815167ffffffffffffffff811115612eca57612eca6126e1565b612ede81612ed88454612bbd565b84612e6c565b602080601f831160018114612f11575f8415612efa5750858301515b5f19600386901b1c1916600185901b178555612f68565b5f85815260208120601f198616915b82811015612f3f57888601518255948401946001909101908401612f20565b5085821015612f5c57878501515f19600388901b60f8161c191681555b505060018460011b0185555b505050505050565b6020808252600b908201526a2737ba1031b932b0ba37b960a91b604082015260600190565b634e487b7160e01b5f52603260045260245ffd5b8082018082111561170957611709612d35565b6bffffffffffffffffffffffff198560601b1681525f60148201855160208088015f5b83811015612ffb57815185529382019390820190600101612fdf565b505086518188019392505f5b8181101561302357845184529382019392820192600101613007565b50509481529093019695505050505050565b8281525f825161304c816020850160208701612449565b919091016020019392505050565b5f6001820161306b5761306b612d35565b5060010190565b5f6040820160408352808554808352606085019150865f526020925060205f205f5b828110156130b057815484529284019260019182019101613094565b505050602093909301939093525092915050565b5f602082840312156130d4575f80fd5b81516116de8161280c565b6bffffffffffffffffffffffff198660601b1681528460148201525f845161310e816034850160208901612449565b90910160348101939093525060548201526074019392505050565b848152836020820152606060408201525f612127606083018486612d92565b5f8251613159818460208701612449565b9190910192915050565b848152608060208201525f61317b60808301866125bc565b828103604084015261318d81866125bc565b91505082606083015295945050505050565b85815284602082015283604082015282606082015260a060808201525f610a9860a083018461246b56fea2646970667358221220c9f31d1280dcc5ab629a7bec48cb56829c1d5f5f347ad561513ba049a04de1da64736f6c63430008180033","linkReferences":{}},"methodIdentifiers":{"DEFAULT_ADMIN_ROLE()":"a217fddf","OPERATOR_ROLE()":"f5b541a6","VALIDATOR_ROLE()":"c49baebe","adapterPermissions(bytes32,address)":"a903a5d9","adapters(bytes32)":"72c6838f","allAdapterHashes(uint256)":"f6397718","completeMerge(bytes32,string)":"985e98c7","completeTraining(bytes32,string)":"5b3825fc","createLoRA(bytes32,string,string,uint256,uint256,uint256,(uint256,uint256,uint256,string,uint256,uint256))":"b3238978","getLoRA(bytes32)":"02867e21","getMergeRequest(bytes32)":"3129bf33","getModelLoRAs(bytes32)":"b7893ae9","getUserLoRAs(address)":"6cfffa0a","grantPermission(bytes32,address)":"bc586456","grantRole(bytes32,address)":"2f2ff15d","hasRole(bytes32,address)":"91d14854","inferWithLoRA(bytes32,bytes32,bytes)":"210649e3","mergeFee()":"e15336f9","mergeLoRAs(bytes32[],uint256[],uint256)":"82d2845b","mergeRequests(bytes32)":"34c3aa66","modelAdapters(bytes32,uint256)":"57711eff","modelRegistry()":"2ba36f78","revokePermission(bytes32,address)":"a6a8f17b","revokeRole(bytes32,address)":"d547741f","setMergeFee(uint256)":"de552786","setPublicStatus(bytes32,bool)":"5c0a62db","setTrainingFee(uint256)":"61687670","totalAdapters()":"a1b39b7f","trainingFeePerEpoch()":"c4a1894c","userAdapters(address,uint256)":"585e6c1b","withdrawFees()":"476343ee"},"id":28}