{"abi":[{"type":"constructor","inputs":[{"name":"_modelRegistry","type":"address","internalType":"address"}],"stateMutability":"nonpayable"},{"type":"function","name":"DEFAULT_ADMIN_ROLE","inputs":[],"outputs":[{"name":"","type":"bytes32","internalType":"bytes32"}],"stateMutability":"view"},{"type":"function","name":"OPERATOR_ROLE","inputs":[],"outputs":[{"name":"","type":"bytes32","internalType":"bytes32"}],"stateMutability":"view"},{"type":"function","name":"VALIDATOR_ROLE","inputs":[],"outputs":[{"name":"","type":"bytes32","internalType":"bytes32"}],"stateMutability":"view"},{"type":"function","name":"adapterPermissions","inputs":[{"name":"","type":"bytes32","internalType":"bytes32"},{"name":"","type":"address","internalType":"address"}],"outputs":[{"name":"","type":"bool","internalType":"bool"}],"stateMutability":"view"},{"type":"function","name":"adapters","inputs":[{"name":"","type":"bytes32","internalType":"bytes32"}],"outputs":[{"name":"loraHash","type":"bytes32","internalType":"bytes32"},{"name":"baseModelHash","type":"bytes32","internalType":"bytes32"},{"name":"creator","type":"address","internalType":"address"},{"name":"name","type":"string","internalType":"string"},{"name":"description","type":"string","internalType":"string"},{"name":"ipfsCID","type":"string","internalType":"string"},{"name":"rank","type":"uint256","internalType":"uint256"},{"name":"alpha","type":"uint256","internalType":"uint256"},{"name":"dropout","type":"uint256","internalType":"uint256"},{"name":"createdAt","type":"uint256","internalType":"uint256"},{"name":"trainingCost","type":"uint256","internalType":"uint256"},{"name":"isPublic","type":"bool","internalType":"bool"},{"name":"config","type":"tuple","internalType":"struct LoRAFactory.TrainingConfig","components":[{"name":"epochs","type":"uint256","internalType":"uint256"},{"name":"batchSize","type":"uint256","internalType":"uint256"},{"name":"learningRate","type":"uint256","internalType":"uint256"},{"name":"datasetCID","type":"string","internalType":"string"},{"name":"datasetSize","type":"uint256","internalType":"uint256"},{"name":"validationSplit","type":"uint256","internalType":"uint256"}]}],"stateMutability":"view"},{"type":"function","name":"allAdapterHashes","inputs":[{"name":"","type":"uint256","internalType":"uint256"}],"outputs":[{"name":"","type":"bytes32","internalType":"bytes32"}],"stateMutability":"view"},{"type":"function","name":"completeMerge","inputs":[{"name":"requestHash","type":"bytes32","internalType":"bytes32"},{"name":"resultCID","type":"string","internalType":"string"}],"outputs":[],"stateMutability":"nonpayable"},{"type":"function","name":"completeTraining","inputs":[{"name":"loraHash","type":"bytes32","internalType":"bytes32"},{"name":"ipfsCID","type":"string","internalType":"string"}],"outputs":[],"stateMutability":"nonpayable"},{"type":"function","name":"createLoRA","inputs":[{"name":"baseModelHash","type":"bytes32","internalType":"bytes32"},{"name":"name","type":"string","internalType":"string"},{"name":"description","type":"string","internalType":"string"},{"name":"rank","type":"uint256","internalType":"uint256"},{"name":"alpha","type":"uint256","internalType":"uint256"},{"name":"dropout","type":"uint256","internalType":"uint256"},{"name":"config","type":"tuple","internalType":"struct LoRAFactory.TrainingConfig","components":[{"name":"epochs","type":"uint256","internalType":"uint256"},{"name":"batchSize","type":"uint256","internalType":"uint256"},{"name":"learningRate","type":"uint256","internalType":"uint256"},{"name":"datasetCID","type":"string","internalType":"string"},{"name":"datasetSize","type":"uint256","internalType":"uint256"},{"name":"validationSplit","type":"uint256","internalType":"uint256"}]}],"outputs":[{"name":"","type":"bytes32","internalType":"bytes32"}],"stateMutability":"payable"},{"type":"function","name":"getLoRA","inputs":[{"name":"loraHash","type":"bytes32","internalType":"bytes32"}],"outputs":[{"name":"baseModelHash","type":"bytes32","internalType":"bytes32"},{"name":"creator","type":"address","internalType":"address"},{"name":"name","type":"string","internalType":"string"},{"name":"ipfsCID","type":"string","internalType":"string"},{"name":"rank","type":"uint256","internalType":"uint256"},{"name":"isPublic","type":"bool","internalType":"bool"}],"stateMutability":"view"},{"type":"function","name":"getMergeRequest","inputs":[{"name":"requestHash","type":"bytes32","internalType":"bytes32"}],"outputs":[{"name":"loraHashes","type":"bytes32[]","internalType":"bytes32[]"},{"name":"weights","type":"uint256[]","internalType":"uint256[]"},{"name":"requester","type":"address","internalType":"address"},{"name":"completed","type":"bool","internalType":"bool"},{"name":"resultCID","type":"string","internalType":"string"}],"stateMutability":"view"},{"type":"function","name":"getModelLoRAs","inputs":[{"name":"modelHash","type":"bytes32","internalType":"bytes32"}],"outputs":[{"name":"","type":"bytes32[]","internalType":"bytes32[]"}],"stateMutability":"view"},{"type":"function","name":"getUserLoRAs","inputs":[{"name":"user","type":"address","internalType":"address"}],"outputs":[{"name":"","type":"bytes32[]","internalType":"bytes32[]"}],"stateMutability":"view"},{"type":"function","name":"grantPermission","inputs":[{"name":"loraHash","type":"bytes32","internalType":"bytes32"},{"name":"user","type":"address","internalType":"address"}],"outputs":[],"stateMutability":"nonpayable"},{"type":"function","name":"grantRole","inputs":[{"name":"role","type":"bytes32","internalType":"bytes32"},{"name":"account","type":"address","internalType":"address"}],"outputs":[],"stateMutability":"nonpayable"},{"type":"function","name":"hasRole","inputs":[{"name":"role","type":"bytes32","internalType":"bytes32"},{"name":"account","type":"address","internalType":"address"}],"outputs":[{"name":"","type":"bool","internalType":"bool"}],"stateMutability":"view"},{"type":"function","name":"inferWithLoRA","inputs":[{"name":"baseModelHash","type":"bytes32","internalType":"bytes32"},{"name":"loraHash","type":"bytes32","internalType":"bytes32"},{"name":"inputData","type":"bytes","internalType":"bytes"}],"outputs":[{"name":"","type":"bytes","internalType":"bytes"}],"stateMutability":"payable"},{"type":"function","name":"mergeFee","inputs":[],"outputs":[{"name":"","type":"uint256","internalType":"uint256"}],"stateMutability":"view"},{"type":"function","name":"mergeLoRAs","inputs":[{"name":"loraHashes","type":"bytes32[]","internalType":"bytes32[]"},{"name":"weights","type":"uint256[]","internalType":"uint256[]"},{"name":"mergeType","type":"uint256","internalType":"uint256"}],"outputs":[{"name":"","type":"bytes32","internalType":"bytes32"}],"stateMutability":"payable"},{"type":"function","name":"mergeRequests","inputs":[{"name":"","type":"bytes32","internalType":"bytes32"}],"outputs":[{"name":"requestHash","type":"bytes32","internalType":"bytes32"},{"name":"requester","type":"address","internalType":"address"},{"name":"resultHash","type":"bytes32","internalType":"bytes32"},{"name":"resultCID","type":"string","internalType":"string"},{"name":"mergeType","type":"uint256","internalType":"uint256"},{"name":"completed","type":"bool","internalType":"bool"}],"stateMutability":"view"},{"type":"function","name":"modelAdapters","inputs":[{"name":"","type":"bytes32","internalType":"bytes32"},{"name":"","type":"uint256","internalType":"uint256"}],"outputs":[{"name":"","type":"bytes32","internalType":"bytes32"}],"stateMutability":"view"},{"type":"function","name":"modelRegistry","inputs":[],"outputs":[{"name":"","type":"address","internalType":"contract IModelRegistry"}],"stateMutability":"view"},{"type":"function","name":"revokePermission","inputs":[{"name":"loraHash","type":"bytes32","internalType":"bytes32"},{"name":"user","type":"address","internalType":"address"}],"outputs":[],"stateMutability":"nonpayable"},{"type":"function","name":"revokeRole","inputs":[{"name":"role","type":"bytes32","internalType":"bytes32"},{"name":"account","type":"address","internalType":"address"}],"outputs":[],"stateMutability":"nonpayable"},{"type":"function","name":"setMergeFee","inputs":[{"name":"newFee","type":"uint256","internalType":"uint256"}],"outputs":[],"stateMutability":"nonpayable"},{"type":"function","name":"setPublicStatus","inputs":[{"name":"loraHash","type":"bytes32","internalType":"bytes32"},{"name":"isPublic","type":"bool","internalType":"bool"}],"outputs":[],"stateMutability":"nonpayable"},{"type":"function","name":"setTrainingFee","inputs":[{"name":"newFee","type":"uint256","internalType":"uint256"}],"outputs":[],"stateMutability":"nonpayable"},{"type":"function","name":"totalAdapters","inputs":[],"outputs":[{"name":"","type":"uint256","internalType":"uint256"}],"stateMutability":"view"},{"type":"function","name":"trainingFeePerEpoch","inputs":[],"outputs":[{"name":"","type":"uint256","internalType":"uint256"}],"stateMutability":"view"},{"type":"function","name":"userAdapters","inputs":[{"name":"","type":"address","internalType":"address"},{"name":"","type":"uint256","internalType":"uint256"}],"outputs":[{"name":"","type":"bytes32","internalType":"bytes32"}],"stateMutability":"view"},{"type":"function","name":"withdrawFees","inputs":[],"outputs":[],"stateMutability":"nonpayable"},{"type":"event","name":"LoRACreated","inputs":[{"name":"loraHash","type":"bytes32","indexed":true,"internalType":"bytes32"},{"name":"baseModelHash","type":"bytes32","indexed":true,"internalType":"bytes32"},{"name":"creator","type":"address","indexed":true,"internalType":"address"},{"name":"name","type":"string","indexed":false,"internalType":"string"}],"anonymous":false},{"type":"event","name":"LoRAMerged","inputs":[{"name":"requestHash","type":"bytes32","indexed":true,"internalType":"bytes32"},{"name":"loraHashes","type":"bytes32[]","indexed":false,"internalType":"bytes32[]"},{"name":"resultHash","type":"bytes32","indexed":false,"internalType":"bytes32"}],"anonymous":false},{"type":"event","name":"PermissionGranted","inputs":[{"name":"loraHash","type":"bytes32","indexed":true,"internalType":"bytes32"},{"name":"user","type":"address","indexed":true,"internalType":"address"}],"anonymous":false},{"type":"event","name":"RoleGranted","inputs":[{"name":"role","type":"bytes32","indexed":true,"internalType":"bytes32"},{"name":"account","type":"address","indexed":true,"internalType":"address"}],"anonymous":false},{"type":"event","name":"RoleRevoked","inputs":[{"name":"role","type":"bytes32","indexed":true,"internalType":"bytes32"},{"name":"account","type":"address","indexed":true,"internalType":"address"}],"anonymous":false},{"type":"event","name":"TrainingCompleted","inputs":[{"name":"loraHash","type":"bytes32","indexed":true,"internalType":"bytes32"},{"name":"ipfsCID","type":"string","indexed":false,"internalType":"string"}],"anonymous":false},{"type":"event","name":"TrainingStarted","inputs":[{"name":"loraHash","type":"bytes32","indexed":true,"internalType":"bytes32"},{"name":"epochs","type":"uint256","indexed":false,"internalType":"uint256"},{"name":"cost","type":"uint256","indexed":false,"internalType":"uint256"}],"anonymous":false}],"bytecode":{"object":"0x6080346200015857601f62002a9838819003918201601f1916830192916001600160401b038411838510176200015c57808392604095865283396020928391810103126200015857516001600160a01b038116908190036200015857662386f26fc1000060095566b1a2bc2ec50000600a5560018060a01b031960015416176001555f80525f8152815f20335f52815260ff825f2054161562000122575b7f97667070c54ef182b0f5858b034beac1b6f3089aa2d3188bb1e8929f4fa9b92990815f525f8152825f20335f52815260ff835f20541615620000ea575b82516129079081620001718239f35b815f525f8152825f2090335f5252815f20600160ff1982541617905533905f8051602062002a788339815191525f80a35f80620000db565b5f80525f8152815f20335f528152815f20600160ff19825416179055335f5f8051602062002a788339815191528180a36200009d565b5f80fd5b634e487b7160e01b5f52604160045260245ffdfe60806040526004361015610011575f80fd5b5f3560e01c806302867e21146121e3578063210649e314611e7c5780632ba36f7814611e545780632f2ff15d14611d9d5780633129bf3314611cc057806334c3aa6614611c3b578063476343ee14611b7d57806357711eff14611b46578063585e6c1b14611aef5780635b3825fc1461191d5780635c0a62db146118c657806361687670146118865780636cfffa0a1461184e57806372c6838f146116b957806382d2845b146110f457806391d14854146110ac578063985e98c714610ca1578063a1b39b7f14610c84578063a217fddf14610c6a578063a6a8f17b14610c07578063a903a5d914610bbe578063b32389781461042f578063b7893ae9146103ed578063bc58645614610363578063c49baebe14610329578063c4a1894c1461030c578063d547741f14610259578063de55278614610219578063e15336f9146101fc578063f5b541a6146101c25763f63977181461016e575f80fd5b346101be5760203660031901126101be576004356007548110156101be5760209060075f527fa66cc928b5edb82af9bd49922954155ab7b0942694bea4ce44661d9a8736c6880154604051908152f35b5f80fd5b346101be575f3660031901126101be5760206040517f97667070c54ef182b0f5858b034beac1b6f3089aa2d3188bb1e8929f4fa9b9298152f35b346101be575f3660031901126101be576020600a54604051908152f35b346101be5760203660031901126101be57335f9081525f805160206128b283398151915260205260409020546102519060ff16612675565b600435600a55005b346101be5760403660031901126101be576004356102756122b5565b335f9081525f805160206128b283398151915260209081526040909120549192916102a29060ff16612675565b5f82815280825260408082206001600160a01b0390951680835294835290205460ff166102cb57005b815f525f815260405f2090835f525260405f2060ff1981541690557f155aaafb6329a2098580462df33ec4b7441b19729b9601c5fc17ae1cf99a8a525f80a3005b346101be575f3660031901126101be576020600954604051908152f35b346101be575f3660031901126101be5760206040517f21702c8af46127c7fa207f89d0b0a8441bb32959a0ac7df790e9ab1a25c989268152f35b346101be5760403660031901126101be5760043561037f6122b5565b90805f52600260205260018060a01b036103a381600260405f2001541633146127da565b815f52600660205260405f20921691825f5260205260405f20600160ff198254161790557f6f5b794a7ab7ff229b8295cd19ae4b5c92bce69238df1ad84eb47f9c9dcd4cd35f80a3005b346101be5760203660031901126101be576004355f52600560205261042b61041760405f206126cd565b6040519182916020835260208301906122e1565b0390f35b60031960e0368201126101be576024356001600160401b0381116101be5761045b90369060040161245a565b6044356001600160401b0381116101be5761047a90369060040161245a565b9060c435926001600160401b0384116101be5760c09084360301126101be57604051926104a68461234c565b8060040135845260248101356020850152604481013560408501526064810135906001600160401b0382116101be576104e760a4926004369184010161245a565b606086015260848101356080860152013560a084015260015460405163043cf89360e31b815260048035908201526001600160a01b0391821691905f81602481865afa908115610b4e575f91610b95575b501615610b59576020604491604051928380926328545c0d60e01b825260043560048301523360248301525afa908115610b4e575f91610b14575b5015610acf57825192600954918483810204831485151715610abb578285023410610a76576008546040516105e660948260208101943360601b8652600435603483015286516105ca816054850160208b0161226f565b8201904260548301526074820152036074810184520182612367565b51902093845f52600260205260405f2090858255600435600183015560028201336001600160601b0360a01b82541617905582516001600160401b03811161097557610642816106396003860154612314565b60038601612797565b806020601f8211600114610a0d575f91610a02575b508160011b915f199060031b1c19161760038301555b8051906001600160401b03821161097557819061069a826106916004870154612314565b60048701612797565b602090601f8311600114610994575f92610989575b50508160011b915f199060031b1c19161760048201555b6064356006820155608435600782015560a4356008820155426009820155858402600a820155600b8101805460ff191690558251600c8201556020830151600d8201556040830151600e82015560608301518051906001600160401b0382116109755781906107458261073c600f870154612314565b600f8701612797565b602090601f8311600114610907575f926108fc575b50508160011b915f199060031b1c191617600f8201555b60808301516010820155601160a0840151910155335f52600460205261079a8460405f2061286f565b6004355f5260056020526107b18460405f2061286f565b6107ba84612828565b6107c56008546128a3565b6008555f8085845161082c60208701519161081e604089015160608a01519060405195869460208601986395fcb08560e01b8a52602487015260448601526064850152608484015260a060a484015260c4830190612290565b03601f198101835282612367565b5190826110015af161083c612626565b50156108bf5760209484937f87f1cf9ea1211176606c344b1e27b04f635d1c80f45bee9923cb8f7ff297b45093604093845190898252877fa43ddf6f0bc56d68b8458660cb01cafecedccc5ce0fc83450c72d4b64be1dae53393806108a7600435958f830190612290565b0390a4519183519283520286820152a2604051908152f35b60405162461bcd60e51b8152602060048201526015602482015274151c985a5b9a5b99c81cdd185c9d0819985a5b1959605a1b6044820152606490fd5b01519050888061075a565b9250600f84015f5260205f20905f935b601f198416851061095a576001945083601f19811610610942575b505050811b01600f820155610771565b01515f1960f88460031b161c19169055888080610932565b81810151835560209485019460019093019290910190610917565b634e487b7160e01b5f52604160045260245ffd5b0151905088806106af565b9250600484015f5260205f20905f935b601f19841685106109e7576001945083601f198116106109cf575b505050811b0160048201556106c6565b01515f1960f88460031b161c191690558880806109bf565b818101518355602094850194600190930192909101906109a4565b905084015189610657565b9150600384015f5260205f205f925b601f1983168410610a5e576001935082601f19811610610a46575b5050811b01600383015561066d565b8601515f1960f88460031b161c191690558980610a37565b86810151825560209384019360019092019101610a1c565b60405162461bcd60e51b815260206004820152601960248201527f496e73756666696369656e7420747261696e696e6720666565000000000000006044820152606490fd5b634e487b7160e01b5f52601160045260245ffd5b60405162461bcd60e51b815260206004820152601c60248201527f4e6f207065726d697373696f6e20666f722062617365206d6f64656c000000006044820152606490fd5b90506020813d602011610b46575b81610b2f60209383612367565b810103126101be57610b4090612574565b84610573565b3d9150610b22565b6040513d5f823e3d90fd5b60405162461bcd60e51b815260206004820152601460248201527310985cd9481b5bd9195b081b9bdd08199bdd5b9960621b6044820152606490fd5b610bb191503d805f833e610ba98183612367565b810190612581565b5050505050505086610538565b346101be5760403660031901126101be57610bd76122b5565b6004355f52600660205260405f209060018060a01b03165f52602052602060ff60405f2054166040519015158152f35b346101be5760403660031901126101be57600435610c236122b5565b90805f52600260205260018060a01b0390610c4882600260405f2001541633146127da565b5f52600660205260405f2091165f5260205260405f2060ff1981541690555f80f35b346101be575f3660031901126101be5760206040515f8152f35b346101be575f3660031901126101be576020600854604051908152f35b346101be57610caf366124a0565b335f9081527fee57cd81e84075558e8fcc182a1f4393f91fc97f963a136e66b7f949a62f319f6020908152604090912054919291610cef9060ff16612675565b815f526003815260405f2090600382019060018060a01b038083541615611073576007840190610d2360ff8354161561271b565b60405183810190878252610d556040828b610d46815180928b868601910161226f565b81010387810184520182612367565b5190209384600487015560058601928851936001600160401b039485811161097557610d8b81610d858454612314565b84612797565b8087601f821160011461100f575f91611004575b508160011b915f199060031b1c19161790555b60019660ff19918883825416179055865f52600286528760405f209188835501998a5415610ff0578a5f52865f20545f52600287528860405f200154958983019687558585541660028401906001600160601b0360a01b82541617905560038301610e26610e208254612314565b82612771565b60166a4d6572676564204c6f524160a81b01905560048301610e4b610e208254612314565b7f4d65726765642066726f6d206d756c7469706c65204c6f5241730000000000349055815160058401929091821161097557610e9182610e8b8554612314565b85612797565b8890601f8311600114610f7f57600b949392915f9183610f74575b50505f19600383901b1c1916908b1b1790555b4260098201550190815416905554165f5260048252610ee18360405f2061286f565b545f5260058152610ef58260405f2061286f565b610efe82612828565b610f096008546128a3565b60085560405192604084019060408552865480925260608501965f52825f20915f5b818110610f6157877f3d16ff7ae1ff976bf3e2d008547dc79e16bc788a4063f051d05639b0d178fecc88808c8a8a8301520390a2005b8354895297840197928201928201610f2b565b015190508e80610eac565b9392918b91601f19821690845f528b5f20915f5b8d828210610fcd5750509683600b9810610fb5575b505050811b019055610ebf565b01515f1960f88460031b161c191690558e8080610fa8565b919295899487849397999a9b015181550195019301908e94929796959391610f93565b634e487b7160e01b5f52603260045260245ffd5b90508b01518c610d9f565b5f8481528981209250601f198416908a8f5b83831061105c575050509083600194939210611044575b5050811b019055610db2565b8d01515f1960f88460031b161c191690558c80611038565b840151855560019094019392830192018a8f611021565b60405162461bcd60e51b815260048101839052601160248201527014995c5d595cdd081b9bdd08199bdd5b99607a1b6044820152606490fd5b346101be5760403660031901126101be576110c56122b5565b6004355f525f60205260405f209060018060a01b03165f52602052602060ff60405f2054166040519015158152f35b60603660031901126101be576004356001600160401b0381116101be57366023820112156101be57806004013561112a816124d2565b916111386040519384612367565b818352602083016024819360051b830101913683116101be57602401905b8282106116a957505050602435916001600160401b0383116101be57366023840112156101be5782600401359261118c846124d2565b9061119a6040519283612367565b848252602082016024819660051b830101913683116101be57602401905b82821061169957505050600282511061165c57815181510361162557600a5434106115e7576002604435116115ad57815115610ff05782515f526002602052600160405f200154905f945f955b84518710156112ef576112188786612814565b515f52600260205260405f20846001820154036112b2576112529060ff80600b8301541691821561129b575b508115611271575b506124e9565b61125c8784612814565b518101809111610abb57600190960195611205565b905061127d8988612814565b515f52600660205260405f20335f5260205260405f2054168961124c565b600201546001600160a01b0316331491508a611244565b60405162461bcd60e51b8152602060048201526015602482015274446966666572656e742062617365206d6f64656c7360581b6044820152606490fd5b8483670de0b6b3a7640000889303611570576040513360601b60208201528060348101845186905f5b81811061155757505050835187905f5b81811061153e57505042825250038082526113469060200182612367565b6020815191012092835f52600360205260405f20908482558351906001600160401b03821161097557600160401b8211610975576001830154826001850155808310611514575b50600183015f5260205f205f5b838110611500575050505060028101948251906001600160401b03821161097557600160401b82116109755786548288558083106114e4575b50955f5260205f20955f5b8281106114d057865f808861145b6114718a60078b60038101336001600160601b0360a01b82541617905560443560068201550160ff1981541690556040519283916114496020840196631b587aaf60e11b88528a60248601526080604486015260a48501906122e1565b838103602319016064850152906122e1565b604435608483015203601f198101835282612367565b5190826110015af1611481612626565b501561149257602090604051908152f35b60405162461bcd60e51b815260206004820152601660248201527513595c99d948195e1958dd5d1a5bdb8819985a5b195960521b6044820152606490fd5b60019060208351930192818a0155016113de565b6114fa90885f528360205f20918201910161275b565b876113d3565b60019060208451940193818401550161139a565b600184015f5260205f20908382015b818301811061153357505061138d565b5f8155600101611523565b8251845285945060209384019390920191600101611328565b8251845285945060209384019390920191600101611318565b60405162461bcd60e51b815260206004820152601560248201527457656967687473206d7573742073756d20746f203160581b6044820152606490fd5b60405162461bcd60e51b8152602060048201526012602482015271496e76616c6964206d65726765207479706560701b6044820152606490fd5b60405162461bcd60e51b8152602060048201526016602482015275496e73756666696369656e74206d657267652066656560501b6044820152606490fd5b60405162461bcd60e51b815260206004820152600f60248201526e098cadccee8d040dad2e6dac2e8c6d608b1b6044820152606490fd5b60405162461bcd60e51b81526020600482015260156024820152744e656564206174206c656173742032204c6f52417360581b6044820152606490fd5b81358152602091820191016111b8565b8135815260209182019101611156565b346101be5760203660031901126101be576004355f90815260026020819052604090912080546001820154928201546001600160a01b031692919061170060038301612388565b9061170d60048401612388565b9161171a60058501612388565b926006850154936007860154600887015491600988015493600a89015495600b8a015460ff16976040519a61174e8c61234c565b600c8101548c52600d81015460208d0152600e81015460408d0152611775600f8201612388565b60608d0152601081015460808d01526011015460a08c01526040519c8d9c8d6101a09381526020015260408d01528060608d01528b016117b491612290565b8a810360808c01526117c591612290565b89810360a08b01526117d691612290565b9560c089015260e0880152610100870152610120860152610140850152151561016084015282810361018084015281518152602082015160208201526040820151604082015260608201516060820160c0905260c0820161183691612290565b916080810151608083015260a001519060a001520390f35b346101be5760203660031901126101be576001600160a01b0361186f6122cb565b165f52600460205261042b61041760405f206126cd565b346101be5760203660031901126101be57335f9081525f805160206128b283398151915260205260409020546118be9060ff16612675565b600435600955005b346101be5760403660031901126101be576024358015158091036101be576004355f526002602052600b60405f2061190b60018060a01b0360028301541633146127da565b019060ff801983541691161790555f80f35b346101be5761192b366124a0565b335f9081527fee57cd81e84075558e8fcc182a1f4393f91fc97f963a136e66b7f949a62f319f60209081526040909120549092919061196c9060ff16612675565b5f82815260028085526040909120908101546001600160a01b031615611ab957600501928354936119a561199f86612314565b1561271b565b8251946001600160401b03861161097557856119c36119c992612314565b83612797565b81601f8611600114611a385794807fd20d5d36d1a7801d75ee97f4514a560d28d1099328c60318337765562dbf29e595965f91611a2d575b508160011b915f199060031b1c19161790555b611a28604051928284938452830190612290565b0390a2005b905084015187611a01565b601f19861690825f52835f20915f5b818110611aa257509187917fd20d5d36d1a7801d75ee97f4514a560d28d1099328c60318337765562dbf29e5979860019410611a8a575b5050811b019055611a14565b8601515f1960f88460031b161c191690558780611a7e565b91928560018192868a015181550194019201611a47565b60405162461bcd60e51b815260048101859052600e60248201526d131bd490481b9bdd08199bdd5b9960921b6044820152606490fd5b346101be5760403660031901126101be57611b086122cb565b6001600160a01b03165f908152600460205260409020805460243591908210156101be57602091611b389161242a565b90546040519160031b1c8152f35b346101be5760403660031901126101be576024356004355f52600560205260405f2080548210156101be57602091611b389161242a565b346101be575f3660031901126101be57335f9081525f805160206128b28339815191526020526040902054611bb49060ff16612675565b478015611c0c575f80808093335af1611bcb612626565b5015611bd357005b60405162461bcd60e51b815260206004820152601160248201527015da5d1a191c985dd85b0819985a5b1959607a1b6044820152606490fd5b60405162461bcd60e51b81526020600482015260076024820152664e6f206665657360c81b6044820152606490fd5b346101be5760203660031901126101be576004355f52600360205260405f20805460018060a01b03600383015416916004810154611caf611c7e60058401612388565b60ff60076006860154950154169260405196879687526020870152604086015260c0606086015260c0850190612290565b916080840152151560a08301520390f35b346101be576020806003193601126101be576004355f526003815260405f206001600282019160018060a01b036003820154169360ff60078301541691611d09600182016126cd565b9460405180958483549283815201925f52845f20915f5b818110611d8a57611d638a61042b8d8c8c611d708d611d4e60058f8f87611d48910388612367565b01612388565b9360405198899860a08a5260a08a01906122e1565b91888303908901526122e1565b926040860152151560608501528382036080850152612290565b8354855293860193928201928201611d20565b346101be5760403660031901126101be57600435611db96122b5565b335f9081525f805160206128b28339815191526020908152604090912054919291611de69060ff16612675565b5f82815280825260408082206001600160a01b0390951680835294835290205460ff1615611e1057005b815f525f815260405f2090835f525260405f20600160ff198254161790557f2ae6a113c0ed5b78a53413ffbb7679881f11145ccfba4fb92e863dfcd5a1d2f35f80a3005b346101be575f3660031901126101be576001546040516001600160a01b039091168152602090f35b60603660031901126101be57602480359060448035916001600160401b0390600435908285116101be57366023860112156101be578460040135918383116101be5781860195828436920101116101be57865f526020956002875260405f20978260018a0154036121a0579083929160ff600b8b015416801561218a575b801561216c575b611f0a906124e9565b60015460405163043cf89360e31b815260048101859052946001600160a01b0392915f918791829086165afa948515610b4e575f95612148575b5084341061210e575f80916040518c810191635c535b3560e01b8352878a8301528c82015260606064820152611f828161081e608482018d8a612655565b5190826110015af199611f93612626565b9a156120d35784158015611fb5575b6040518b81528061042b818e018f612290565b601486029086820460141417156120c05760649004908186039586116120c0575f80809385600283950154165af1611feb612626565b501561208757916120255f96949260409694600154169587519a8b988997889663bfaa984360e01b88526004880152860152840191612655565b03925af18015610b4e57612041575b8080808080808080611fa2565b3d805f843e6120508184612367565b82019183818403126101be5780519182116101be57019080601f830112156101be57815161207f928401612525565b508280612034565b60405162461bcd60e51b8152600481018a905260138187015272131bd490481c185e5b595b9d0819985a5b1959606a1b818a0152606490fd5b86634e487b7160e01b5f5260116004525ffd5b60405162461bcd60e51b8152600481018b905260158188015274131bd490481a5b99995c995b98d94819985a5b1959605a1b818b0152606490fd5b60405162461bcd60e51b8152600481018b905260148188015273125b9cdd59999a58da595b9d081c185e5b595b9d60621b818b0152606490fd5b61215d9195503d805f833e610ba98183612367565b5050945050505050938b611f44565b505f81815260068a5260408082203383528b5290205460ff16611f01565b5060028a01546001600160a01b03163314611efa565b60405162461bcd60e51b8152600481018990526017818601527f4c6f5241206e6f7420666f722074686973206d6f64656c00000000000000000081890152606490fd5b346101be5760203660031901126101be576004355f52600260205260405f20600181015460018060a01b0360028301541691600681015490611caf60ff600b8301541691612261612242600561223b60038501612388565b9301612388565b916040519788978852602088015260c0604088015260c0870190612290565b908582036060870152612290565b5f5b8381106122805750505f910152565b8181015183820152602001612271565b906020916122a98151809281855285808601910161226f565b601f01601f1916010190565b602435906001600160a01b03821682036101be57565b600435906001600160a01b03821682036101be57565b9081518082526020808093019301915f5b828110612300575050505090565b8351855293810193928101926001016122f2565b90600182811c92168015612342575b602083101461232e57565b634e487b7160e01b5f52602260045260245ffd5b91607f1691612323565b60c081019081106001600160401b0382111761097557604052565b90601f801991011681019081106001600160401b0382111761097557604052565b9060405191825f825461239a81612314565b908184526020946001916001811690815f1461240857506001146123ca575b5050506123c892500383612367565b565b5f90815285812095935091905b8183106123f05750506123c893508201015f80806123b9565b855488840185015294850194879450918301916123d7565b925050506123c894925060ff191682840152151560051b8201015f80806123b9565b8054821015610ff0575f5260205f2001905f90565b6001600160401b03811161097557601f01601f191660200190565b81601f820112156101be578035906124718261243f565b9261247f6040519485612367565b828452602083830101116101be57815f926020809301838601378301015290565b9060406003198301126101be5760043591602435906001600160401b0382116101be576124cf9160040161245a565b90565b6001600160401b0381116109755760051b60200190565b156124f057565b60405162461bcd60e51b815260206004820152600d60248201526c2737903832b936b4b9b9b4b7b760991b6044820152606490fd5b909291926125328161243f565b916125406040519384612367565b8294828452828201116101be5760206123c893019061226f565b9080601f830112156101be5781516124cf92602001612525565b519081151582036101be57565b919091610100818403126101be5780516001600160a01b03811681036101be57926020820151916001600160401b03928381116101be57826125c491830161255a565b9360408201518481116101be57836125dd91840161255a565b9360608301518181116101be57846125f691850161255a565b9360808401519182116101be5761260e91840161255a565b9160a0810151916124cf60e060c08401519301612574565b3d15612650573d906126378261243f565b916126456040519384612367565b82523d5f602084013e565b606090565b908060209392818452848401375f828201840152601f01601f1916010190565b1561267c57565b60405162461bcd60e51b815260206004820152602360248201527f416363657373436f6e74726f6c3a206163636f756e74206d697373696e6720726044820152626f6c6560e81b6064820152608490fd5b90604051918281549182825260209260208301915f5260205f20935f905b828210612701575050506123c892500383612367565b8554845260019586019588955093810193909101906126eb565b1561272257565b60405162461bcd60e51b8152602060048201526011602482015270105b1c9958591e4818dbdb5c1b195d1959607a1b6044820152606490fd5b818110612766575050565b5f815560010161275b565b90601f811161277e575050565b6123c8915f52601f60205f20910160051c81019061275b565b9190601f81116127a657505050565b6123c8925f5260205f20906020601f840160051c830193106127d0575b601f0160051c019061275b565b90915081906127c3565b156127e157565b60405162461bcd60e51b815260206004820152600b60248201526a2737ba1031b932b0ba37b960a91b6044820152606490fd5b8051821015610ff05760209160051b010190565b600754600160401b811015610975576001810180600755811015610ff05760075f527fa66cc928b5edb82af9bd49922954155ab7b0942694bea4ce44661d9a8736c6880155565b8054600160401b8110156109755761288c9160018201815561242a565b819291549060031b91821b915f19901b1916179055565b5f198114610abb576001019056fead3228b676f7d3cd4284a5443f17f1962b36e491b30a40b2405849e597ba5fb5a2646970667358221220cada2e5e24e27d14bcc7f415b90068e11c6b5d293522b951ecdde51c8c65613c64736f6c634300081800332ae6a113c0ed5b78a53413ffbb7679881f11145ccfba4fb92e863dfcd5a1d2f3","linkReferences":{}},"methodIdentifiers":{"DEFAULT_ADMIN_ROLE()":"a217fddf","OPERATOR_ROLE()":"f5b541a6","VALIDATOR_ROLE()":"c49baebe","adapterPermissions(bytes32,address)":"a903a5d9","adapters(bytes32)":"72c6838f","allAdapterHashes(uint256)":"f6397718","completeMerge(bytes32,string)":"985e98c7","completeTraining(bytes32,string)":"5b3825fc","createLoRA(bytes32,string,string,uint256,uint256,uint256,(uint256,uint256,uint256,string,uint256,uint256))":"b3238978","getLoRA(bytes32)":"02867e21","getMergeRequest(bytes32)":"3129bf33","getModelLoRAs(bytes32)":"b7893ae9","getUserLoRAs(address)":"6cfffa0a","grantPermission(bytes32,address)":"bc586456","grantRole(bytes32,address)":"2f2ff15d","hasRole(bytes32,address)":"91d14854","inferWithLoRA(bytes32,bytes32,bytes)":"210649e3","mergeFee()":"e15336f9","mergeLoRAs(bytes32[],uint256[],uint256)":"82d2845b","mergeRequests(bytes32)":"34c3aa66","modelAdapters(bytes32,uint256)":"57711eff","modelRegistry()":"2ba36f78","revokePermission(bytes32,address)":"a6a8f17b","revokeRole(bytes32,address)":"d547741f","setMergeFee(uint256)":"de552786","setPublicStatus(bytes32,bool)":"5c0a62db","setTrainingFee(uint256)":"61687670","totalAdapters()":"a1b39b7f","trainingFeePerEpoch()":"c4a1894c","userAdapters(address,uint256)":"585e6c1b","withdrawFees()":"476343ee"},"id":30}